{
  "_format": "hh-sol-artifact-1",
  "contractName": "LendingPool",
  "sourceName": "contracts/LendingPool.sol",
  "abi": [
    {
      "inputs": [
        {
          "internalType": "address",
          "name": "_liquidation",
          "type": "address"
        },
        {
          "internalType": "address",
          "name": "_priceRouter",
          "type": "address"
        },
        {
          "internalType": "uint256",
          "name": "_collateralFactor",
          "type": "uint256"
        }
      ],
      "stateMutability": "nonpayable",
      "type": "constructor"
    },
    {
      "inputs": [
        {
          "internalType": "address",
          "name": "owner",
          "type": "address"
        }
      ],
      "name": "OwnableInvalidOwner",
      "type": "error"
    },
    {
      "inputs": [
        {
          "internalType": "address",
          "name": "account",
          "type": "address"
        }
      ],
      "name": "OwnableUnauthorizedAccount",
      "type": "error"
    },
    {
      "inputs": [],
      "name": "ReentrancyGuardReentrantCall",
      "type": "error"
    },
    {
      "inputs": [
        {
          "internalType": "address",
          "name": "token",
          "type": "address"
        }
      ],
      "name": "SafeERC20FailedOperation",
      "type": "error"
    },
    {
      "anonymous": false,
      "inputs": [
        {
          "indexed": true,
          "internalType": "address",
          "name": "asset",
          "type": "address"
        },
        {
          "indexed": false,
          "internalType": "uint256",
          "name": "interestAccrued",
          "type": "uint256"
        },
        {
          "indexed": false,
          "internalType": "uint256",
          "name": "depositInterestAccrued",
          "type": "uint256"
        },
        {
          "indexed": false,
          "internalType": "uint256",
          "name": "newTotalBorrows",
          "type": "uint256"
        },
        {
          "indexed": false,
          "internalType": "uint256",
          "name": "newBorrowIndex",
          "type": "uint256"
        },
        {
          "indexed": false,
          "internalType": "uint256",
          "name": "newTotalDeposits",
          "type": "uint256"
        },
        {
          "indexed": false,
          "internalType": "uint256",
          "name": "newDepositIndex",
          "type": "uint256"
        }
      ],
      "name": "Accrue",
      "type": "event"
    },
    {
      "anonymous": false,
      "inputs": [
        {
          "indexed": true,
          "internalType": "address",
          "name": "admin",
          "type": "address"
        }
      ],
      "name": "AdminAdded",
      "type": "event"
    },
    {
      "anonymous": false,
      "inputs": [
        {
          "indexed": true,
          "internalType": "address",
          "name": "admin",
          "type": "address"
        }
      ],
      "name": "AdminRemoved",
      "type": "event"
    },
    {
      "anonymous": false,
      "inputs": [
        {
          "indexed": true,
          "internalType": "address",
          "name": "user",
          "type": "address"
        },
        {
          "indexed": true,
          "internalType": "address",
          "name": "asset",
          "type": "address"
        },
        {
          "indexed": false,
          "internalType": "uint256",
          "name": "amount",
          "type": "uint256"
        }
      ],
      "name": "Borrow",
      "type": "event"
    },
    {
      "anonymous": false,
      "inputs": [
        {
          "indexed": true,
          "internalType": "address",
          "name": "borrower",
          "type": "address"
        },
        {
          "indexed": true,
          "internalType": "address",
          "name": "collateralAsset",
          "type": "address"
        },
        {
          "indexed": false,
          "internalType": "uint256",
          "name": "seizeAmount",
          "type": "uint256"
        }
      ],
      "name": "CollateralSeized",
      "type": "event"
    },
    {
      "anonymous": false,
      "inputs": [
        {
          "indexed": true,
          "internalType": "address",
          "name": "user",
          "type": "address"
        },
        {
          "indexed": true,
          "internalType": "address",
          "name": "asset",
          "type": "address"
        },
        {
          "indexed": false,
          "internalType": "uint256",
          "name": "amount",
          "type": "uint256"
        }
      ],
      "name": "Deposit",
      "type": "event"
    },
    {
      "anonymous": false,
      "inputs": [
        {
          "indexed": true,
          "internalType": "address",
          "name": "asset",
          "type": "address"
        },
        {
          "indexed": false,
          "internalType": "address",
          "name": "interestRateModel",
          "type": "address"
        }
      ],
      "name": "MarketSupported",
      "type": "event"
    },
    {
      "anonymous": false,
      "inputs": [
        {
          "indexed": true,
          "internalType": "address",
          "name": "asset",
          "type": "address"
        }
      ],
      "name": "MarketUnsupported",
      "type": "event"
    },
    {
      "anonymous": false,
      "inputs": [
        {
          "indexed": true,
          "internalType": "address",
          "name": "previousOwner",
          "type": "address"
        },
        {
          "indexed": true,
          "internalType": "address",
          "name": "newOwner",
          "type": "address"
        }
      ],
      "name": "OwnershipTransferred",
      "type": "event"
    },
    {
      "anonymous": false,
      "inputs": [
        {
          "indexed": true,
          "internalType": "address",
          "name": "user",
          "type": "address"
        },
        {
          "indexed": true,
          "internalType": "address",
          "name": "asset",
          "type": "address"
        },
        {
          "indexed": false,
          "internalType": "uint256",
          "name": "amount",
          "type": "uint256"
        }
      ],
      "name": "Repay",
      "type": "event"
    },
    {
      "anonymous": false,
      "inputs": [
        {
          "indexed": true,
          "internalType": "address",
          "name": "borrower",
          "type": "address"
        },
        {
          "indexed": true,
          "internalType": "address",
          "name": "repayAsset",
          "type": "address"
        },
        {
          "indexed": false,
          "internalType": "uint256",
          "name": "repayAmount",
          "type": "uint256"
        }
      ],
      "name": "RepayFromLiquidation",
      "type": "event"
    },
    {
      "anonymous": false,
      "inputs": [
        {
          "indexed": true,
          "internalType": "address",
          "name": "user",
          "type": "address"
        },
        {
          "indexed": true,
          "internalType": "address",
          "name": "asset",
          "type": "address"
        },
        {
          "indexed": false,
          "internalType": "uint256",
          "name": "amount",
          "type": "uint256"
        }
      ],
      "name": "Withdraw",
      "type": "event"
    },
    {
      "inputs": [],
      "name": "SCALE",
      "outputs": [
        {
          "internalType": "uint256",
          "name": "",
          "type": "uint256"
        }
      ],
      "stateMutability": "view",
      "type": "function"
    },
    {
      "inputs": [],
      "name": "SECONDS_PER_YEAR",
      "outputs": [
        {
          "internalType": "uint256",
          "name": "",
          "type": "uint256"
        }
      ],
      "stateMutability": "view",
      "type": "function"
    },
    {
      "inputs": [
        {
          "internalType": "address",
          "name": "asset",
          "type": "address"
        }
      ],
      "name": "accrueInterest",
      "outputs": [],
      "stateMutability": "nonpayable",
      "type": "function"
    },
    {
      "inputs": [
        {
          "internalType": "uint256",
          "name": "",
          "type": "uint256"
        }
      ],
      "name": "allMarkets",
      "outputs": [
        {
          "internalType": "address",
          "name": "",
          "type": "address"
        }
      ],
      "stateMutability": "view",
      "type": "function"
    },
    {
      "inputs": [
        {
          "internalType": "address",
          "name": "asset",
          "type": "address"
        },
        {
          "internalType": "uint256",
          "name": "amount",
          "type": "uint256"
        }
      ],
      "name": "borrow",
      "outputs": [],
      "stateMutability": "nonpayable",
      "type": "function"
    },
    {
      "inputs": [],
      "name": "collateralFactor",
      "outputs": [
        {
          "internalType": "uint256",
          "name": "",
          "type": "uint256"
        }
      ],
      "stateMutability": "view",
      "type": "function"
    },
    {
      "inputs": [
        {
          "internalType": "address",
          "name": "asset",
          "type": "address"
        },
        {
          "internalType": "uint256",
          "name": "amount",
          "type": "uint256"
        }
      ],
      "name": "deposit",
      "outputs": [],
      "stateMutability": "nonpayable",
      "type": "function"
    },
    {
      "inputs": [
        {
          "internalType": "address",
          "name": "user",
          "type": "address"
        }
      ],
      "name": "getAccountLiquidity",
      "outputs": [
        {
          "internalType": "uint256",
          "name": "totalDepositedUSD",
          "type": "uint256"
        },
        {
          "internalType": "uint256",
          "name": "totalBorrowedUSD",
          "type": "uint256"
        }
      ],
      "stateMutability": "view",
      "type": "function"
    },
    {
      "inputs": [],
      "name": "getAllMarkets",
      "outputs": [
        {
          "internalType": "address[]",
          "name": "",
          "type": "address[]"
        }
      ],
      "stateMutability": "view",
      "type": "function"
    },
    {
      "inputs": [
        {
          "internalType": "address",
          "name": "asset",
          "type": "address"
        }
      ],
      "name": "getMarketInfo",
      "outputs": [
        {
          "internalType": "uint256",
          "name": "totalDeposits",
          "type": "uint256"
        },
        {
          "internalType": "uint256",
          "name": "totalBorrows",
          "type": "uint256"
        },
        {
          "internalType": "uint256",
          "name": "depositRate",
          "type": "uint256"
        },
        {
          "internalType": "uint256",
          "name": "borrowRate",
          "type": "uint256"
        },
        {
          "internalType": "uint256",
          "name": "utilizationRate",
          "type": "uint256"
        }
      ],
      "stateMutability": "view",
      "type": "function"
    },
    {
      "inputs": [
        {
          "internalType": "address",
          "name": "user",
          "type": "address"
        },
        {
          "internalType": "address",
          "name": "asset",
          "type": "address"
        }
      ],
      "name": "getUserCurrentBorrow",
      "outputs": [
        {
          "internalType": "uint256",
          "name": "",
          "type": "uint256"
        }
      ],
      "stateMutability": "view",
      "type": "function"
    },
    {
      "inputs": [
        {
          "internalType": "address",
          "name": "user",
          "type": "address"
        },
        {
          "internalType": "address",
          "name": "asset",
          "type": "address"
        }
      ],
      "name": "getUserCurrentDeposit",
      "outputs": [
        {
          "internalType": "uint256",
          "name": "",
          "type": "uint256"
        }
      ],
      "stateMutability": "view",
      "type": "function"
    },
    {
      "inputs": [
        {
          "internalType": "address",
          "name": "user",
          "type": "address"
        }
      ],
      "name": "getUserInfo",
      "outputs": [
        {
          "internalType": "address[]",
          "name": "assets",
          "type": "address[]"
        },
        {
          "internalType": "uint256[]",
          "name": "deposited",
          "type": "uint256[]"
        },
        {
          "internalType": "uint256[]",
          "name": "borrowed",
          "type": "uint256[]"
        },
        {
          "internalType": "uint256",
          "name": "totalDeposited",
          "type": "uint256"
        },
        {
          "internalType": "uint256",
          "name": "totalBorrowedUSD",
          "type": "uint256"
        },
        {
          "internalType": "uint256",
          "name": "healthFactor",
          "type": "uint256"
        }
      ],
      "stateMutability": "view",
      "type": "function"
    },
    {
      "inputs": [
        {
          "internalType": "address",
          "name": "asset",
          "type": "address"
        }
      ],
      "name": "getUtilizationRate",
      "outputs": [
        {
          "internalType": "uint256",
          "name": "",
          "type": "uint256"
        }
      ],
      "stateMutability": "view",
      "type": "function"
    },
    {
      "inputs": [
        {
          "internalType": "address",
          "name": "",
          "type": "address"
        }
      ],
      "name": "isAdmin",
      "outputs": [
        {
          "internalType": "bool",
          "name": "",
          "type": "bool"
        }
      ],
      "stateMutability": "view",
      "type": "function"
    },
    {
      "inputs": [],
      "name": "liquidation",
      "outputs": [
        {
          "internalType": "address",
          "name": "",
          "type": "address"
        }
      ],
      "stateMutability": "view",
      "type": "function"
    },
    {
      "inputs": [
        {
          "internalType": "address",
          "name": "",
          "type": "address"
        }
      ],
      "name": "marketExists",
      "outputs": [
        {
          "internalType": "bool",
          "name": "",
          "type": "bool"
        }
      ],
      "stateMutability": "view",
      "type": "function"
    },
    {
      "inputs": [
        {
          "internalType": "address",
          "name": "",
          "type": "address"
        }
      ],
      "name": "markets",
      "outputs": [
        {
          "internalType": "bool",
          "name": "isSupported",
          "type": "bool"
        },
        {
          "internalType": "uint256",
          "name": "totalDeposits",
          "type": "uint256"
        },
        {
          "internalType": "uint256",
          "name": "totalBorrows",
          "type": "uint256"
        },
        {
          "internalType": "uint256",
          "name": "borrowIndex",
          "type": "uint256"
        },
        {
          "internalType": "uint256",
          "name": "depositIndex",
          "type": "uint256"
        },
        {
          "internalType": "uint256",
          "name": "lastUpdateTimestamp",
          "type": "uint256"
        },
        {
          "internalType": "address",
          "name": "interestRateModel",
          "type": "address"
        }
      ],
      "stateMutability": "view",
      "type": "function"
    },
    {
      "inputs": [],
      "name": "owner",
      "outputs": [
        {
          "internalType": "address",
          "name": "",
          "type": "address"
        }
      ],
      "stateMutability": "view",
      "type": "function"
    },
    {
      "inputs": [
        {
          "internalType": "address",
          "name": "user",
          "type": "address"
        },
        {
          "internalType": "address",
          "name": "asset",
          "type": "address"
        },
        {
          "internalType": "uint256",
          "name": "amount",
          "type": "uint256"
        }
      ],
      "name": "preViewBorrow",
      "outputs": [
        {
          "internalType": "uint256",
          "name": "totalDepositedUSD",
          "type": "uint256"
        },
        {
          "internalType": "uint256",
          "name": "totalBorrowedUSD",
          "type": "uint256"
        },
        {
          "internalType": "uint256",
          "name": "newBorrowUSD",
          "type": "uint256"
        },
        {
          "internalType": "uint256",
          "name": "newHealthFactor",
          "type": "uint256"
        }
      ],
      "stateMutability": "view",
      "type": "function"
    },
    {
      "inputs": [
        {
          "internalType": "address",
          "name": "user",
          "type": "address"
        },
        {
          "internalType": "address",
          "name": "asset",
          "type": "address"
        },
        {
          "internalType": "uint256",
          "name": "amount",
          "type": "uint256"
        }
      ],
      "name": "preViewDeposit",
      "outputs": [
        {
          "internalType": "uint256",
          "name": "totalDepositedUSD",
          "type": "uint256"
        },
        {
          "internalType": "uint256",
          "name": "newDepositedUSD",
          "type": "uint256"
        }
      ],
      "stateMutability": "view",
      "type": "function"
    },
    {
      "inputs": [
        {
          "internalType": "address",
          "name": "user",
          "type": "address"
        },
        {
          "internalType": "address",
          "name": "asset",
          "type": "address"
        },
        {
          "internalType": "uint256",
          "name": "amount",
          "type": "uint256"
        }
      ],
      "name": "preViewRepay",
      "outputs": [
        {
          "internalType": "uint256",
          "name": "totalBorrowedUSD",
          "type": "uint256"
        },
        {
          "internalType": "uint256",
          "name": "newBorrowedUSD",
          "type": "uint256"
        }
      ],
      "stateMutability": "view",
      "type": "function"
    },
    {
      "inputs": [
        {
          "internalType": "address",
          "name": "user",
          "type": "address"
        },
        {
          "internalType": "address",
          "name": "asset",
          "type": "address"
        },
        {
          "internalType": "uint256",
          "name": "amount",
          "type": "uint256"
        }
      ],
      "name": "preViewWithdraw",
      "outputs": [
        {
          "internalType": "uint256",
          "name": "totalDepositedUSD",
          "type": "uint256"
        },
        {
          "internalType": "uint256",
          "name": "totalBorrowedUSD",
          "type": "uint256"
        },
        {
          "internalType": "uint256",
          "name": "newDepositedUSD",
          "type": "uint256"
        },
        {
          "internalType": "uint256",
          "name": "newHealthFactor",
          "type": "uint256"
        }
      ],
      "stateMutability": "view",
      "type": "function"
    },
    {
      "inputs": [],
      "name": "priceRouter",
      "outputs": [
        {
          "internalType": "address",
          "name": "",
          "type": "address"
        }
      ],
      "stateMutability": "view",
      "type": "function"
    },
    {
      "inputs": [],
      "name": "renounceOwnership",
      "outputs": [],
      "stateMutability": "nonpayable",
      "type": "function"
    },
    {
      "inputs": [
        {
          "internalType": "address",
          "name": "asset",
          "type": "address"
        },
        {
          "internalType": "uint256",
          "name": "amount",
          "type": "uint256"
        }
      ],
      "name": "repay",
      "outputs": [],
      "stateMutability": "nonpayable",
      "type": "function"
    },
    {
      "inputs": [
        {
          "internalType": "address",
          "name": "borrower",
          "type": "address"
        },
        {
          "internalType": "address",
          "name": "repayAsset",
          "type": "address"
        },
        {
          "internalType": "uint256",
          "name": "repayAmount",
          "type": "uint256"
        }
      ],
      "name": "repayFromLiquidation",
      "outputs": [],
      "stateMutability": "nonpayable",
      "type": "function"
    },
    {
      "inputs": [
        {
          "internalType": "address",
          "name": "borrower",
          "type": "address"
        },
        {
          "internalType": "address",
          "name": "collateralAsset",
          "type": "address"
        },
        {
          "internalType": "uint256",
          "name": "seizeAmount",
          "type": "uint256"
        },
        {
          "internalType": "address",
          "name": "recipient",
          "type": "address"
        }
      ],
      "name": "seizeCollateral",
      "outputs": [],
      "stateMutability": "nonpayable",
      "type": "function"
    },
    {
      "inputs": [
        {
          "internalType": "address",
          "name": "admin",
          "type": "address"
        },
        {
          "internalType": "bool",
          "name": "allowed",
          "type": "bool"
        }
      ],
      "name": "setAdmin",
      "outputs": [],
      "stateMutability": "nonpayable",
      "type": "function"
    },
    {
      "inputs": [
        {
          "internalType": "uint256",
          "name": "_collateralFactor",
          "type": "uint256"
        }
      ],
      "name": "setCollateralParams",
      "outputs": [],
      "stateMutability": "nonpayable",
      "type": "function"
    },
    {
      "inputs": [
        {
          "internalType": "address",
          "name": "_liquidation",
          "type": "address"
        }
      ],
      "name": "setLiquidation",
      "outputs": [],
      "stateMutability": "nonpayable",
      "type": "function"
    },
    {
      "inputs": [
        {
          "internalType": "address",
          "name": "_priceRouter",
          "type": "address"
        }
      ],
      "name": "setPriceRouter",
      "outputs": [],
      "stateMutability": "nonpayable",
      "type": "function"
    },
    {
      "inputs": [
        {
          "internalType": "address",
          "name": "asset",
          "type": "address"
        },
        {
          "internalType": "address",
          "name": "interestRateModel",
          "type": "address"
        }
      ],
      "name": "supportMarket",
      "outputs": [],
      "stateMutability": "nonpayable",
      "type": "function"
    },
    {
      "inputs": [
        {
          "internalType": "address",
          "name": "newOwner",
          "type": "address"
        }
      ],
      "name": "transferOwnership",
      "outputs": [],
      "stateMutability": "nonpayable",
      "type": "function"
    },
    {
      "inputs": [
        {
          "internalType": "address",
          "name": "asset",
          "type": "address"
        }
      ],
      "name": "unsupportMarket",
      "outputs": [],
      "stateMutability": "nonpayable",
      "type": "function"
    },
    {
      "inputs": [
        {
          "internalType": "address",
          "name": "",
          "type": "address"
        },
        {
          "internalType": "address",
          "name": "",
          "type": "address"
        }
      ],
      "name": "userBalances",
      "outputs": [
        {
          "internalType": "uint256",
          "name": "deposited",
          "type": "uint256"
        },
        {
          "internalType": "uint256",
          "name": "borrowed",
          "type": "uint256"
        },
        {
          "internalType": "uint256",
          "name": "borrowIndexSnapShot",
          "type": "uint256"
        },
        {
          "internalType": "uint256",
          "name": "depositIndexSnapShot",
          "type": "uint256"
        }
      ],
      "stateMutability": "view",
      "type": "function"
    },
    {
      "inputs": [
        {
          "internalType": "address",
          "name": "",
          "type": "address"
        },
        {
          "internalType": "address",
          "name": "",
          "type": "address"
        }
      ],
      "name": "userMarketExists",
      "outputs": [
        {
          "internalType": "bool",
          "name": "",
          "type": "bool"
        }
      ],
      "stateMutability": "view",
      "type": "function"
    },
    {
      "inputs": [
        {
          "internalType": "address",
          "name": "",
          "type": "address"
        },
        {
          "internalType": "uint256",
          "name": "",
          "type": "uint256"
        }
      ],
      "name": "userMarkets",
      "outputs": [
        {
          "internalType": "address",
          "name": "",
          "type": "address"
        }
      ],
      "stateMutability": "view",
      "type": "function"
    },
    {
      "inputs": [
        {
          "internalType": "address",
          "name": "asset",
          "type": "address"
        },
        {
          "internalType": "uint256",
          "name": "amount",
          "type": "uint256"
        }
      ],
      "name": "withdraw",
      "outputs": [],
      "stateMutability": "nonpayable",
      "type": "function"
    }
  ],
  "bytecode": "0x608060405234801561001057600080fd5b506040516156a93803806156a983398181016040528101906100329190610302565b33600073ffffffffffffffffffffffffffffffffffffffff168173ffffffffffffffffffffffffffffffffffffffff16036100a55760006040517f1e4fbdf700000000000000000000000000000000000000000000000000000000815260040161009c9190610364565b60405180910390fd5b6100b4816101a560201b60201c565b506001808190555082600960006101000a81548173ffffffffffffffffffffffffffffffffffffffff021916908373ffffffffffffffffffffffffffffffffffffffff16021790555081600a60006101000a81548173ffffffffffffffffffffffffffffffffffffffff021916908373ffffffffffffffffffffffffffffffffffffffff160217905550806008819055506001600b60003373ffffffffffffffffffffffffffffffffffffffff1673ffffffffffffffffffffffffffffffffffffffff16815260200190815260200160002060006101000a81548160ff02191690831515021790555050505061037f565b60008060009054906101000a900473ffffffffffffffffffffffffffffffffffffffff169050816000806101000a81548173ffffffffffffffffffffffffffffffffffffffff021916908373ffffffffffffffffffffffffffffffffffffffff1602179055508173ffffffffffffffffffffffffffffffffffffffff168173ffffffffffffffffffffffffffffffffffffffff167f8be0079c531659141344cd1fd0a4f28419497f9722a3daafe3b4186f6b6457e060405160405180910390a35050565b600080fd5b600073ffffffffffffffffffffffffffffffffffffffff82169050919050565b60006102998261026e565b9050919050565b6102a98161028e565b81146102b457600080fd5b50565b6000815190506102c6816102a0565b92915050565b6000819050919050565b6102df816102cc565b81146102ea57600080fd5b50565b6000815190506102fc816102d6565b92915050565b60008060006060848603121561031b5761031a610269565b5b6000610329868287016102b7565b935050602061033a868287016102b7565b925050604061034b868287016102ed565b9150509250925092565b61035e8161028e565b82525050565b60006020820190506103796000830184610355565b92915050565b61531b8061038e6000396000f3fe608060405234801561001057600080fd5b506004361061023d5760003560e01c8063adb519801161013b578063e4f2c9ea116100b8578063f2dfbf661161007c578063f2dfbf661461074f578063f2fde38b1461076d578063f3fef3a314610789578063f429e35d146107a5578063f45c251f146107d55761023d565b8063e4f2c9ea146106aa578063e530ab2a146106c6578063e6a69ab8146106e2578063e8a92fa814610700578063eced5526146107315761023d565b8063d1142989116100ff578063d1142989146105ef578063d7d4bf451461060b578063db0f871d14610629578063df011c4114610659578063df499cdf146106775761023d565b8063adb519801461050a578063b0772d0b1461053d578063bc2936431461055b578063cc3325bc1461058c578063ce864188146105bf5761023d565b8063712ca018116101c95780638da5cb5b1161018d5780638da5cb5b146104625780638e8f294b146104805780639198e515146104b6578063ab919ee3146104d2578063ace429cf146104ee5761023d565b8063712ca018146103ac578063715018a6146103dc5780637b6aa8bd146103e6578063837c614b1461041657806388005bdc146104465761023d565b80634b0bddd2116102105780634b0bddd2146102de5780634b8a3529146102fa57806352d84d1e146103165780635ec88c79146103465780636386c1c7146103775761023d565b80630cf85bcc1461024257806322867d781461027657806324d7806c1461029257806347e7ef24146102c2575b600080fd5b61025c60048036038101906102579190614670565b6107f1565b60405161026d9594939291906146b6565b60405180910390f35b610290600480360381019061028b9190614735565b610a50565b005b6102ac60048036038101906102a79190614670565b610d62565b6040516102b99190614790565b60405180910390f35b6102dc60048036038101906102d79190614735565b610d82565b005b6102f860048036038101906102f391906147d7565b6111db565b005b610314600480360381019061030f9190614735565b6112d0565b005b610330600480360381019061032b9190614817565b6116a8565b60405161033d9190614853565b60405180910390f35b610360600480360381019061035b9190614670565b6116e7565b60405161036e92919061486e565b60405180910390f35b610391600480360381019061038c9190614670565b61190f565b6040516103a396959493929190614a13565b60405180910390f35b6103c660048036038101906103c19190614670565b611c01565b6040516103d39190614790565b60405180910390f35b6103e4611c21565b005b61040060048036038101906103fb9190614670565b611c35565b60405161040d9190614a89565b60405180910390f35b610430600480360381019061042b9190614aa4565b611d6d565b60405161043d9190614790565b60405180910390f35b610460600480360381019061045b9190614670565b611d9c565b005b61046a611e6c565b6040516104779190614853565b60405180910390f35b61049a60048036038101906104959190614670565b611e95565b6040516104ad9796959493929190614ae4565b60405180910390f35b6104d060048036038101906104cb9190614670565b611f04565b005b6104ec60048036038101906104e79190614670565b612299565b005b61050860048036038101906105039190614b53565b612369565b005b610524600480360381019061051f9190614aa4565b612658565b6040516105349493929190614bba565b60405180910390f35b610545612695565b6040516105529190614bff565b60405180910390f35b61057560048036038101906105709190614c21565b612723565b60405161058392919061486e565b60405180910390f35b6105a660048036038101906105a19190614c21565b6128f1565b6040516105b69493929190614bba565b60405180910390f35b6105d960048036038101906105d49190614aa4565b612ba5565b6040516105e69190614a89565b60405180910390f35b61060960048036038101906106049190614817565b612bb9565b005b610613612c4f565b6040516106209190614853565b60405180910390f35b610643600480360381019061063e9190614735565b612c75565b6040516106509190614853565b60405180910390f35b610661612cc3565b60405161066e9190614a89565b60405180910390f35b610691600480360381019061068c9190614c21565b612cc9565b6040516106a19493929190614bba565b60405180910390f35b6106c460048036038101906106bf9190614aa4565b612f6e565b005b6106e060048036038101906106db9190614670565b6133c2565b005b6106ea6134ef565b6040516106f79190614a89565b60405180910390f35b61071a60048036038101906107159190614c21565b6134f7565b60405161072892919061486e565b60405180910390f35b6107396136b5565b6040516107469190614a89565b60405180910390f35b6107576136c1565b6040516107649190614853565b60405180910390f35b61078760048036038101906107829190614670565b6136e7565b005b6107a3600480360381019061079e9190614735565b61376d565b005b6107bf60048036038101906107ba9190614aa4565b613c1f565b6040516107cc9190614a89565b60405180910390f35b6107ef60048036038101906107ea9190614c21565b613c33565b005b600080600080600080600260008873ffffffffffffffffffffffffffffffffffffffff1673ffffffffffffffffffffffffffffffffffffffff1681526020019081526020016000206040518060e00160405290816000820160009054906101000a900460ff1615151515815260200160018201548152602001600282015481526020016003820154815260200160048201548152602001600582015481526020016006820160009054906101000a900473ffffffffffffffffffffffffffffffffffffffff1673ffffffffffffffffffffffffffffffffffffffff1673ffffffffffffffffffffffffffffffffffffffff16815250509050806000015161092d576040517f08c379a000000000000000000000000000000000000000000000000000000000815260040161092490614cd1565b60405180910390fd5b806020015195508060400151945061094487611c35565b91508060c0015173ffffffffffffffffffffffffffffffffffffffff1663d71275f6886040518263ffffffff1660e01b81526004016109839190614853565b602060405180830381865afa1580156109a0573d6000803e3d6000fd5b505050506040513d601f19601f820116820180604052508101906109c49190614d06565b92508060c0015173ffffffffffffffffffffffffffffffffffffffff16634c8f411d886040518263ffffffff1660e01b8152600401610a039190614853565b602060405180830381865afa158015610a20573d6000803e3d6000fd5b505050506040513d601f19601f82011682018060405250810190610a449190614d06565b93505091939590929450565b610a58613ec0565b81600260008273ffffffffffffffffffffffffffffffffffffffff1673ffffffffffffffffffffffffffffffffffffffff16815260200190815260200160002060000160009054906101000a900460ff16610ae8576040517f08c379a0000000000000000000000000000000000000000000000000000000008152600401610adf90614cd1565b60405180910390fd5b8160008111610b2c576040517f08c379a0000000000000000000000000000000000000000000000000000000008152600401610b2390614d7f565b60405180910390fd5b610b3584611f04565b6000600260008673ffffffffffffffffffffffffffffffffffffffff1673ffffffffffffffffffffffffffffffffffffffff16815260200190815260200160002090506000600560003373ffffffffffffffffffffffffffffffffffffffff1673ffffffffffffffffffffffffffffffffffffffff16815260200190815260200160002060008773ffffffffffffffffffffffffffffffffffffffff1673ffffffffffffffffffffffffffffffffffffffff16815260200190815260200160002090506000610c043388613f06565b905085811015610c49576040517f08c379a0000000000000000000000000000000000000000000000000000000008152600401610c4090614deb565b60405180910390fd5b600086905081811115610c5a578190505b610c873330838b73ffffffffffffffffffffffffffffffffffffffff1661410a909392919063ffffffff16565b60008183610c959190614e3a565b905060008103610cb8576000846001018190555060008460020181905550610ccf565b808460010181905550846003015484600201819055505b81856002016000828254610ce39190614e3a565b925050819055508873ffffffffffffffffffffffffffffffffffffffff163373ffffffffffffffffffffffffffffffffffffffff167f05f2eeda0e08e4b437f487c8d7d29b14537d15e3488170dc3de5dbdf8dac468484604051610d479190614a89565b60405180910390a350505050505050610d5e61418c565b5050565b600b6020528060005260406000206000915054906101000a900460ff1681565b610d8a613ec0565b81600260008273ffffffffffffffffffffffffffffffffffffffff1673ffffffffffffffffffffffffffffffffffffffff16815260200190815260200160002060000160009054906101000a900460ff16610e1a576040517f08c379a0000000000000000000000000000000000000000000000000000000008152600401610e1190614cd1565b60405180910390fd5b8160008111610e5e576040517f08c379a0000000000000000000000000000000000000000000000000000000008152600401610e5590614d7f565b60405180910390fd5b610e6784611f04565b610e943330858773ffffffffffffffffffffffffffffffffffffffff1661410a909392919063ffffffff16565b6000600260008673ffffffffffffffffffffffffffffffffffffffff1673ffffffffffffffffffffffffffffffffffffffff16815260200190815260200160002090506000600560003373ffffffffffffffffffffffffffffffffffffffff1673ffffffffffffffffffffffffffffffffffffffff16815260200190815260200160002060008773ffffffffffffffffffffffffffffffffffffffff1673ffffffffffffffffffffffffffffffffffffffff16815260200190815260200160002090506000610f633388614195565b90508086610f719190614e6e565b82600001819055508260040154826003018190555085836001016000828254610f9a9190614e6e565b92505081905550600760003373ffffffffffffffffffffffffffffffffffffffff1673ffffffffffffffffffffffffffffffffffffffff16815260200190815260200160002060008873ffffffffffffffffffffffffffffffffffffffff1673ffffffffffffffffffffffffffffffffffffffff16815260200190815260200160002060009054906101000a900460ff1661116557600660003373ffffffffffffffffffffffffffffffffffffffff1673ffffffffffffffffffffffffffffffffffffffff168152602001908152602001600020879080600181540180825580915050600190039060005260206000200160009091909190916101000a81548173ffffffffffffffffffffffffffffffffffffffff021916908373ffffffffffffffffffffffffffffffffffffffff1602179055506001600760003373ffffffffffffffffffffffffffffffffffffffff1673ffffffffffffffffffffffffffffffffffffffff16815260200190815260200160002060008973ffffffffffffffffffffffffffffffffffffffff1673ffffffffffffffffffffffffffffffffffffffff16815260200190815260200160002060006101000a81548160ff0219169083151502179055505b8673ffffffffffffffffffffffffffffffffffffffff163373ffffffffffffffffffffffffffffffffffffffff167f5548c837ab068cf56a2c2479df0882a4922fd203edb7517321831d95078c5f62886040516111c29190614a89565b60405180910390a350505050506111d761418c565b5050565b6111e3614399565b80600b60008473ffffffffffffffffffffffffffffffffffffffff1673ffffffffffffffffffffffffffffffffffffffff16815260200190815260200160002060006101000a81548160ff0219169083151502179055508015611288578173ffffffffffffffffffffffffffffffffffffffff167f44d6d25963f097ad14f29f06854a01f575648a1ef82f30e562ccd3889717e33960405160405180910390a26112cc565b8173ffffffffffffffffffffffffffffffffffffffff167fa3b62bc36326052d97ea62d63c3d60308ed4c3ea8ac079dd8499f1e9c4f80c0f60405160405180910390a25b5050565b6112d8613ec0565b81600260008273ffffffffffffffffffffffffffffffffffffffff1673ffffffffffffffffffffffffffffffffffffffff16815260200190815260200160002060000160009054906101000a900460ff16611368576040517f08c379a000000000000000000000000000000000000000000000000000000000815260040161135f90614cd1565b60405180910390fd5b81600081116113ac576040517f08c379a00000000000000000000000000000000000000000000000000000000081526004016113a390614d7f565b60405180910390fd5b6113b584611f04565b6000600260008673ffffffffffffffffffffffffffffffffffffffff1673ffffffffffffffffffffffffffffffffffffffff16815260200190815260200160002090506000600560003373ffffffffffffffffffffffffffffffffffffffff1673ffffffffffffffffffffffffffffffffffffffff16815260200190815260200160002060008773ffffffffffffffffffffffffffffffffffffffff1673ffffffffffffffffffffffffffffffffffffffff1681526020019081526020016000209050600080611484336116e7565b915091506000600a60009054906101000a900473ffffffffffffffffffffffffffffffffffffffff1673ffffffffffffffffffffffffffffffffffffffff166341976e098a6040518263ffffffff1660e01b81526004016114e59190614853565b602060405180830381865afa158015611502573d6000803e3d6000fd5b505050506040513d601f19601f820116820180604052508101906115269190614d06565b90506000670de0b6b3a7640000898361153f9190614ea2565b6115499190614f13565b905080836115579190614e6e565b670de0b6b3a76400006008548661156e9190614ea2565b6115789190614f13565b10156115b9576040517f08c379a00000000000000000000000000000000000000000000000000000000081526004016115b090614f90565b60405180910390fd5b60006115c5338c613f06565b9050808a6115d39190614e6e565b866001018190555086600301548660020181905550898760020160008282546115fc9190614e6e565b9250508190555061162e338b8d73ffffffffffffffffffffffffffffffffffffffff166144209092919063ffffffff16565b8a73ffffffffffffffffffffffffffffffffffffffff163373ffffffffffffffffffffffffffffffffffffffff167f312a5e5e1079f5dda4e95dbbd0b908b291fd5b992ef22073643ab691572c5b528c60405161168b9190614a89565b60405180910390a35050505050505050506116a461418c565b5050565b600381815481106116b857600080fd5b906000526020600020016000915054906101000a900473ffffffffffffffffffffffffffffffffffffffff1681565b6000806000600a60009054906101000a900473ffffffffffffffffffffffffffffffffffffffff1690506000600660008673ffffffffffffffffffffffffffffffffffffffff1673ffffffffffffffffffffffffffffffffffffffff1681526020019081526020016000208054806020026020016040519081016040528092919081815260200182805480156117d257602002820191906000526020600020905b8160009054906101000a900473ffffffffffffffffffffffffffffffffffffffff1673ffffffffffffffffffffffffffffffffffffffff1681526020019060010190808311611788575b5050505050905060005b81518110156119075760008282815181106117fa576117f9614fb0565b5b6020026020010151905060006118108883614195565b9050600061181e8984613f06565b905060008673ffffffffffffffffffffffffffffffffffffffff166341976e09856040518263ffffffff1660e01b815260040161185b9190614853565b602060405180830381865afa158015611878573d6000803e3d6000fd5b505050506040513d601f19601f8201168201806040525081019061189c9190614d06565b9050670de0b6b3a764000083826118b39190614ea2565b6118bd9190614f13565b896118c89190614e6e565b9850670de0b6b3a764000082826118df9190614ea2565b6118e99190614f13565b886118f49190614e6e565b97505050505080806001019150506117dc565b505050915091565b60608060606000806000600660008873ffffffffffffffffffffffffffffffffffffffff1673ffffffffffffffffffffffffffffffffffffffff1681526020019081526020016000208054806020026020016040519081016040528092919081815260200182805480156119d857602002820191906000526020600020905b8160009054906101000a900473ffffffffffffffffffffffffffffffffffffffff1673ffffffffffffffffffffffffffffffffffffffff168152602001906001019080831161198e575b505050505095506000865190508067ffffffffffffffff8111156119ff576119fe614fdf565b5b604051908082528060200260200182016040528015611a2d5781602001602082028036833780820191505090505b5095508067ffffffffffffffff811115611a4a57611a49614fdf565b5b604051908082528060200260200182016040528015611a785781602001602082028036833780820191505090505b50945060005b81811015611b05576000888281518110611a9b57611a9a614fb0565b5b60200260200101519050611aaf8a82614195565b888381518110611ac257611ac1614fb0565b5b602002602001018181525050611ad88a82613f06565b878381518110611aeb57611aea614fb0565b5b602002602001018181525050508080600101915050611a7e565b50611b0f886116e7565b809450819550505060008303611b47577fffffffffffffffffffffffffffffffffffffffffffffffffffffffffffffffff9150611bf7565b6000600960009054906101000a900473ffffffffffffffffffffffffffffffffffffffff1673ffffffffffffffffffffffffffffffffffffffff16634031234c6040518163ffffffff1660e01b8152600401602060405180830381865afa158015611bb6573d6000803e3d6000fd5b505050506040513d601f19601f82011682018060405250810190611bda9190614d06565b9050838186611be99190614ea2565b611bf39190614f13565b9250505b5091939550919395565b60046020528060005260406000206000915054906101000a900460ff1681565b611c29614399565b611c33600061449f565b565b600080600260008473ffffffffffffffffffffffffffffffffffffffff1673ffffffffffffffffffffffffffffffffffffffff1681526020019081526020016000206040518060e00160405290816000820160009054906101000a900460ff1615151515815260200160018201548152602001600282015481526020016003820154815260200160048201548152602001600582015481526020016006820160009054906101000a900473ffffffffffffffffffffffffffffffffffffffff1673ffffffffffffffffffffffffffffffffffffffff1673ffffffffffffffffffffffffffffffffffffffff168152505090506000816020015103611d3d576000915050611d68565b8060200151670de0b6b3a76400008260400151611d5a9190614ea2565b611d649190614f13565b9150505b919050565b60076020528160005260406000206020528060005260406000206000915091509054906101000a900460ff1681565b600b60003373ffffffffffffffffffffffffffffffffffffffff1673ffffffffffffffffffffffffffffffffffffffff16815260200190815260200160002060009054906101000a900460ff16611e28576040517f08c379a0000000000000000000000000000000000000000000000000000000008152600401611e1f9061505a565b60405180910390fd5b80600a60006101000a81548173ffffffffffffffffffffffffffffffffffffffff021916908373ffffffffffffffffffffffffffffffffffffffff16021790555050565b60008060009054906101000a900473ffffffffffffffffffffffffffffffffffffffff16905090565b60026020528060005260406000206000915090508060000160009054906101000a900460ff16908060010154908060020154908060030154908060040154908060050154908060060160009054906101000a900473ffffffffffffffffffffffffffffffffffffffff16905087565b6000600260008373ffffffffffffffffffffffffffffffffffffffff1673ffffffffffffffffffffffffffffffffffffffff16815260200190815260200160002090508060000160009054906101000a900460ff16611f635750612296565b6000816005015442611f759190614e3a565b905060008103611f86575050612296565b60008260060160009054906101000a900473ffffffffffffffffffffffffffffffffffffffff16905060008173ffffffffffffffffffffffffffffffffffffffff1663d71275f6866040518263ffffffff1660e01b8152600401611fea9190614853565b602060405180830381865afa158015612007573d6000803e3d6000fd5b505050506040513d601f19601f8201168201806040525081019061202b9190614d06565b905060008273ffffffffffffffffffffffffffffffffffffffff16634c8f411d876040518263ffffffff1660e01b81526004016120689190614853565b602060405180830381865afa158015612085573d6000803e3d6000fd5b505050506040513d601f19601f820116820180604052508101906120a99190614d06565b90506000670de0b6b3a76400006301e13380868589600201546120cc9190614ea2565b6120d69190614ea2565b6120e09190614f13565b6120ea9190614f13565b9050808660020160008282546121009190614e6e565b925050819055506000670de0b6b3a76400006301e1338087868a600301546121289190614ea2565b6121329190614ea2565b61213c9190614f13565b6121469190614f13565b90508087600301600082825461215c9190614e6e565b925050819055506000670de0b6b3a76400006301e1338088868b600101546121849190614ea2565b61218e9190614ea2565b6121989190614f13565b6121a29190614f13565b9050808860010160008282546121b89190614e6e565b925050819055506000670de0b6b3a76400006301e1338089878c600401546121e09190614ea2565b6121ea9190614ea2565b6121f49190614f13565b6121fe9190614f13565b9050808960040160008282546122149190614e6e565b925050819055504289600501819055508973ffffffffffffffffffffffffffffffffffffffff167f0624d4b124e9e7b0d6a1cb1df2ff41a60fdf034c5dc080fe204f09036f6d25fa85848c600201548d600301548e600101548f600401546040516122849695949392919061507a565b60405180910390a25050505050505050505b50565b600b60003373ffffffffffffffffffffffffffffffffffffffff1673ffffffffffffffffffffffffffffffffffffffff16815260200190815260200160002060009054906101000a900460ff16612325576040517f08c379a000000000000000000000000000000000000000000000000000000000815260040161231c9061505a565b60405180910390fd5b80600960006101000a81548173ffffffffffffffffffffffffffffffffffffffff021916908373ffffffffffffffffffffffffffffffffffffffff16021790555050565b600960009054906101000a900473ffffffffffffffffffffffffffffffffffffffff1673ffffffffffffffffffffffffffffffffffffffff163373ffffffffffffffffffffffffffffffffffffffff16146123f9576040517f08c379a00000000000000000000000000000000000000000000000000000000081526004016123f090615127565b60405180910390fd5b816000811161243d576040517f08c379a000000000000000000000000000000000000000000000000000000000815260040161243490614d7f565b60405180910390fd5b61244684611f04565b6000600560008773ffffffffffffffffffffffffffffffffffffffff1673ffffffffffffffffffffffffffffffffffffffff16815260200190815260200160002060008673ffffffffffffffffffffffffffffffffffffffff1673ffffffffffffffffffffffffffffffffffffffff16815260200190815260200160002090506000600260008773ffffffffffffffffffffffffffffffffffffffff1673ffffffffffffffffffffffffffffffffffffffff168152602001908152602001600020905060006125158888614195565b90508581101561255a576040517f08c379a000000000000000000000000000000000000000000000000000000000815260040161255190615193565b60405180910390fd5b600086826125689190614e3a565b90506000810361258b5760008460000181905550600084600301819055506125a2565b808460000181905550826004015484600301819055505b868360010160008282546125b69190614e3a565b925050819055506125e886888a73ffffffffffffffffffffffffffffffffffffffff166144209092919063ffffffff16565b8773ffffffffffffffffffffffffffffffffffffffff168973ffffffffffffffffffffffffffffffffffffffff167f1284277b7d46f4a42632238bce8963722a8d26209ca7aa951d890666eb5156ea896040516126459190614a89565b60405180910390a3505050505050505050565b6005602052816000526040600020602052806000526040600020600091509150508060000154908060010154908060020154908060030154905084565b6060600380548060200260200160405190810160405280929190818152602001828054801561271957602002820191906000526020600020905b8160009054906101000a900473ffffffffffffffffffffffffffffffffffffffff1673ffffffffffffffffffffffffffffffffffffffff16815260200190600101908083116126cf575b5050505050905090565b600080600260008573ffffffffffffffffffffffffffffffffffffffff1673ffffffffffffffffffffffffffffffffffffffff16815260200190815260200160002060000160009054906101000a900460ff166127b5576040517f08c379a00000000000000000000000000000000000000000000000000000000081526004016127ac90614cd1565b60405180910390fd5b600083116127f8576040517f08c379a00000000000000000000000000000000000000000000000000000000081526004016127ef90614d7f565b60405180910390fd5b612801856116e7565b9050809250506000600a60009054906101000a900473ffffffffffffffffffffffffffffffffffffffff1673ffffffffffffffffffffffffffffffffffffffff166341976e09866040518263ffffffff1660e01b81526004016128649190614853565b602060405180830381865afa158015612881573d6000803e3d6000fd5b505050506040513d601f19601f820116820180604052508101906128a59190614d06565b90506000670de0b6b3a764000085836128be9190614ea2565b6128c89190614f13565b90508084116128d85760006128e5565b80846128e49190614e3a565b5b92505050935093915050565b600080600080600260008773ffffffffffffffffffffffffffffffffffffffff1673ffffffffffffffffffffffffffffffffffffffff16815260200190815260200160002060000160009054906101000a900460ff16612986576040517f08c379a000000000000000000000000000000000000000000000000000000000815260040161297d90614cd1565b60405180910390fd5b600085116129c9576040517f08c379a00000000000000000000000000000000000000000000000000000000081526004016129c090614d7f565b60405180910390fd5b6129d2876116e7565b80945081955050506000600a60009054906101000a900473ffffffffffffffffffffffffffffffffffffffff1673ffffffffffffffffffffffffffffffffffffffff166341976e09886040518263ffffffff1660e01b8152600401612a379190614853565b602060405180830381865afa158015612a54573d6000803e3d6000fd5b505050506040513d601f19601f82011682018060405250810190612a789190614d06565b90506000670de0b6b3a76400008783612a919190614ea2565b612a9b9190614f13565b9050808611612aab576000612ab8565b8086612ab79190614e3a565b5b935060008503612aea577fffffffffffffffffffffffffffffffffffffffffffffffffffffffffffffffff9250612b9a565b6000600960009054906101000a900473ffffffffffffffffffffffffffffffffffffffff1673ffffffffffffffffffffffffffffffffffffffff16634031234c6040518163ffffffff1660e01b8152600401602060405180830381865afa158015612b59573d6000803e3d6000fd5b505050506040513d601f19601f82011682018060405250810190612b7d9190614d06565b9050858186612b8c9190614ea2565b612b969190614f13565b9350505b505093509350935093565b6000612bb18383614195565b905092915050565b600b60003373ffffffffffffffffffffffffffffffffffffffff1673ffffffffffffffffffffffffffffffffffffffff16815260200190815260200160002060009054906101000a900460ff16612c45576040517f08c379a0000000000000000000000000000000000000000000000000000000008152600401612c3c9061505a565b60405180910390fd5b8060088190555050565b600a60009054906101000a900473ffffffffffffffffffffffffffffffffffffffff1681565b60066020528160005260406000208181548110612c9157600080fd5b906000526020600020016000915091509054906101000a900473ffffffffffffffffffffffffffffffffffffffff1681565b60085481565b600080600080600260008773ffffffffffffffffffffffffffffffffffffffff1673ffffffffffffffffffffffffffffffffffffffff16815260200190815260200160002060000160009054906101000a900460ff16612d5e576040517f08c379a0000000000000000000000000000000000000000000000000000000008152600401612d5590614cd1565b60405180910390fd5b60008511612da1576040517f08c379a0000000000000000000000000000000000000000000000000000000008152600401612d9890614d7f565b60405180910390fd5b612daa876116e7565b80945081955050506000600a60009054906101000a900473ffffffffffffffffffffffffffffffffffffffff1673ffffffffffffffffffffffffffffffffffffffff166341976e09886040518263ffffffff1660e01b8152600401612e0f9190614853565b602060405180830381865afa158015612e2c573d6000803e3d6000fd5b505050506040513d601f19601f82011682018060405250810190612e509190614d06565b90506000670de0b6b3a76400008783612e699190614ea2565b612e739190614f13565b90508085612e819190614e6e565b935060008403612eb3577fffffffffffffffffffffffffffffffffffffffffffffffffffffffffffffffff9250612f63565b6000600960009054906101000a900473ffffffffffffffffffffffffffffffffffffffff1673ffffffffffffffffffffffffffffffffffffffff16634031234c6040518163ffffffff1660e01b8152600401602060405180830381865afa158015612f22573d6000803e3d6000fd5b505050506040513d601f19601f82011682018060405250810190612f469190614d06565b9050848188612f559190614ea2565b612f5f9190614f13565b9350505b505093509350935093565b600b60003373ffffffffffffffffffffffffffffffffffffffff1673ffffffffffffffffffffffffffffffffffffffff16815260200190815260200160002060009054906101000a900460ff16612ffa576040517f08c379a0000000000000000000000000000000000000000000000000000000008152600401612ff19061505a565b60405180910390fd5b600460008373ffffffffffffffffffffffffffffffffffffffff1673ffffffffffffffffffffffffffffffffffffffff16815260200190815260200160002060009054906101000a900460ff161561317b576001600260008473ffffffffffffffffffffffffffffffffffffffff1673ffffffffffffffffffffffffffffffffffffffff16815260200190815260200160002060000160006101000a81548160ff02191690831515021790555080600260008473ffffffffffffffffffffffffffffffffffffffff1673ffffffffffffffffffffffffffffffffffffffff16815260200190815260200160002060060160006101000a81548173ffffffffffffffffffffffffffffffffffffffff021916908373ffffffffffffffffffffffffffffffffffffffff1602179055508173ffffffffffffffffffffffffffffffffffffffff167f62bc9d008146dc27aff44047da56481285a473589f73d0af9c60cbc661551c9e8260405161316e9190614853565b60405180910390a26133be565b6040518060e001604052806001151581526020016000815260200160008152602001670de0b6b3a76400008152602001670de0b6b3a764000081526020014281526020018273ffffffffffffffffffffffffffffffffffffffff16815250600260008473ffffffffffffffffffffffffffffffffffffffff1673ffffffffffffffffffffffffffffffffffffffff16815260200190815260200160002060008201518160000160006101000a81548160ff0219169083151502179055506020820151816001015560408201518160020155606082015181600301556080820151816004015560a0820151816005015560c08201518160060160006101000a81548173ffffffffffffffffffffffffffffffffffffffff021916908373ffffffffffffffffffffffffffffffffffffffff1602179055509050506003829080600181540180825580915050600190039060005260206000200160009091909190916101000a81548173ffffffffffffffffffffffffffffffffffffffff021916908373ffffffffffffffffffffffffffffffffffffffff1602179055506001600460008473ffffffffffffffffffffffffffffffffffffffff1673ffffffffffffffffffffffffffffffffffffffff16815260200190815260200160002060006101000a81548160ff0219169083151502179055508173ffffffffffffffffffffffffffffffffffffffff167f62bc9d008146dc27aff44047da56481285a473589f73d0af9c60cbc661551c9e826040516133b59190614853565b60405180910390a25b5050565b600b60003373ffffffffffffffffffffffffffffffffffffffff1673ffffffffffffffffffffffffffffffffffffffff16815260200190815260200160002060009054906101000a900460ff1661344e576040517f08c379a00000000000000000000000000000000000000000000000000000000081526004016134459061505a565b60405180910390fd5b6000600260008373ffffffffffffffffffffffffffffffffffffffff1673ffffffffffffffffffffffffffffffffffffffff16815260200190815260200160002060000160006101000a81548160ff0219169083151502179055508073ffffffffffffffffffffffffffffffffffffffff167f431398c7df2ac791d73a0dda06d7b14cea5997fd7761fd028d11195079a49eed60405160405180910390a250565b6301e1338081565b600080600260008573ffffffffffffffffffffffffffffffffffffffff1673ffffffffffffffffffffffffffffffffffffffff16815260200190815260200160002060000160009054906101000a900460ff16613589576040517f08c379a000000000000000000000000000000000000000000000000000000000815260040161358090614cd1565b60405180910390fd5b600083116135cc576040517f08c379a00000000000000000000000000000000000000000000000000000000081526004016135c390614d7f565b60405180910390fd5b6135d5856116e7565b50809250506000600a60009054906101000a900473ffffffffffffffffffffffffffffffffffffffff1673ffffffffffffffffffffffffffffffffffffffff166341976e09866040518263ffffffff1660e01b81526004016136379190614853565b602060405180830381865afa158015613654573d6000803e3d6000fd5b505050506040513d601f19601f820116820180604052508101906136789190614d06565b90506000670de0b6b3a764000085836136919190614ea2565b61369b9190614f13565b905080846136a99190614e6e565b92505050935093915050565b670de0b6b3a764000081565b600960009054906101000a900473ffffffffffffffffffffffffffffffffffffffff1681565b6136ef614399565b600073ffffffffffffffffffffffffffffffffffffffff168173ffffffffffffffffffffffffffffffffffffffff16036137615760006040517f1e4fbdf70000000000000000000000000000000000000000000000000000000081526004016137589190614853565b60405180910390fd5b61376a8161449f565b50565b613775613ec0565b81600260008273ffffffffffffffffffffffffffffffffffffffff1673ffffffffffffffffffffffffffffffffffffffff16815260200190815260200160002060000160009054906101000a900460ff16613805576040517f08c379a00000000000000000000000000000000000000000000000000000000081526004016137fc90614cd1565b60405180910390fd5b8160008111613849576040517f08c379a000000000000000000000000000000000000000000000000000000000815260040161384090614d7f565b60405180910390fd5b61385284611f04565b6000600260008673ffffffffffffffffffffffffffffffffffffffff1673ffffffffffffffffffffffffffffffffffffffff16815260200190815260200160002090506000600560003373ffffffffffffffffffffffffffffffffffffffff1673ffffffffffffffffffffffffffffffffffffffff16815260200190815260200160002060008773ffffffffffffffffffffffffffffffffffffffff1673ffffffffffffffffffffffffffffffffffffffff168152602001908152602001600020905060006139213388614195565b905085811015613966576040517f08c379a000000000000000000000000000000000000000000000000000000000815260040161395d90615225565b60405180910390fd5b6000803073ffffffffffffffffffffffffffffffffffffffff16635ec88c79336040518263ffffffff1660e01b81526004016139a29190614853565b6040805180830381865afa1580156139be573d6000803e3d6000fd5b505050506040513d601f19601f820116820180604052508101906139e29190615245565b915091506000600a60009054906101000a900473ffffffffffffffffffffffffffffffffffffffff1673ffffffffffffffffffffffffffffffffffffffff166341976e098b6040518263ffffffff1660e01b8152600401613a439190614853565b602060405180830381865afa158015613a60573d6000803e3d6000fd5b505050506040513d601f19601f82011682018060405250810190613a849190614d06565b90506000670de0b6b3a76400008a83613a9d9190614ea2565b613aa79190614f13565b905082670de0b6b3a76400006008548387613ac29190614e3a565b613acc9190614ea2565b613ad69190614f13565b11613b16576040517f08c379a0000000000000000000000000000000000000000000000000000000008152600401613b0d90614f90565b60405180910390fd5b60008a86613b249190614e3a565b905060008103613b47576000876000018190555060008760030181905550613b5e565b808760000181905550876004015487600301819055505b8a886001016000828254613b729190614e3a565b92505081905550613ba4338c8e73ffffffffffffffffffffffffffffffffffffffff166144209092919063ffffffff16565b8b73ffffffffffffffffffffffffffffffffffffffff163373ffffffffffffffffffffffffffffffffffffffff167f9b1bfa7fa9ee420a16e124f794c35ac9f90472acc99140eb2f6447c714cad8eb8d604051613c019190614a89565b60405180910390a350505050505050505050613c1b61418c565b5050565b6000613c2b8383613f06565b905092915050565b600960009054906101000a900473ffffffffffffffffffffffffffffffffffffffff1673ffffffffffffffffffffffffffffffffffffffff163373ffffffffffffffffffffffffffffffffffffffff1614613cc3576040517f08c379a0000000000000000000000000000000000000000000000000000000008152600401613cba90615127565b60405180910390fd5b8060008111613d07576040517f08c379a0000000000000000000000000000000000000000000000000000000008152600401613cfe90614d7f565b60405180910390fd5b613d1083611f04565b6000600260008573ffffffffffffffffffffffffffffffffffffffff1673ffffffffffffffffffffffffffffffffffffffff16815260200190815260200160002090506000600560008773ffffffffffffffffffffffffffffffffffffffff1673ffffffffffffffffffffffffffffffffffffffff16815260200190815260200160002060008673ffffffffffffffffffffffffffffffffffffffff1673ffffffffffffffffffffffffffffffffffffffff16815260200190815260200160002090506000613ddf8787613f06565b905060008582613def9190614e3a565b905060008103613e12576000836001018190555060008360020181905550613e29565b808360010181905550836003015483600201819055505b8360030154836002018190555085846002016000828254613e4a9190614e3a565b925050819055508673ffffffffffffffffffffffffffffffffffffffff168873ffffffffffffffffffffffffffffffffffffffff167f4d9046e2d939f189888c8dfb01b343ca8ff3388075b9dc3e8bcf1be618db35ad88604051613eae9190614a89565b60405180910390a35050505050505050565b600260015403613efc576040517f3ee5aeb500000000000000000000000000000000000000000000000000000000815260040160405180910390fd5b6002600181905550565b600080600560008573ffffffffffffffffffffffffffffffffffffffff1673ffffffffffffffffffffffffffffffffffffffff16815260200190815260200160002060008473ffffffffffffffffffffffffffffffffffffffff1673ffffffffffffffffffffffffffffffffffffffff16815260200190815260200160002060405180608001604052908160008201548152602001600182015481526020016002820154815260200160038201548152505090506000600260008573ffffffffffffffffffffffffffffffffffffffff1673ffffffffffffffffffffffffffffffffffffffff1681526020019081526020016000206040518060e00160405290816000820160009054906101000a900460ff1615151515815260200160018201548152602001600282015481526020016003820154815260200160048201548152602001600582015481526020016006820160009054906101000a900473ffffffffffffffffffffffffffffffffffffffff1673ffffffffffffffffffffffffffffffffffffffff1673ffffffffffffffffffffffffffffffffffffffff1681525050905060008260200151036140c257600092505050614104565b60008260400151036140dc57816020015192505050614104565b8160400151816060015183602001516140f59190614ea2565b6140ff9190614f13565b925050505b92915050565b614186848573ffffffffffffffffffffffffffffffffffffffff166323b872dd86868660405160240161413f93929190615285565b604051602081830303815290604052915060e01b6020820180517bffffffffffffffffffffffffffffffffffffffffffffffffffffffff8381831617835250505050614563565b50505050565b60018081905550565b600080600560008573ffffffffffffffffffffffffffffffffffffffff1673ffffffffffffffffffffffffffffffffffffffff16815260200190815260200160002060008473ffffffffffffffffffffffffffffffffffffffff1673ffffffffffffffffffffffffffffffffffffffff16815260200190815260200160002060405180608001604052908160008201548152602001600182015481526020016002820154815260200160038201548152505090506000600260008573ffffffffffffffffffffffffffffffffffffffff1673ffffffffffffffffffffffffffffffffffffffff1681526020019081526020016000206040518060e00160405290816000820160009054906101000a900460ff1615151515815260200160018201548152602001600282015481526020016003820154815260200160048201548152602001600582015481526020016006820160009054906101000a900473ffffffffffffffffffffffffffffffffffffffff1673ffffffffffffffffffffffffffffffffffffffff1673ffffffffffffffffffffffffffffffffffffffff16815250509050600082600001510361435157600092505050614393565b600082606001510361436b57816000015192505050614393565b8160600151816080015183600001516143849190614ea2565b61438e9190614f13565b925050505b92915050565b6143a1614605565b73ffffffffffffffffffffffffffffffffffffffff166143bf611e6c565b73ffffffffffffffffffffffffffffffffffffffff161461441e576143e2614605565b6040517f118cdaa70000000000000000000000000000000000000000000000000000000081526004016144159190614853565b60405180910390fd5b565b61449a838473ffffffffffffffffffffffffffffffffffffffff1663a9059cbb85856040516024016144539291906152bc565b604051602081830303815290604052915060e01b6020820180517bffffffffffffffffffffffffffffffffffffffffffffffffffffffff8381831617835250505050614563565b505050565b60008060009054906101000a900473ffffffffffffffffffffffffffffffffffffffff169050816000806101000a81548173ffffffffffffffffffffffffffffffffffffffff021916908373ffffffffffffffffffffffffffffffffffffffff1602179055508173ffffffffffffffffffffffffffffffffffffffff168173ffffffffffffffffffffffffffffffffffffffff167f8be0079c531659141344cd1fd0a4f28419497f9722a3daafe3b4186f6b6457e060405160405180910390a35050565b600080602060008451602086016000885af180614586576040513d6000823e3d81fd5b3d9250600051915050600082146145a15760018114156145bd565b60008473ffffffffffffffffffffffffffffffffffffffff163b145b156145ff57836040517f5274afe70000000000000000000000000000000000000000000000000000000081526004016145f69190614853565b60405180910390fd5b50505050565b600033905090565b600080fd5b600073ffffffffffffffffffffffffffffffffffffffff82169050919050565b600061463d82614612565b9050919050565b61464d81614632565b811461465857600080fd5b50565b60008135905061466a81614644565b92915050565b6000602082840312156146865761468561460d565b5b60006146948482850161465b565b91505092915050565b6000819050919050565b6146b08161469d565b82525050565b600060a0820190506146cb60008301886146a7565b6146d860208301876146a7565b6146e560408301866146a7565b6146f260608301856146a7565b6146ff60808301846146a7565b9695505050505050565b6147128161469d565b811461471d57600080fd5b50565b60008135905061472f81614709565b92915050565b6000806040838503121561474c5761474b61460d565b5b600061475a8582860161465b565b925050602061476b85828601614720565b9150509250929050565b60008115159050919050565b61478a81614775565b82525050565b60006020820190506147a56000830184614781565b92915050565b6147b481614775565b81146147bf57600080fd5b50565b6000813590506147d1816147ab565b92915050565b600080604083850312156147ee576147ed61460d565b5b60006147fc8582860161465b565b925050602061480d858286016147c2565b9150509250929050565b60006020828403121561482d5761482c61460d565b5b600061483b84828501614720565b91505092915050565b61484d81614632565b82525050565b60006020820190506148686000830184614844565b92915050565b600060408201905061488360008301856146a7565b61489060208301846146a7565b9392505050565b600081519050919050565b600082825260208201905092915050565b6000819050602082019050919050565b6148cc81614632565b82525050565b60006148de83836148c3565b60208301905092915050565b6000602082019050919050565b600061490282614897565b61490c81856148a2565b9350614917836148b3565b8060005b8381101561494857815161492f88826148d2565b975061493a836148ea565b92505060018101905061491b565b5085935050505092915050565b600081519050919050565b600082825260208201905092915050565b6000819050602082019050919050565b61498a8161469d565b82525050565b600061499c8383614981565b60208301905092915050565b6000602082019050919050565b60006149c082614955565b6149ca8185614960565b93506149d583614971565b8060005b83811015614a065781516149ed8882614990565b97506149f8836149a8565b9250506001810190506149d9565b5085935050505092915050565b600060c0820190508181036000830152614a2d81896148f7565b90508181036020830152614a4181886149b5565b90508181036040830152614a5581876149b5565b9050614a6460608301866146a7565b614a7160808301856146a7565b614a7e60a08301846146a7565b979650505050505050565b6000602082019050614a9e60008301846146a7565b92915050565b60008060408385031215614abb57614aba61460d565b5b6000614ac98582860161465b565b9250506020614ada8582860161465b565b9150509250929050565b600060e082019050614af9600083018a614781565b614b0660208301896146a7565b614b1360408301886146a7565b614b2060608301876146a7565b614b2d60808301866146a7565b614b3a60a08301856146a7565b614b4760c0830184614844565b98975050505050505050565b60008060008060808587031215614b6d57614b6c61460d565b5b6000614b7b8782880161465b565b9450506020614b8c8782880161465b565b9350506040614b9d87828801614720565b9250506060614bae8782880161465b565b91505092959194509250565b6000608082019050614bcf60008301876146a7565b614bdc60208301866146a7565b614be960408301856146a7565b614bf660608301846146a7565b95945050505050565b60006020820190508181036000830152614c1981846148f7565b905092915050565b600080600060608486031215614c3a57614c3961460d565b5b6000614c488682870161465b565b9350506020614c598682870161465b565b9250506040614c6a86828701614720565b9150509250925092565b600082825260208201905092915050565b7f4d61726b6574206e6f7420737570706f72746564000000000000000000000000600082015250565b6000614cbb601483614c74565b9150614cc682614c85565b602082019050919050565b60006020820190508181036000830152614cea81614cae565b9050919050565b600081519050614d0081614709565b92915050565b600060208284031215614d1c57614d1b61460d565b5b6000614d2a84828501614cf1565b91505092915050565b7f416d6f756e74206d7573742062652067726561746572207468616e207a65726f600082015250565b6000614d69602083614c74565b9150614d7482614d33565b602082019050919050565b60006020820190508181036000830152614d9881614d5c565b9050919050565b7f526570617920616d6f756e74206578636565647320626f72726f776564000000600082015250565b6000614dd5601d83614c74565b9150614de082614d9f565b602082019050919050565b60006020820190508181036000830152614e0481614dc8565b9050919050565b7f4e487b7100000000000000000000000000000000000000000000000000000000600052601160045260246000fd5b6000614e458261469d565b9150614e508361469d565b9250828203905081811115614e6857614e67614e0b565b5b92915050565b6000614e798261469d565b9150614e848361469d565b9250828201905080821115614e9c57614e9b614e0b565b5b92915050565b6000614ead8261469d565b9150614eb88361469d565b9250828202614ec68161469d565b91508282048414831517614edd57614edc614e0b565b5b5092915050565b7f4e487b7100000000000000000000000000000000000000000000000000000000600052601260045260246000fd5b6000614f1e8261469d565b9150614f298361469d565b925082614f3957614f38614ee4565b5b828204905092915050565b7f496e73756666696369656e7420636f6c6c61746572616c000000000000000000600082015250565b6000614f7a601783614c74565b9150614f8582614f44565b602082019050919050565b60006020820190508181036000830152614fa981614f6d565b9050919050565b7f4e487b7100000000000000000000000000000000000000000000000000000000600052603260045260246000fd5b7f4e487b7100000000000000000000000000000000000000000000000000000000600052604160045260246000fd5b7f4e6f7420616e2061646d696e0000000000000000000000000000000000000000600082015250565b6000615044600c83614c74565b915061504f8261500e565b602082019050919050565b6000602082019050818103600083015261507381615037565b9050919050565b600060c08201905061508f60008301896146a7565b61509c60208301886146a7565b6150a960408301876146a7565b6150b660608301866146a7565b6150c360808301856146a7565b6150d060a08301846146a7565b979650505050505050565b7f4e6f74206c69717569646174696f6e20636f6e74726163740000000000000000600082015250565b6000615111601883614c74565b915061511c826150db565b602082019050919050565b6000602082019050818103600083015261514081615104565b9050919050565b7f4e6f7420656e6f75676820636f6c6c61746572616c0000000000000000000000600082015250565b600061517d601583614c74565b915061518882615147565b602082019050919050565b600060208201905081810360008301526151ac81615170565b9050919050565b7f576974686472617720616d6f756e742065786365656473206465706f7369746560008201527f6400000000000000000000000000000000000000000000000000000000000000602082015250565b600061520f602183614c74565b915061521a826151b3565b604082019050919050565b6000602082019050818103600083015261523e81615202565b9050919050565b6000806040838503121561525c5761525b61460d565b5b600061526a85828601614cf1565b925050602061527b85828601614cf1565b9150509250929050565b600060608201905061529a6000830186614844565b6152a76020830185614844565b6152b460408301846146a7565b949350505050565b60006040820190506152d16000830185614844565b6152de60208301846146a7565b939250505056fea2646970667358221220918c16a2c98394f38264c631dc476db862505f18432acbf90204608473ff525764736f6c634300081c0033",
  "linkReferences": {},
  "deployedLinkReferences": {}
}