{
  "_format": "hh-sol-artifact-1",
  "contractName": "Liquidation",
  "sourceName": "contracts/Liquidation.sol",
  "abi": [
    {
      "inputs": [
        {
          "internalType": "address",
          "name": "_priceRouter",
          "type": "address"
        },
        {
          "internalType": "address",
          "name": "_lendingPool",
          "type": "address"
        },
        {
          "internalType": "uint256",
          "name": "_liquidationThreshold",
          "type": "uint256"
        },
        {
          "internalType": "uint256",
          "name": "_closeFactor",
          "type": "uint256"
        },
        {
          "internalType": "uint256",
          "name": "_liquidationIncentive",
          "type": "uint256"
        }
      ],
      "stateMutability": "nonpayable",
      "type": "constructor"
    },
    {
      "inputs": [],
      "name": "ReentrancyGuardReentrantCall",
      "type": "error"
    },
    {
      "inputs": [
        {
          "internalType": "address",
          "name": "token",
          "type": "address"
        }
      ],
      "name": "SafeERC20FailedOperation",
      "type": "error"
    },
    {
      "anonymous": false,
      "inputs": [
        {
          "indexed": true,
          "internalType": "address",
          "name": "liquidator",
          "type": "address"
        },
        {
          "indexed": true,
          "internalType": "address",
          "name": "borrower",
          "type": "address"
        },
        {
          "indexed": false,
          "internalType": "address",
          "name": "repayAsset",
          "type": "address"
        },
        {
          "indexed": false,
          "internalType": "address",
          "name": "collateralAsset",
          "type": "address"
        },
        {
          "indexed": false,
          "internalType": "uint256",
          "name": "repayAmount",
          "type": "uint256"
        },
        {
          "indexed": false,
          "internalType": "uint256",
          "name": "seizeAmount",
          "type": "uint256"
        }
      ],
      "name": "LiquidationExecuted",
      "type": "event"
    },
    {
      "anonymous": false,
      "inputs": [
        {
          "indexed": false,
          "internalType": "uint256",
          "name": "liquidationThreshold",
          "type": "uint256"
        },
        {
          "indexed": false,
          "internalType": "uint256",
          "name": "closeFactor",
          "type": "uint256"
        },
        {
          "indexed": false,
          "internalType": "uint256",
          "name": "liquidationIncentive",
          "type": "uint256"
        }
      ],
      "name": "LiquidationParamsUpdated",
      "type": "event"
    },
    {
      "inputs": [],
      "name": "SCALE",
      "outputs": [
        {
          "internalType": "uint256",
          "name": "",
          "type": "uint256"
        }
      ],
      "stateMutability": "view",
      "type": "function"
    },
    {
      "inputs": [
        {
          "internalType": "address",
          "name": "repayAsset",
          "type": "address"
        },
        {
          "internalType": "address",
          "name": "collateralAsset",
          "type": "address"
        },
        {
          "internalType": "uint256",
          "name": "repayAmount",
          "type": "uint256"
        }
      ],
      "name": "calculateSeizeAmount",
      "outputs": [
        {
          "internalType": "uint256",
          "name": "seizeAmount",
          "type": "uint256"
        }
      ],
      "stateMutability": "view",
      "type": "function"
    },
    {
      "inputs": [],
      "name": "closeFactor",
      "outputs": [
        {
          "internalType": "uint256",
          "name": "",
          "type": "uint256"
        }
      ],
      "stateMutability": "view",
      "type": "function"
    },
    {
      "inputs": [],
      "name": "getCloseFactor",
      "outputs": [
        {
          "internalType": "uint256",
          "name": "",
          "type": "uint256"
        }
      ],
      "stateMutability": "view",
      "type": "function"
    },
    {
      "inputs": [
        {
          "internalType": "address",
          "name": "user",
          "type": "address"
        }
      ],
      "name": "isAccountLiquidatable",
      "outputs": [
        {
          "internalType": "bool",
          "name": "",
          "type": "bool"
        }
      ],
      "stateMutability": "view",
      "type": "function"
    },
    {
      "inputs": [
        {
          "internalType": "address",
          "name": "",
          "type": "address"
        }
      ],
      "name": "isAdmin",
      "outputs": [
        {
          "internalType": "bool",
          "name": "",
          "type": "bool"
        }
      ],
      "stateMutability": "view",
      "type": "function"
    },
    {
      "inputs": [],
      "name": "lendingPool",
      "outputs": [
        {
          "internalType": "address",
          "name": "",
          "type": "address"
        }
      ],
      "stateMutability": "view",
      "type": "function"
    },
    {
      "inputs": [
        {
          "internalType": "address",
          "name": "borrower",
          "type": "address"
        },
        {
          "internalType": "address",
          "name": "liquidator",
          "type": "address"
        },
        {
          "internalType": "address",
          "name": "repayAsset",
          "type": "address"
        },
        {
          "internalType": "address",
          "name": "collateralAsset",
          "type": "address"
        },
        {
          "internalType": "uint256",
          "name": "repayAmount",
          "type": "uint256"
        }
      ],
      "name": "liquidate",
      "outputs": [],
      "stateMutability": "nonpayable",
      "type": "function"
    },
    {
      "inputs": [],
      "name": "liquidationIncentive",
      "outputs": [
        {
          "internalType": "uint256",
          "name": "",
          "type": "uint256"
        }
      ],
      "stateMutability": "view",
      "type": "function"
    },
    {
      "inputs": [],
      "name": "liquidationThreshold",
      "outputs": [
        {
          "internalType": "uint256",
          "name": "",
          "type": "uint256"
        }
      ],
      "stateMutability": "view",
      "type": "function"
    },
    {
      "inputs": [],
      "name": "priceRouter",
      "outputs": [
        {
          "internalType": "address",
          "name": "",
          "type": "address"
        }
      ],
      "stateMutability": "view",
      "type": "function"
    },
    {
      "inputs": [
        {
          "internalType": "address",
          "name": "admin",
          "type": "address"
        },
        {
          "internalType": "bool",
          "name": "status",
          "type": "bool"
        }
      ],
      "name": "setAdmin",
      "outputs": [],
      "stateMutability": "nonpayable",
      "type": "function"
    },
    {
      "inputs": [
        {
          "internalType": "address",
          "name": "_lendingPool",
          "type": "address"
        }
      ],
      "name": "setLendingPool",
      "outputs": [],
      "stateMutability": "nonpayable",
      "type": "function"
    },
    {
      "inputs": [
        {
          "internalType": "uint256",
          "name": "_liquidationThreshold",
          "type": "uint256"
        },
        {
          "internalType": "uint256",
          "name": "_closeFactor",
          "type": "uint256"
        },
        {
          "internalType": "uint256",
          "name": "_liquidationIncentive",
          "type": "uint256"
        }
      ],
      "name": "setLiquidateParams",
      "outputs": [],
      "stateMutability": "nonpayable",
      "type": "function"
    },
    {
      "inputs": [
        {
          "internalType": "address",
          "name": "_priceRouter",
          "type": "address"
        }
      ],
      "name": "setPriceRouter",
      "outputs": [],
      "stateMutability": "nonpayable",
      "type": "function"
    }
  ],
  "bytecode": "0x608060405234801561001057600080fd5b50604051611ce3380380611ce3833981810160405281019061003291906101cc565b600160008190555084600460006101000a81548173ffffffffffffffffffffffffffffffffffffffff021916908373ffffffffffffffffffffffffffffffffffffffff16021790555083600560006101000a81548173ffffffffffffffffffffffffffffffffffffffff021916908373ffffffffffffffffffffffffffffffffffffffff1602179055508260018190555081600281905550806003819055506001600660003373ffffffffffffffffffffffffffffffffffffffff1673ffffffffffffffffffffffffffffffffffffffff16815260200190815260200160002060006101000a81548160ff0219169083151502179055505050505050610247565b600080fd5b600073ffffffffffffffffffffffffffffffffffffffff82169050919050565b600061016382610138565b9050919050565b61017381610158565b811461017e57600080fd5b50565b6000815190506101908161016a565b92915050565b6000819050919050565b6101a981610196565b81146101b457600080fd5b50565b6000815190506101c6816101a0565b92915050565b600080600080600060a086880312156101e8576101e7610133565b5b60006101f688828901610181565b955050602061020788828901610181565b9450506040610218888289016101b7565b9350506060610229888289016101b7565b925050608061023a888289016101b7565b9150509295509295909350565b611a8d806102566000396000f3fe608060405234801561001057600080fd5b50600436106100f55760003560e01c806388005bdc11610097578063be2801b511610066578063be2801b514610260578063d7d4bf4514610290578063e6ed4409146102ae578063eced5526146102ca576100f5565b806388005bdc146101ec5780638c765e9414610208578063a59a997314610226578063a928fe1014610244576100f5565b80634031234c116100d35780634031234c146101645780634b0bddd2146101825780634e21a7a31461019e578063835f6660146101bc576100f5565b806305308b9f146100fa578063113aa8b11461011857806324d7806c14610134575b600080fd5b6101026102e8565b60405161010f919061119a565b60405180910390f35b610132600480360381019061012d9190611218565b6102ee565b005b61014e60048036038101906101499190611218565b6103be565b60405161015b9190611260565b60405180910390f35b61016c6103de565b604051610179919061119a565b60405180910390f35b61019c600480360381019061019791906112a7565b6103e4565b005b6101a66104cb565b6040516101b3919061119a565b60405180910390f35b6101d660048036038101906101d19190611313565b6104d5565b6040516101e3919061119a565b60405180910390f35b61020660048036038101906102019190611218565b61069e565b005b61021061076e565b60405161021d919061119a565b60405180910390f35b61022e610774565b60405161023b9190611375565b60405180910390f35b61025e60048036038101906102599190611390565b61079a565b005b61027a60048036038101906102759190611218565b610e05565b6040516102879190611260565b60405180910390f35b610298610efa565b6040516102a59190611375565b60405180910390f35b6102c860048036038101906102c3919061140b565b610f20565b005b6102d2611001565b6040516102df919061119a565b60405180910390f35b60025481565b600660003373ffffffffffffffffffffffffffffffffffffffff1673ffffffffffffffffffffffffffffffffffffffff16815260200190815260200160002060009054906101000a900460ff1661037a576040517f08c379a0000000000000000000000000000000000000000000000000000000008152600401610371906114bb565b60405180910390fd5b80600560006101000a81548173ffffffffffffffffffffffffffffffffffffffff021916908373ffffffffffffffffffffffffffffffffffffffff16021790555050565b60066020528060005260406000206000915054906101000a900460ff1681565b60015481565b600660003373ffffffffffffffffffffffffffffffffffffffff1673ffffffffffffffffffffffffffffffffffffffff16815260200190815260200160002060009054906101000a900460ff16610470576040517f08c379a0000000000000000000000000000000000000000000000000000000008152600401610467906114bb565b60405180910390fd5b80600660008473ffffffffffffffffffffffffffffffffffffffff1673ffffffffffffffffffffffffffffffffffffffff16815260200190815260200160002060006101000a81548160ff0219169083151502179055505050565b6000600254905090565b600080600460009054906101000a900473ffffffffffffffffffffffffffffffffffffffff16905060008173ffffffffffffffffffffffffffffffffffffffff166341976e09876040518263ffffffff1660e01b81526004016105389190611375565b602060405180830381865afa158015610555573d6000803e3d6000fd5b505050506040513d601f19601f8201168201806040525081019061057991906114f0565b905060008273ffffffffffffffffffffffffffffffffffffffff166341976e09876040518263ffffffff1660e01b81526004016105b69190611375565b602060405180830381865afa1580156105d3573d6000803e3d6000fd5b505050506040513d601f19601f820116820180604052508101906105f791906114f0565b90506000821180156106095750600081115b610648576040517f08c379a000000000000000000000000000000000000000000000000000000000815260040161063f90611569565b60405180910390fd5b670de0b6b3a76400008161065c91906115b8565b82600354670de0b6b3a764000061067391906115fa565b8761067e91906115b8565b61068891906115b8565b610692919061165d565b93505050509392505050565b600660003373ffffffffffffffffffffffffffffffffffffffff1673ffffffffffffffffffffffffffffffffffffffff16815260200190815260200160002060009054906101000a900460ff1661072a576040517f08c379a0000000000000000000000000000000000000000000000000000000008152600401610721906114bb565b60405180910390fd5b80600460006101000a81548173ffffffffffffffffffffffffffffffffffffffff021916908373ffffffffffffffffffffffffffffffffffffffff16021790555050565b60035481565b600560009054906101000a900473ffffffffffffffffffffffffffffffffffffffff1681565b6107a261100d565b600073ffffffffffffffffffffffffffffffffffffffff168573ffffffffffffffffffffffffffffffffffffffff161415801561080c5750600073ffffffffffffffffffffffffffffffffffffffff168473ffffffffffffffffffffffffffffffffffffffff1614155b61084b576040517f08c379a0000000000000000000000000000000000000000000000000000000008152600401610842906116da565b60405180910390fd5b6000811161088e576040517f08c379a00000000000000000000000000000000000000000000000000000000081526004016108859061176c565b60405180910390fd5b600073ffffffffffffffffffffffffffffffffffffffff16600560009054906101000a900473ffffffffffffffffffffffffffffffffffffffff1673ffffffffffffffffffffffffffffffffffffffff161415801561093c5750600073ffffffffffffffffffffffffffffffffffffffff16600460009054906101000a900473ffffffffffffffffffffffffffffffffffffffff1673ffffffffffffffffffffffffffffffffffffffff1614155b61097b576040517f08c379a0000000000000000000000000000000000000000000000000000000008152600401610972906117fe565b60405180910390fd5b6000600560009054906101000a900473ffffffffffffffffffffffffffffffffffffffff1690508073ffffffffffffffffffffffffffffffffffffffff16639198e515856040518263ffffffff1660e01b81526004016109db9190611375565b600060405180830381600087803b1580156109f557600080fd5b505af1158015610a09573d6000803e3d6000fd5b505050508073ffffffffffffffffffffffffffffffffffffffff16639198e515846040518263ffffffff1660e01b8152600401610a469190611375565b600060405180830381600087803b158015610a6057600080fd5b505af1158015610a74573d6000803e3d6000fd5b50505050610a8186610e05565b610ac0576040517f08c379a0000000000000000000000000000000000000000000000000000000008152600401610ab79061186a565b60405180910390fd5b60008173ffffffffffffffffffffffffffffffffffffffff1663f429e35d88876040518363ffffffff1660e01b8152600401610afd92919061188a565b602060405180830381865afa158015610b1a573d6000803e3d6000fd5b505050506040513d601f19601f82011682018060405250810190610b3e91906114f0565b90506000670de0b6b3a764000060025483610b5991906115b8565b610b63919061165d565b90506000818511610b745784610b76565b815b9050610bc788600560009054906101000a900473ffffffffffffffffffffffffffffffffffffffff16838a73ffffffffffffffffffffffffffffffffffffffff16611053909392919063ffffffff16565b8373ffffffffffffffffffffffffffffffffffffffff1663f45c251f8a89846040518463ffffffff1660e01b8152600401610c04939291906118b3565b600060405180830381600087803b158015610c1e57600080fd5b505af1158015610c32573d6000803e3d6000fd5b505050506000610c438888846104d5565b905060008573ffffffffffffffffffffffffffffffffffffffff1663ce8641888c8a6040518363ffffffff1660e01b8152600401610c8292919061188a565b602060405180830381865afa158015610c9f573d6000803e3d6000fd5b505050506040513d601f19601f82011682018060405250810190610cc391906114f0565b905080821115610cd1578091505b60008211610d14576040517f08c379a0000000000000000000000000000000000000000000000000000000008152600401610d0b90611936565b60405180910390fd5b8573ffffffffffffffffffffffffffffffffffffffff1663ace429cf8c8a858e6040518563ffffffff1660e01b8152600401610d539493929190611956565b600060405180830381600087803b158015610d6d57600080fd5b505af1158015610d81573d6000803e3d6000fd5b505050508a73ffffffffffffffffffffffffffffffffffffffff168a73ffffffffffffffffffffffffffffffffffffffff167fa534c842893e0901f7917b84fa80b5f6fc8c02cf92fb5e2ae9913ab9b26d7c0e8b8b8b87604051610de8949392919061199b565b60405180910390a3505050505050610dfe6110d5565b5050505050565b6000806000600560009054906101000a900473ffffffffffffffffffffffffffffffffffffffff1673ffffffffffffffffffffffffffffffffffffffff16635ec88c79856040518263ffffffff1660e01b8152600401610e659190611375565b6040805180830381865afa158015610e81573d6000803e3d6000fd5b505050506040513d601f19601f82011682018060405250810190610ea591906119e0565b9150915060008203610ebc57600092505050610ef5565b60015482670de0b6b3a764000083610ed491906115b8565b610ede919061165d565b10610eee57600192505050610ef5565b6000925050505b919050565b600460009054906101000a900473ffffffffffffffffffffffffffffffffffffffff1681565b600660003373ffffffffffffffffffffffffffffffffffffffff1673ffffffffffffffffffffffffffffffffffffffff16815260200190815260200160002060009054906101000a900460ff16610fac576040517f08c379a0000000000000000000000000000000000000000000000000000000008152600401610fa3906114bb565b60405180910390fd5b8260018190555081600281905550806003819055507fecdd0a6895707313d3d84abc3147f02dff379c7e89a545b1bddd9ac3a8860804838383604051610ff493929190611a20565b60405180910390a1505050565b670de0b6b3a764000081565b600260005403611049576040517f3ee5aeb500000000000000000000000000000000000000000000000000000000815260040160405180910390fd5b6002600081905550565b6110cf848573ffffffffffffffffffffffffffffffffffffffff166323b872dd868686604051602401611088939291906118b3565b604051602081830303815290604052915060e01b6020820180517bffffffffffffffffffffffffffffffffffffffffffffffffffffffff83818316178352505050506110df565b50505050565b6001600081905550565b600080602060008451602086016000885af180611102576040513d6000823e3d81fd5b3d92506000519150506000821461111d576001811415611139565b60008473ffffffffffffffffffffffffffffffffffffffff163b145b1561117b57836040517f5274afe70000000000000000000000000000000000000000000000000000000081526004016111729190611375565b60405180910390fd5b50505050565b6000819050919050565b61119481611181565b82525050565b60006020820190506111af600083018461118b565b92915050565b600080fd5b600073ffffffffffffffffffffffffffffffffffffffff82169050919050565b60006111e5826111ba565b9050919050565b6111f5816111da565b811461120057600080fd5b50565b600081359050611212816111ec565b92915050565b60006020828403121561122e5761122d6111b5565b5b600061123c84828501611203565b91505092915050565b60008115159050919050565b61125a81611245565b82525050565b60006020820190506112756000830184611251565b92915050565b61128481611245565b811461128f57600080fd5b50565b6000813590506112a18161127b565b92915050565b600080604083850312156112be576112bd6111b5565b5b60006112cc85828601611203565b92505060206112dd85828601611292565b9150509250929050565b6112f081611181565b81146112fb57600080fd5b50565b60008135905061130d816112e7565b92915050565b60008060006060848603121561132c5761132b6111b5565b5b600061133a86828701611203565b935050602061134b86828701611203565b925050604061135c868287016112fe565b9150509250925092565b61136f816111da565b82525050565b600060208201905061138a6000830184611366565b92915050565b600080600080600060a086880312156113ac576113ab6111b5565b5b60006113ba88828901611203565b95505060206113cb88828901611203565b94505060406113dc88828901611203565b93505060606113ed88828901611203565b92505060806113fe888289016112fe565b9150509295509295909350565b600080600060608486031215611424576114236111b5565b5b6000611432868287016112fe565b9350506020611443868287016112fe565b9250506040611454868287016112fe565b9150509250925092565b600082825260208201905092915050565b7f4e6f7420616e2061646d696e0000000000000000000000000000000000000000600082015250565b60006114a5600c8361145e565b91506114b08261146f565b602082019050919050565b600060208201905081810360008301526114d481611498565b9050919050565b6000815190506114ea816112e7565b92915050565b600060208284031215611506576115056111b5565b5b6000611514848285016114db565b91505092915050565b7f496e76616c696420617373657420707269636500000000000000000000000000600082015250565b600061155360138361145e565b915061155e8261151d565b602082019050919050565b6000602082019050818103600083015261158281611546565b9050919050565b7f4e487b7100000000000000000000000000000000000000000000000000000000600052601160045260246000fd5b60006115c382611181565b91506115ce83611181565b92508282026115dc81611181565b915082820484148315176115f3576115f2611589565b5b5092915050565b600061160582611181565b915061161083611181565b925082820190508082111561162857611627611589565b5b92915050565b7f4e487b7100000000000000000000000000000000000000000000000000000000600052601260045260246000fd5b600061166882611181565b915061167383611181565b9250826116835761168261162e565b5b828204905092915050565b7f5a65726f20616464726573730000000000000000000000000000000000000000600082015250565b60006116c4600c8361145e565b91506116cf8261168e565b602082019050919050565b600060208201905081810360008301526116f3816116b7565b9050919050565b7f526570617920616d6f756e74206d75737420626520677265617465722074686160008201527f6e207a65726f0000000000000000000000000000000000000000000000000000602082015250565b600061175660268361145e565b9150611761826116fa565b604082019050919050565b6000602082019050818103600083015261178581611749565b9050919050565b7f4c656e64696e67506f6f6c206f72205072696365526f75746572206e6f74207360008201527f6574000000000000000000000000000000000000000000000000000000000000602082015250565b60006117e860228361145e565b91506117f38261178c565b604082019050919050565b60006020820190508181036000830152611817816117db565b9050919050565b7f4163636f756e74206973206e6f74206c6971756964617461626c650000000000600082015250565b6000611854601b8361145e565b915061185f8261181e565b602082019050919050565b6000602082019050818103600083015261188381611847565b9050919050565b600060408201905061189f6000830185611366565b6118ac6020830184611366565b9392505050565b60006060820190506118c86000830186611366565b6118d56020830185611366565b6118e2604083018461118b565b949350505050565b7f5365697a6520616d6f756e74206973207a65726f000000000000000000000000600082015250565b600061192060148361145e565b915061192b826118ea565b602082019050919050565b6000602082019050818103600083015261194f81611913565b9050919050565b600060808201905061196b6000830187611366565b6119786020830186611366565b611985604083018561118b565b6119926060830184611366565b95945050505050565b60006080820190506119b06000830187611366565b6119bd6020830186611366565b6119ca604083018561118b565b6119d7606083018461118b565b95945050505050565b600080604083850312156119f7576119f66111b5565b5b6000611a05858286016114db565b9250506020611a16858286016114db565b9150509250929050565b6000606082019050611a35600083018661118b565b611a42602083018561118b565b611a4f604083018461118b565b94935050505056fea2646970667358221220d9a221f0dde499f2300c5d1b844689f59b290e78bde421dc694b1b78a27702e364736f6c634300081c0033",
  "linkReferences": {},
  "deployedLinkReferences": {}
}