{
  "_format": "hh-sol-artifact-1",
  "contractName": "PriceRouter",
  "sourceName": "contracts/PriceRouter.sol",
  "abi": [
    {
      "inputs": [
        {
          "internalType": "address",
          "name": "_myOracle",
          "type": "address"
        }
      ],
      "stateMutability": "nonpayable",
      "type": "constructor"
    },
    {
      "inputs": [
        {
          "internalType": "address",
          "name": "owner",
          "type": "address"
        }
      ],
      "name": "OwnableInvalidOwner",
      "type": "error"
    },
    {
      "inputs": [
        {
          "internalType": "address",
          "name": "account",
          "type": "address"
        }
      ],
      "name": "OwnableUnauthorizedAccount",
      "type": "error"
    },
    {
      "anonymous": false,
      "inputs": [
        {
          "indexed": true,
          "internalType": "address",
          "name": "asset",
          "type": "address"
        }
      ],
      "name": "FeedRemoved",
      "type": "event"
    },
    {
      "anonymous": false,
      "inputs": [
        {
          "indexed": true,
          "internalType": "address",
          "name": "asset",
          "type": "address"
        },
        {
          "indexed": false,
          "internalType": "address",
          "name": "feedOrToken",
          "type": "address"
        },
        {
          "indexed": false,
          "internalType": "enum PriceRouter.Source",
          "name": "source",
          "type": "uint8"
        }
      ],
      "name": "FeedSet",
      "type": "event"
    },
    {
      "anonymous": false,
      "inputs": [
        {
          "indexed": true,
          "internalType": "address",
          "name": "newMyOracle",
          "type": "address"
        }
      ],
      "name": "MyOracleUpdated",
      "type": "event"
    },
    {
      "anonymous": false,
      "inputs": [
        {
          "indexed": true,
          "internalType": "address",
          "name": "previousOwner",
          "type": "address"
        },
        {
          "indexed": true,
          "internalType": "address",
          "name": "newOwner",
          "type": "address"
        }
      ],
      "name": "OwnershipTransferred",
      "type": "event"
    },
    {
      "inputs": [
        {
          "internalType": "address",
          "name": "",
          "type": "address"
        }
      ],
      "name": "feeds",
      "outputs": [
        {
          "internalType": "enum PriceRouter.Source",
          "name": "source",
          "type": "uint8"
        },
        {
          "internalType": "address",
          "name": "feedOrToken",
          "type": "address"
        }
      ],
      "stateMutability": "view",
      "type": "function"
    },
    {
      "inputs": [
        {
          "internalType": "address",
          "name": "asset",
          "type": "address"
        }
      ],
      "name": "getPrice",
      "outputs": [
        {
          "internalType": "uint256",
          "name": "",
          "type": "uint256"
        }
      ],
      "stateMutability": "view",
      "type": "function"
    },
    {
      "inputs": [],
      "name": "myOracle",
      "outputs": [
        {
          "internalType": "address",
          "name": "",
          "type": "address"
        }
      ],
      "stateMutability": "view",
      "type": "function"
    },
    {
      "inputs": [],
      "name": "owner",
      "outputs": [
        {
          "internalType": "address",
          "name": "",
          "type": "address"
        }
      ],
      "stateMutability": "view",
      "type": "function"
    },
    {
      "inputs": [
        {
          "internalType": "address",
          "name": "asset",
          "type": "address"
        }
      ],
      "name": "removeFeed",
      "outputs": [],
      "stateMutability": "nonpayable",
      "type": "function"
    },
    {
      "inputs": [],
      "name": "renounceOwnership",
      "outputs": [],
      "stateMutability": "nonpayable",
      "type": "function"
    },
    {
      "inputs": [
        {
          "internalType": "address",
          "name": "asset",
          "type": "address"
        },
        {
          "internalType": "address",
          "name": "feed",
          "type": "address"
        }
      ],
      "name": "setChainlinkFeed",
      "outputs": [],
      "stateMutability": "nonpayable",
      "type": "function"
    },
    {
      "inputs": [
        {
          "internalType": "address",
          "name": "_myOracle",
          "type": "address"
        }
      ],
      "name": "setMyOracle",
      "outputs": [],
      "stateMutability": "nonpayable",
      "type": "function"
    },
    {
      "inputs": [
        {
          "internalType": "address",
          "name": "asset",
          "type": "address"
        }
      ],
      "name": "setMyOracleFeed",
      "outputs": [],
      "stateMutability": "nonpayable",
      "type": "function"
    },
    {
      "inputs": [
        {
          "internalType": "address",
          "name": "newOwner",
          "type": "address"
        }
      ],
      "name": "transferOwnership",
      "outputs": [],
      "stateMutability": "nonpayable",
      "type": "function"
    }
  ],
  "bytecode": "0x608060405234801561001057600080fd5b5060405161195538038061195583398181016040528101906100329190610223565b33600073ffffffffffffffffffffffffffffffffffffffff168173ffffffffffffffffffffffffffffffffffffffff16036100a55760006040517f1e4fbdf700000000000000000000000000000000000000000000000000000000815260040161009c919061025f565b60405180910390fd5b6100b4816100fc60201b60201c565b5080600260006101000a81548173ffffffffffffffffffffffffffffffffffffffff021916908373ffffffffffffffffffffffffffffffffffffffff1602179055505061027a565b60008060009054906101000a900473ffffffffffffffffffffffffffffffffffffffff169050816000806101000a81548173ffffffffffffffffffffffffffffffffffffffff021916908373ffffffffffffffffffffffffffffffffffffffff1602179055508173ffffffffffffffffffffffffffffffffffffffff168173ffffffffffffffffffffffffffffffffffffffff167f8be0079c531659141344cd1fd0a4f28419497f9722a3daafe3b4186f6b6457e060405160405180910390a35050565b600080fd5b600073ffffffffffffffffffffffffffffffffffffffff82169050919050565b60006101f0826101c5565b9050919050565b610200816101e5565b811461020b57600080fd5b50565b60008151905061021d816101f7565b92915050565b600060208284031215610239576102386101c0565b5b60006102478482850161020e565b91505092915050565b610259816101e5565b82525050565b60006020820190506102746000830184610250565b92915050565b6116cc806102896000396000f3fe608060405234801561001057600080fd5b506004361061009e5760003560e01c8063715018a611610066578063715018a6146101585780638da5cb5b146101625780639827c5ed14610180578063dfe562ab1461019c578063f2fde38b146101ba5761009e565b80632fba4aa9146100a357806341976e09146100d45780634b90fd69146101045780635adb70781461012057806369ef32d21461013c575b600080fd5b6100bd60048036038101906100b89190610e96565b6101d6565b6040516100cb929190610f49565b60405180910390f35b6100ee60048036038101906100e99190610e96565b610227565b6040516100fb9190610f8b565b60405180910390f35b61011e60048036038101906101199190610e96565b61077c565b005b61013a60048036038101906101359190610e96565b6108c1565b005b61015660048036038101906101519190610fa6565b610a14565b005b610160610b68565b005b61016a610b7c565b6040516101779190610fe6565b60405180910390f35b61019a60048036038101906101959190610e96565b610ba5565b005b6101a4610c34565b6040516101b19190610fe6565b60405180910390f35b6101d460048036038101906101cf9190610e96565b610c5a565b005b60016020528060005260406000206000915090508060000160009054906101000a900460ff16908060000160019054906101000a900473ffffffffffffffffffffffffffffffffffffffff16905082565b600060028081111561023c5761023b610ec3565b5b600160008473ffffffffffffffffffffffffffffffffffffffff1673ffffffffffffffffffffffffffffffffffffffff16815260200190815260200160002060000160009054906101000a900460ff16600281111561029e5761029d610ec3565b5b036102de576040517f08c379a00000000000000000000000000000000000000000000000000000000081526004016102d59061105e565b60405180910390fd5b6000600160008473ffffffffffffffffffffffffffffffffffffffff1673ffffffffffffffffffffffffffffffffffffffff1681526020019081526020016000206040518060400160405290816000820160009054906101000a900460ff16600281111561034f5761034e610ec3565b5b600281111561036157610360610ec3565b5b81526020016000820160019054906101000a900473ffffffffffffffffffffffffffffffffffffffff1673ffffffffffffffffffffffffffffffffffffffff1673ffffffffffffffffffffffffffffffffffffffff16815250509050600060028111156103d1576103d0610ec3565b5b816000015160028111156103e8576103e7610ec3565b5b0361058d5760008160200151905060008173ffffffffffffffffffffffffffffffffffffffff1663feaf968c6040518163ffffffff1660e01b815260040160a060405180830381865afa158015610443573d6000803e3d6000fd5b505050506040513d601f19601f820116820180604052508101906104679190611122565b505050915050600081136104b0576040517f08c379a00000000000000000000000000000000000000000000000000000000081526004016104a7906111e9565b60405180910390fd5b60008273ffffffffffffffffffffffffffffffffffffffff1663313ce5676040518163ffffffff1660e01b8152600401602060405180830381865afa1580156104fd573d6000803e3d6000fd5b505050506040513d601f19601f820116820180604052508101906105219190611242565b60ff169050601281111561055a5760128161053c919061129e565b600a6105489190611405565b82610553919061147f565b9150610581565b806012610567919061129e565b600a6105739190611405565b8261057e91906114e9565b91505b81945050505050610777565b600160028111156105a1576105a0610ec3565b5b816000015160028111156105b8576105b7610ec3565b5b0361073c576000600260009054906101000a900473ffffffffffffffffffffffffffffffffffffffff1673ffffffffffffffffffffffffffffffffffffffff1663a27b9d4583602001516040518263ffffffff1660e01b815260040161061e9190610fe6565b602060405180830381865afa15801561063b573d6000803e3d6000fd5b505050506040513d601f19601f8201168201806040525081019061065f9190611561565b905060008473ffffffffffffffffffffffffffffffffffffffff1663313ce5676040518163ffffffff1660e01b8152600401602060405180830381865afa1580156106ae573d6000803e3d6000fd5b505050506040513d601f19601f820116820180604052508101906106d29190611242565b60ff169050601281111561070e576012816106ed919061129e565b600a6106f99190611405565b82610704919061158e565b9350505050610777565b80601261071b919061129e565b600a6107279190611405565b8261073291906115bf565b9350505050610777565b6040517f08c379a000000000000000000000000000000000000000000000000000000000815260040161076e9061164d565b60405180910390fd5b919050565b610784610ce0565b60405180604001604052806002808111156107a2576107a1610ec3565b5b8152602001600073ffffffffffffffffffffffffffffffffffffffff16815250600160008373ffffffffffffffffffffffffffffffffffffffff1673ffffffffffffffffffffffffffffffffffffffff16815260200190815260200160002060008201518160000160006101000a81548160ff0219169083600281111561082c5761082b610ec3565b5b021790555060208201518160000160016101000a81548173ffffffffffffffffffffffffffffffffffffffff021916908373ffffffffffffffffffffffffffffffffffffffff1602179055509050508073ffffffffffffffffffffffffffffffffffffffff167f80502f8484874852e0b4f9360dc6004a3fc5a00fa2b3339ebfdc1a419ceb7dac60405160405180910390a250565b6108c9610ce0565b6040518060400160405280600160028111156108e8576108e7610ec3565b5b81526020018273ffffffffffffffffffffffffffffffffffffffff16815250600160008373ffffffffffffffffffffffffffffffffffffffff1673ffffffffffffffffffffffffffffffffffffffff16815260200190815260200160002060008201518160000160006101000a81548160ff0219169083600281111561097157610970610ec3565b5b021790555060208201518160000160016101000a81548173ffffffffffffffffffffffffffffffffffffffff021916908373ffffffffffffffffffffffffffffffffffffffff1602179055509050508073ffffffffffffffffffffffffffffffffffffffff167f9a6540abae93f33c1cc5a551b4fb45da46516bfb3ca5cb1f9114d9ccfe3e0783826001604051610a0992919061166d565b60405180910390a250565b610a1c610ce0565b604051806040016040528060006002811115610a3b57610a3a610ec3565b5b81526020018273ffffffffffffffffffffffffffffffffffffffff16815250600160008473ffffffffffffffffffffffffffffffffffffffff1673ffffffffffffffffffffffffffffffffffffffff16815260200190815260200160002060008201518160000160006101000a81548160ff02191690836002811115610ac457610ac3610ec3565b5b021790555060208201518160000160016101000a81548173ffffffffffffffffffffffffffffffffffffffff021916908373ffffffffffffffffffffffffffffffffffffffff1602179055509050508173ffffffffffffffffffffffffffffffffffffffff167f9a6540abae93f33c1cc5a551b4fb45da46516bfb3ca5cb1f9114d9ccfe3e0783826000604051610b5c92919061166d565b60405180910390a25050565b610b70610ce0565b610b7a6000610d67565b565b60008060009054906101000a900473ffffffffffffffffffffffffffffffffffffffff16905090565b610bad610ce0565b80600260006101000a81548173ffffffffffffffffffffffffffffffffffffffff021916908373ffffffffffffffffffffffffffffffffffffffff1602179055508073ffffffffffffffffffffffffffffffffffffffff167ff0df0505667f3a54d39fd32b5fd5784c95d32f8f599fbb12a2c98367aaadba5160405160405180910390a250565b600260009054906101000a900473ffffffffffffffffffffffffffffffffffffffff1681565b610c62610ce0565b600073ffffffffffffffffffffffffffffffffffffffff168173ffffffffffffffffffffffffffffffffffffffff1603610cd45760006040517f1e4fbdf7000000000000000000000000000000000000000000000000000000008152600401610ccb9190610fe6565b60405180910390fd5b610cdd81610d67565b50565b610ce8610e2b565b73ffffffffffffffffffffffffffffffffffffffff16610d06610b7c565b73ffffffffffffffffffffffffffffffffffffffff1614610d6557610d29610e2b565b6040517f118cdaa7000000000000000000000000000000000000000000000000000000008152600401610d5c9190610fe6565b60405180910390fd5b565b60008060009054906101000a900473ffffffffffffffffffffffffffffffffffffffff169050816000806101000a81548173ffffffffffffffffffffffffffffffffffffffff021916908373ffffffffffffffffffffffffffffffffffffffff1602179055508173ffffffffffffffffffffffffffffffffffffffff168173ffffffffffffffffffffffffffffffffffffffff167f8be0079c531659141344cd1fd0a4f28419497f9722a3daafe3b4186f6b6457e060405160405180910390a35050565b600033905090565b600080fd5b600073ffffffffffffffffffffffffffffffffffffffff82169050919050565b6000610e6382610e38565b9050919050565b610e7381610e58565b8114610e7e57600080fd5b50565b600081359050610e9081610e6a565b92915050565b600060208284031215610eac57610eab610e33565b5b6000610eba84828501610e81565b91505092915050565b7f4e487b7100000000000000000000000000000000000000000000000000000000600052602160045260246000fd5b60038110610f0357610f02610ec3565b5b50565b6000819050610f1482610ef2565b919050565b6000610f2482610f06565b9050919050565b610f3481610f19565b82525050565b610f4381610e58565b82525050565b6000604082019050610f5e6000830185610f2b565b610f6b6020830184610f3a565b9392505050565b6000819050919050565b610f8581610f72565b82525050565b6000602082019050610fa06000830184610f7c565b92915050565b60008060408385031215610fbd57610fbc610e33565b5b6000610fcb85828601610e81565b9250506020610fdc85828601610e81565b9150509250929050565b6000602082019050610ffb6000830184610f3a565b92915050565b600082825260208201905092915050565b7f4e6f207072696365206665656420617661696c61626c65000000000000000000600082015250565b6000611048601783611001565b915061105382611012565b602082019050919050565b600060208201905081810360008301526110778161103b565b9050919050565b600069ffffffffffffffffffff82169050919050565b61109d8161107e565b81146110a857600080fd5b50565b6000815190506110ba81611094565b92915050565b6000819050919050565b6110d3816110c0565b81146110de57600080fd5b50565b6000815190506110f0816110ca565b92915050565b6110ff81610f72565b811461110a57600080fd5b50565b60008151905061111c816110f6565b92915050565b600080600080600060a0868803121561113e5761113d610e33565b5b600061114c888289016110ab565b955050602061115d888289016110e1565b945050604061116e8882890161110d565b935050606061117f8882890161110d565b9250506080611190888289016110ab565b9150509295509295909350565b7f496e76616c69642070726963652066726f6d20436861696e6c696e6b00000000600082015250565b60006111d3601c83611001565b91506111de8261119d565b602082019050919050565b60006020820190508181036000830152611202816111c6565b9050919050565b600060ff82169050919050565b61121f81611209565b811461122a57600080fd5b50565b60008151905061123c81611216565b92915050565b60006020828403121561125857611257610e33565b5b60006112668482850161122d565b91505092915050565b7f4e487b7100000000000000000000000000000000000000000000000000000000600052601160045260246000fd5b60006112a982610f72565b91506112b483610f72565b92508282039050818111156112cc576112cb61126f565b5b92915050565b60008160011c9050919050565b6000808291508390505b6001851115611329578086048111156113055761130461126f565b5b60018516156113145780820291505b8081029050611322856112d2565b94506112e9565b94509492505050565b60008261134257600190506113fe565b8161135057600090506113fe565b816001811461136657600281146113705761139f565b60019150506113fe565b60ff8411156113825761138161126f565b5b8360020a9150848211156113995761139861126f565b5b506113fe565b5060208310610133831016604e8410600b84101617156113d45782820a9050838111156113cf576113ce61126f565b5b6113fe565b6113e184848460016112df565b925090508184048111156113f8576113f761126f565b5b81810290505b9392505050565b600061141082610f72565b915061141b83610f72565b92506114487fffffffffffffffffffffffffffffffffffffffffffffffffffffffffffffffff8484611332565b905092915050565b7f4e487b7100000000000000000000000000000000000000000000000000000000600052601260045260246000fd5b600061148a826110c0565b9150611495836110c0565b9250826114a5576114a4611450565b5b600160000383147f8000000000000000000000000000000000000000000000000000000000000000831416156114de576114dd61126f565b5b828205905092915050565b60006114f4826110c0565b91506114ff836110c0565b925082820261150d816110c0565b91507f800000000000000000000000000000000000000000000000000000000000000084146000841216156115455761154461126f565b5b828205841483151761155a5761155961126f565b5b5092915050565b60006020828403121561157757611576610e33565b5b60006115858482850161110d565b91505092915050565b600061159982610f72565b91506115a483610f72565b9250826115b4576115b3611450565b5b828204905092915050565b60006115ca82610f72565b91506115d583610f72565b92508282026115e381610f72565b915082820484148315176115fa576115f961126f565b5b5092915050565b7f496e76616c696420707269636520736f75726365000000000000000000000000600082015250565b6000611637601483611001565b915061164282611601565b602082019050919050565b600060208201905081810360008301526116668161162a565b9050919050565b60006040820190506116826000830185610f3a565b61168f6020830184610f2b565b939250505056fea26469706673582212209f0702f42f475c86db104bbbb1df290c2f6b4e489c2b60d1cb3526120a5793e664736f6c634300081c0033",
  "linkReferences": {},
  "deployedLinkReferences": {}
}