{
  "_format": "hh-sol-artifact-1",
  "contractName": "LendingPool",
  "sourceName": "contracts/LendingPool.sol",
  "abi": [
    {
      "inputs": [
        {
          "internalType": "address",
          "name": "_liquidation",
          "type": "address"
        },
        {
          "internalType": "address",
          "name": "_priceRouter",
          "type": "address"
        },
        {
          "internalType": "uint256",
          "name": "_collateralFactor",
          "type": "uint256"
        }
      ],
      "stateMutability": "nonpayable",
      "type": "constructor"
    },
    {
      "inputs": [
        {
          "internalType": "address",
          "name": "owner",
          "type": "address"
        }
      ],
      "name": "OwnableInvalidOwner",
      "type": "error"
    },
    {
      "inputs": [
        {
          "internalType": "address",
          "name": "account",
          "type": "address"
        }
      ],
      "name": "OwnableUnauthorizedAccount",
      "type": "error"
    },
    {
      "inputs": [],
      "name": "ReentrancyGuardReentrantCall",
      "type": "error"
    },
    {
      "inputs": [
        {
          "internalType": "address",
          "name": "token",
          "type": "address"
        }
      ],
      "name": "SafeERC20FailedOperation",
      "type": "error"
    },
    {
      "anonymous": false,
      "inputs": [
        {
          "indexed": true,
          "internalType": "address",
          "name": "asset",
          "type": "address"
        },
        {
          "indexed": false,
          "internalType": "uint256",
          "name": "interestAccrued",
          "type": "uint256"
        },
        {
          "indexed": false,
          "internalType": "uint256",
          "name": "depositInterestAccrued",
          "type": "uint256"
        },
        {
          "indexed": false,
          "internalType": "uint256",
          "name": "newTotalBorrows",
          "type": "uint256"
        },
        {
          "indexed": false,
          "internalType": "uint256",
          "name": "newBorrowIndex",
          "type": "uint256"
        },
        {
          "indexed": false,
          "internalType": "uint256",
          "name": "newTotalDeposits",
          "type": "uint256"
        },
        {
          "indexed": false,
          "internalType": "uint256",
          "name": "newDepositIndex",
          "type": "uint256"
        }
      ],
      "name": "Accrue",
      "type": "event"
    },
    {
      "anonymous": false,
      "inputs": [
        {
          "indexed": true,
          "internalType": "address",
          "name": "admin",
          "type": "address"
        }
      ],
      "name": "AdminAdded",
      "type": "event"
    },
    {
      "anonymous": false,
      "inputs": [
        {
          "indexed": true,
          "internalType": "address",
          "name": "admin",
          "type": "address"
        }
      ],
      "name": "AdminRemoved",
      "type": "event"
    },
    {
      "anonymous": false,
      "inputs": [
        {
          "indexed": true,
          "internalType": "address",
          "name": "user",
          "type": "address"
        },
        {
          "indexed": true,
          "internalType": "address",
          "name": "asset",
          "type": "address"
        },
        {
          "indexed": false,
          "internalType": "uint256",
          "name": "amount",
          "type": "uint256"
        }
      ],
      "name": "Borrow",
      "type": "event"
    },
    {
      "anonymous": false,
      "inputs": [
        {
          "indexed": true,
          "internalType": "address",
          "name": "borrower",
          "type": "address"
        },
        {
          "indexed": true,
          "internalType": "address",
          "name": "collateralAsset",
          "type": "address"
        },
        {
          "indexed": false,
          "internalType": "uint256",
          "name": "seizeAmount",
          "type": "uint256"
        }
      ],
      "name": "CollateralSeized",
      "type": "event"
    },
    {
      "anonymous": false,
      "inputs": [
        {
          "indexed": true,
          "internalType": "address",
          "name": "user",
          "type": "address"
        },
        {
          "indexed": true,
          "internalType": "address",
          "name": "asset",
          "type": "address"
        },
        {
          "indexed": false,
          "internalType": "uint256",
          "name": "amount",
          "type": "uint256"
        }
      ],
      "name": "Deposit",
      "type": "event"
    },
    {
      "anonymous": false,
      "inputs": [
        {
          "indexed": true,
          "internalType": "address",
          "name": "asset",
          "type": "address"
        },
        {
          "indexed": false,
          "internalType": "address",
          "name": "interestRateModel",
          "type": "address"
        }
      ],
      "name": "MarketSupported",
      "type": "event"
    },
    {
      "anonymous": false,
      "inputs": [
        {
          "indexed": true,
          "internalType": "address",
          "name": "asset",
          "type": "address"
        }
      ],
      "name": "MarketUnsupported",
      "type": "event"
    },
    {
      "anonymous": false,
      "inputs": [
        {
          "indexed": true,
          "internalType": "address",
          "name": "previousOwner",
          "type": "address"
        },
        {
          "indexed": true,
          "internalType": "address",
          "name": "newOwner",
          "type": "address"
        }
      ],
      "name": "OwnershipTransferred",
      "type": "event"
    },
    {
      "anonymous": false,
      "inputs": [
        {
          "indexed": true,
          "internalType": "address",
          "name": "user",
          "type": "address"
        },
        {
          "indexed": true,
          "internalType": "address",
          "name": "asset",
          "type": "address"
        },
        {
          "indexed": false,
          "internalType": "uint256",
          "name": "amount",
          "type": "uint256"
        }
      ],
      "name": "Repay",
      "type": "event"
    },
    {
      "anonymous": false,
      "inputs": [
        {
          "indexed": true,
          "internalType": "address",
          "name": "borrower",
          "type": "address"
        },
        {
          "indexed": true,
          "internalType": "address",
          "name": "repayAsset",
          "type": "address"
        },
        {
          "indexed": false,
          "internalType": "uint256",
          "name": "repayAmount",
          "type": "uint256"
        }
      ],
      "name": "RepayFromLiquidation",
      "type": "event"
    },
    {
      "anonymous": false,
      "inputs": [
        {
          "indexed": true,
          "internalType": "address",
          "name": "user",
          "type": "address"
        },
        {
          "indexed": true,
          "internalType": "address",
          "name": "asset",
          "type": "address"
        },
        {
          "indexed": false,
          "internalType": "uint256",
          "name": "amount",
          "type": "uint256"
        }
      ],
      "name": "Withdraw",
      "type": "event"
    },
    {
      "inputs": [],
      "name": "SCALE",
      "outputs": [
        {
          "internalType": "uint256",
          "name": "",
          "type": "uint256"
        }
      ],
      "stateMutability": "view",
      "type": "function"
    },
    {
      "inputs": [],
      "name": "SECONDS_PER_YEAR",
      "outputs": [
        {
          "internalType": "uint256",
          "name": "",
          "type": "uint256"
        }
      ],
      "stateMutability": "view",
      "type": "function"
    },
    {
      "inputs": [
        {
          "internalType": "address",
          "name": "asset",
          "type": "address"
        }
      ],
      "name": "accrueInterest",
      "outputs": [],
      "stateMutability": "nonpayable",
      "type": "function"
    },
    {
      "inputs": [
        {
          "internalType": "address",
          "name": "asset",
          "type": "address"
        },
        {
          "internalType": "uint256",
          "name": "amount",
          "type": "uint256"
        }
      ],
      "name": "borrow",
      "outputs": [],
      "stateMutability": "nonpayable",
      "type": "function"
    },
    {
      "inputs": [],
      "name": "collateralFactor",
      "outputs": [
        {
          "internalType": "uint256",
          "name": "",
          "type": "uint256"
        }
      ],
      "stateMutability": "view",
      "type": "function"
    },
    {
      "inputs": [
        {
          "internalType": "address",
          "name": "asset",
          "type": "address"
        },
        {
          "internalType": "uint256",
          "name": "amount",
          "type": "uint256"
        }
      ],
      "name": "deposit",
      "outputs": [],
      "stateMutability": "nonpayable",
      "type": "function"
    },
    {
      "inputs": [
        {
          "internalType": "address",
          "name": "user",
          "type": "address"
        }
      ],
      "name": "getAccountLiquidity",
      "outputs": [
        {
          "internalType": "uint256",
          "name": "totalDepositedUSD",
          "type": "uint256"
        },
        {
          "internalType": "uint256",
          "name": "totalBorrowedUSD",
          "type": "uint256"
        }
      ],
      "stateMutability": "view",
      "type": "function"
    },
    {
      "inputs": [
        {
          "internalType": "address",
          "name": "user",
          "type": "address"
        },
        {
          "internalType": "address",
          "name": "asset",
          "type": "address"
        }
      ],
      "name": "getUserCurrentBorrow",
      "outputs": [
        {
          "internalType": "uint256",
          "name": "",
          "type": "uint256"
        }
      ],
      "stateMutability": "view",
      "type": "function"
    },
    {
      "inputs": [
        {
          "internalType": "address",
          "name": "user",
          "type": "address"
        },
        {
          "internalType": "address",
          "name": "asset",
          "type": "address"
        }
      ],
      "name": "getUserCurrentDeposit",
      "outputs": [
        {
          "internalType": "uint256",
          "name": "",
          "type": "uint256"
        }
      ],
      "stateMutability": "view",
      "type": "function"
    },
    {
      "inputs": [
        {
          "internalType": "address",
          "name": "asset",
          "type": "address"
        }
      ],
      "name": "getUtilizationRate",
      "outputs": [
        {
          "internalType": "uint256",
          "name": "",
          "type": "uint256"
        }
      ],
      "stateMutability": "view",
      "type": "function"
    },
    {
      "inputs": [
        {
          "internalType": "address",
          "name": "",
          "type": "address"
        }
      ],
      "name": "isAdmin",
      "outputs": [
        {
          "internalType": "bool",
          "name": "",
          "type": "bool"
        }
      ],
      "stateMutability": "view",
      "type": "function"
    },
    {
      "inputs": [],
      "name": "liquidation",
      "outputs": [
        {
          "internalType": "address",
          "name": "",
          "type": "address"
        }
      ],
      "stateMutability": "view",
      "type": "function"
    },
    {
      "inputs": [
        {
          "internalType": "address",
          "name": "",
          "type": "address"
        }
      ],
      "name": "markets",
      "outputs": [
        {
          "internalType": "bool",
          "name": "isSupported",
          "type": "bool"
        },
        {
          "internalType": "uint256",
          "name": "totalDeposits",
          "type": "uint256"
        },
        {
          "internalType": "uint256",
          "name": "totalBorrows",
          "type": "uint256"
        },
        {
          "internalType": "uint256",
          "name": "borrowIndex",
          "type": "uint256"
        },
        {
          "internalType": "uint256",
          "name": "depositIndex",
          "type": "uint256"
        },
        {
          "internalType": "uint256",
          "name": "lastUpdateTimestamp",
          "type": "uint256"
        },
        {
          "internalType": "address",
          "name": "interestRateModel",
          "type": "address"
        }
      ],
      "stateMutability": "view",
      "type": "function"
    },
    {
      "inputs": [],
      "name": "owner",
      "outputs": [
        {
          "internalType": "address",
          "name": "",
          "type": "address"
        }
      ],
      "stateMutability": "view",
      "type": "function"
    },
    {
      "inputs": [],
      "name": "priceRouter",
      "outputs": [
        {
          "internalType": "address",
          "name": "",
          "type": "address"
        }
      ],
      "stateMutability": "view",
      "type": "function"
    },
    {
      "inputs": [],
      "name": "renounceOwnership",
      "outputs": [],
      "stateMutability": "nonpayable",
      "type": "function"
    },
    {
      "inputs": [
        {
          "internalType": "address",
          "name": "asset",
          "type": "address"
        },
        {
          "internalType": "uint256",
          "name": "amount",
          "type": "uint256"
        }
      ],
      "name": "repay",
      "outputs": [],
      "stateMutability": "nonpayable",
      "type": "function"
    },
    {
      "inputs": [
        {
          "internalType": "address",
          "name": "borrower",
          "type": "address"
        },
        {
          "internalType": "address",
          "name": "repayAsset",
          "type": "address"
        },
        {
          "internalType": "uint256",
          "name": "repayAmount",
          "type": "uint256"
        }
      ],
      "name": "repayFromLiquidation",
      "outputs": [],
      "stateMutability": "nonpayable",
      "type": "function"
    },
    {
      "inputs": [
        {
          "internalType": "address",
          "name": "borrower",
          "type": "address"
        },
        {
          "internalType": "address",
          "name": "collateralAsset",
          "type": "address"
        },
        {
          "internalType": "uint256",
          "name": "seizeAmount",
          "type": "uint256"
        },
        {
          "internalType": "address",
          "name": "recipient",
          "type": "address"
        }
      ],
      "name": "seizeCollateral",
      "outputs": [],
      "stateMutability": "nonpayable",
      "type": "function"
    },
    {
      "inputs": [
        {
          "internalType": "address",
          "name": "admin",
          "type": "address"
        },
        {
          "internalType": "bool",
          "name": "allowed",
          "type": "bool"
        }
      ],
      "name": "setAdmin",
      "outputs": [],
      "stateMutability": "nonpayable",
      "type": "function"
    },
    {
      "inputs": [
        {
          "internalType": "uint256",
          "name": "_collateralFactor",
          "type": "uint256"
        }
      ],
      "name": "setCollateralParams",
      "outputs": [],
      "stateMutability": "nonpayable",
      "type": "function"
    },
    {
      "inputs": [
        {
          "internalType": "address",
          "name": "_liquidation",
          "type": "address"
        }
      ],
      "name": "setLiquidation",
      "outputs": [],
      "stateMutability": "nonpayable",
      "type": "function"
    },
    {
      "inputs": [
        {
          "internalType": "address",
          "name": "_priceRouter",
          "type": "address"
        }
      ],
      "name": "setPriceRouter",
      "outputs": [],
      "stateMutability": "nonpayable",
      "type": "function"
    },
    {
      "inputs": [
        {
          "internalType": "address",
          "name": "asset",
          "type": "address"
        },
        {
          "internalType": "address",
          "name": "interestRateModel",
          "type": "address"
        }
      ],
      "name": "supportMarket",
      "outputs": [],
      "stateMutability": "nonpayable",
      "type": "function"
    },
    {
      "inputs": [
        {
          "internalType": "address",
          "name": "newOwner",
          "type": "address"
        }
      ],
      "name": "transferOwnership",
      "outputs": [],
      "stateMutability": "nonpayable",
      "type": "function"
    },
    {
      "inputs": [
        {
          "internalType": "address",
          "name": "asset",
          "type": "address"
        }
      ],
      "name": "unsupportMarket",
      "outputs": [],
      "stateMutability": "nonpayable",
      "type": "function"
    },
    {
      "inputs": [
        {
          "internalType": "address",
          "name": "",
          "type": "address"
        },
        {
          "internalType": "address",
          "name": "",
          "type": "address"
        }
      ],
      "name": "userBalances",
      "outputs": [
        {
          "internalType": "uint256",
          "name": "deposited",
          "type": "uint256"
        },
        {
          "internalType": "uint256",
          "name": "borrowed",
          "type": "uint256"
        },
        {
          "internalType": "uint256",
          "name": "borrowIndexSnapShot",
          "type": "uint256"
        },
        {
          "internalType": "uint256",
          "name": "depositIndexSnapShot",
          "type": "uint256"
        }
      ],
      "stateMutability": "view",
      "type": "function"
    },
    {
      "inputs": [
        {
          "internalType": "address",
          "name": "",
          "type": "address"
        },
        {
          "internalType": "address",
          "name": "",
          "type": "address"
        }
      ],
      "name": "userMarketExists",
      "outputs": [
        {
          "internalType": "bool",
          "name": "",
          "type": "bool"
        }
      ],
      "stateMutability": "view",
      "type": "function"
    },
    {
      "inputs": [
        {
          "internalType": "address",
          "name": "",
          "type": "address"
        },
        {
          "internalType": "uint256",
          "name": "",
          "type": "uint256"
        }
      ],
      "name": "userMarkets",
      "outputs": [
        {
          "internalType": "address",
          "name": "",
          "type": "address"
        }
      ],
      "stateMutability": "view",
      "type": "function"
    },
    {
      "inputs": [
        {
          "internalType": "address",
          "name": "asset",
          "type": "address"
        },
        {
          "internalType": "uint256",
          "name": "amount",
          "type": "uint256"
        }
      ],
      "name": "withdraw",
      "outputs": [],
      "stateMutability": "nonpayable",
      "type": "function"
    }
  ],
  "bytecode": "0x608060405234801561001057600080fd5b506040516140a13803806140a183398181016040528101906100329190610302565b33600073ffffffffffffffffffffffffffffffffffffffff168173ffffffffffffffffffffffffffffffffffffffff16036100a55760006040517f1e4fbdf700000000000000000000000000000000000000000000000000000000815260040161009c9190610364565b60405180910390fd5b6100b4816101a560201b60201c565b506001808190555082600760006101000a81548173ffffffffffffffffffffffffffffffffffffffff021916908373ffffffffffffffffffffffffffffffffffffffff16021790555081600860006101000a81548173ffffffffffffffffffffffffffffffffffffffff021916908373ffffffffffffffffffffffffffffffffffffffff160217905550806006819055506001600960003373ffffffffffffffffffffffffffffffffffffffff1673ffffffffffffffffffffffffffffffffffffffff16815260200190815260200160002060006101000a81548160ff02191690831515021790555050505061037f565b60008060009054906101000a900473ffffffffffffffffffffffffffffffffffffffff169050816000806101000a81548173ffffffffffffffffffffffffffffffffffffffff021916908373ffffffffffffffffffffffffffffffffffffffff1602179055508173ffffffffffffffffffffffffffffffffffffffff168173ffffffffffffffffffffffffffffffffffffffff167f8be0079c531659141344cd1fd0a4f28419497f9722a3daafe3b4186f6b6457e060405160405180910390a35050565b600080fd5b600073ffffffffffffffffffffffffffffffffffffffff82169050919050565b60006102998261026e565b9050919050565b6102a98161028e565b81146102b457600080fd5b50565b6000815190506102c6816102a0565b92915050565b6000819050919050565b6102df816102cc565b81146102ea57600080fd5b50565b6000815190506102fc816102d6565b92915050565b60008060006060848603121561031b5761031a610269565b5b6000610329868287016102b7565b935050602061033a868287016102b7565b925050604061034b868287016102ed565b9150509250925092565b61035e8161028e565b82525050565b60006020820190506103796000830184610355565b92915050565b613d138061038e6000396000f3fe608060405234801561001057600080fd5b50600436106101da5760003560e01c8063adb5198011610104578063e530ab2a116100a2578063f2fde38b11610071578063f2fde38b1461055b578063f3fef3a314610577578063f429e35d14610593578063f45c251f146105c3576101da565b8063e530ab2a146104e5578063e6a69ab814610501578063eced55261461051f578063f2dfbf661461053d576101da565b8063d7d4bf45116100de578063d7d4bf451461045d578063db0f871d1461047b578063df011c41146104ab578063e4f2c9ea146104c9576101da565b8063adb51980146103de578063ce86418814610411578063d114298914610441576101da565b80637b6aa8bd1161017c5780638e8f294b1161014b5780638e8f294b146103545780639198e5151461038a578063ab919ee3146103a6578063ace429cf146103c2576101da565b80637b6aa8bd146102ba578063837c614b146102ea57806388005bdc1461031a5780638da5cb5b14610336576101da565b80634b0bddd2116101b85780634b0bddd2146102475780634b8a3529146102635780635ec88c791461027f578063715018a6146102b0576101da565b806322867d78146101df57806324d7806c146101fb57806347e7ef241461022b575b600080fd5b6101f960048036038101906101f49190613334565b6105df565b005b61021560048036038101906102109190613374565b6108f1565b60405161022291906133bc565b60405180910390f35b61024560048036038101906102409190613334565b610911565b005b610261600480360381019061025c9190613403565b610d6a565b005b61027d60048036038101906102789190613334565b610e5f565b005b61029960048036038101906102949190613374565b611237565b6040516102a7929190613452565b60405180910390f35b6102b861145f565b005b6102d460048036038101906102cf9190613374565b611473565b6040516102e1919061347b565b60405180910390f35b61030460048036038101906102ff9190613496565b6115ab565b60405161031191906133bc565b60405180910390f35b610334600480360381019061032f9190613374565b6115da565b005b61033e6116aa565b60405161034b91906134e5565b60405180910390f35b61036e60048036038101906103699190613374565b6116d3565b6040516103819796959493929190613500565b60405180910390f35b6103a4600480360381019061039f9190613374565b611742565b005b6103c060048036038101906103bb9190613374565b611ad7565b005b6103dc60048036038101906103d7919061356f565b611ba7565b005b6103f860048036038101906103f39190613496565b611e96565b60405161040894939291906135d6565b60405180910390f35b61042b60048036038101906104269190613496565b611ed3565b604051610438919061347b565b60405180910390f35b61045b6004803603810190610456919061361b565b611ee7565b005b610465611f7d565b60405161047291906134e5565b60405180910390f35b61049560048036038101906104909190613334565b611fa3565b6040516104a291906134e5565b60405180910390f35b6104b3611ff1565b6040516104c0919061347b565b60405180910390f35b6104e360048036038101906104de9190613496565b611ff7565b005b6104ff60048036038101906104fa9190613374565b61220e565b005b61050961233b565b604051610516919061347b565b60405180910390f35b610527612343565b604051610534919061347b565b60405180910390f35b61054561234f565b60405161055291906134e5565b60405180910390f35b61057560048036038101906105709190613374565b612375565b005b610591600480360381019061058c9190613334565b6123fb565b005b6105ad60048036038101906105a89190613496565b6128ad565b6040516105ba919061347b565b60405180910390f35b6105dd60048036038101906105d89190613648565b6128c1565b005b6105e7612b4e565b81600260008273ffffffffffffffffffffffffffffffffffffffff1673ffffffffffffffffffffffffffffffffffffffff16815260200190815260200160002060000160009054906101000a900460ff16610677576040517f08c379a000000000000000000000000000000000000000000000000000000000815260040161066e906136f8565b60405180910390fd5b81600081116106bb576040517f08c379a00000000000000000000000000000000000000000000000000000000081526004016106b290613764565b60405180910390fd5b6106c484611742565b6000600260008673ffffffffffffffffffffffffffffffffffffffff1673ffffffffffffffffffffffffffffffffffffffff16815260200190815260200160002090506000600360003373ffffffffffffffffffffffffffffffffffffffff1673ffffffffffffffffffffffffffffffffffffffff16815260200190815260200160002060008773ffffffffffffffffffffffffffffffffffffffff1673ffffffffffffffffffffffffffffffffffffffff168152602001908152602001600020905060006107933388612b94565b9050858110156107d8576040517f08c379a00000000000000000000000000000000000000000000000000000000081526004016107cf906137d0565b60405180910390fd5b6000869050818111156107e9578190505b6108163330838b73ffffffffffffffffffffffffffffffffffffffff16612d98909392919063ffffffff16565b60008183610824919061381f565b90506000810361084757600084600101819055506000846002018190555061085e565b808460010181905550846003015484600201819055505b81856002016000828254610872919061381f565b925050819055508873ffffffffffffffffffffffffffffffffffffffff163373ffffffffffffffffffffffffffffffffffffffff167f05f2eeda0e08e4b437f487c8d7d29b14537d15e3488170dc3de5dbdf8dac4684846040516108d6919061347b565b60405180910390a3505050505050506108ed612e1a565b5050565b60096020528060005260406000206000915054906101000a900460ff1681565b610919612b4e565b81600260008273ffffffffffffffffffffffffffffffffffffffff1673ffffffffffffffffffffffffffffffffffffffff16815260200190815260200160002060000160009054906101000a900460ff166109a9576040517f08c379a00000000000000000000000000000000000000000000000000000000081526004016109a0906136f8565b60405180910390fd5b81600081116109ed576040517f08c379a00000000000000000000000000000000000000000000000000000000081526004016109e490613764565b60405180910390fd5b6109f684611742565b610a233330858773ffffffffffffffffffffffffffffffffffffffff16612d98909392919063ffffffff16565b6000600260008673ffffffffffffffffffffffffffffffffffffffff1673ffffffffffffffffffffffffffffffffffffffff16815260200190815260200160002090506000600360003373ffffffffffffffffffffffffffffffffffffffff1673ffffffffffffffffffffffffffffffffffffffff16815260200190815260200160002060008773ffffffffffffffffffffffffffffffffffffffff1673ffffffffffffffffffffffffffffffffffffffff16815260200190815260200160002090506000610af23388612e23565b90508086610b009190613853565b82600001819055508260040154826003018190555085836001016000828254610b299190613853565b92505081905550600560003373ffffffffffffffffffffffffffffffffffffffff1673ffffffffffffffffffffffffffffffffffffffff16815260200190815260200160002060008873ffffffffffffffffffffffffffffffffffffffff1673ffffffffffffffffffffffffffffffffffffffff16815260200190815260200160002060009054906101000a900460ff16610cf457600460003373ffffffffffffffffffffffffffffffffffffffff1673ffffffffffffffffffffffffffffffffffffffff168152602001908152602001600020879080600181540180825580915050600190039060005260206000200160009091909190916101000a81548173ffffffffffffffffffffffffffffffffffffffff021916908373ffffffffffffffffffffffffffffffffffffffff1602179055506001600560003373ffffffffffffffffffffffffffffffffffffffff1673ffffffffffffffffffffffffffffffffffffffff16815260200190815260200160002060008973ffffffffffffffffffffffffffffffffffffffff1673ffffffffffffffffffffffffffffffffffffffff16815260200190815260200160002060006101000a81548160ff0219169083151502179055505b8673ffffffffffffffffffffffffffffffffffffffff163373ffffffffffffffffffffffffffffffffffffffff167f5548c837ab068cf56a2c2479df0882a4922fd203edb7517321831d95078c5f6288604051610d51919061347b565b60405180910390a35050505050610d66612e1a565b5050565b610d72613027565b80600960008473ffffffffffffffffffffffffffffffffffffffff1673ffffffffffffffffffffffffffffffffffffffff16815260200190815260200160002060006101000a81548160ff0219169083151502179055508015610e17578173ffffffffffffffffffffffffffffffffffffffff167f44d6d25963f097ad14f29f06854a01f575648a1ef82f30e562ccd3889717e33960405160405180910390a2610e5b565b8173ffffffffffffffffffffffffffffffffffffffff167fa3b62bc36326052d97ea62d63c3d60308ed4c3ea8ac079dd8499f1e9c4f80c0f60405160405180910390a25b5050565b610e67612b4e565b81600260008273ffffffffffffffffffffffffffffffffffffffff1673ffffffffffffffffffffffffffffffffffffffff16815260200190815260200160002060000160009054906101000a900460ff16610ef7576040517f08c379a0000000000000000000000000000000000000000000000000000000008152600401610eee906136f8565b60405180910390fd5b8160008111610f3b576040517f08c379a0000000000000000000000000000000000000000000000000000000008152600401610f3290613764565b60405180910390fd5b610f4484611742565b6000600260008673ffffffffffffffffffffffffffffffffffffffff1673ffffffffffffffffffffffffffffffffffffffff16815260200190815260200160002090506000600360003373ffffffffffffffffffffffffffffffffffffffff1673ffffffffffffffffffffffffffffffffffffffff16815260200190815260200160002060008773ffffffffffffffffffffffffffffffffffffffff1673ffffffffffffffffffffffffffffffffffffffff168152602001908152602001600020905060008061101333611237565b915091506000600860009054906101000a900473ffffffffffffffffffffffffffffffffffffffff1673ffffffffffffffffffffffffffffffffffffffff166341976e098a6040518263ffffffff1660e01b815260040161107491906134e5565b602060405180830381865afa158015611091573d6000803e3d6000fd5b505050506040513d601f19601f820116820180604052508101906110b5919061389c565b90506000670de0b6b3a764000089836110ce91906138c9565b6110d8919061393a565b905080836110e69190613853565b670de0b6b3a7640000600654866110fd91906138c9565b611107919061393a565b1015611148576040517f08c379a000000000000000000000000000000000000000000000000000000000815260040161113f906139b7565b60405180910390fd5b6000611154338c612b94565b9050808a6111629190613853565b8660010181905550866003015486600201819055508987600201600082825461118b9190613853565b925050819055506111bd338b8d73ffffffffffffffffffffffffffffffffffffffff166130ae9092919063ffffffff16565b8a73ffffffffffffffffffffffffffffffffffffffff163373ffffffffffffffffffffffffffffffffffffffff167f312a5e5e1079f5dda4e95dbbd0b908b291fd5b992ef22073643ab691572c5b528c60405161121a919061347b565b60405180910390a3505050505050505050611233612e1a565b5050565b6000806000600860009054906101000a900473ffffffffffffffffffffffffffffffffffffffff1690506000600460008673ffffffffffffffffffffffffffffffffffffffff1673ffffffffffffffffffffffffffffffffffffffff16815260200190815260200160002080548060200260200160405190810160405280929190818152602001828054801561132257602002820191906000526020600020905b8160009054906101000a900473ffffffffffffffffffffffffffffffffffffffff1673ffffffffffffffffffffffffffffffffffffffff16815260200190600101908083116112d8575b5050505050905060005b815181101561145757600082828151811061134a576113496139d7565b5b6020026020010151905060006113608883612e23565b9050600061136e8984612b94565b905060008673ffffffffffffffffffffffffffffffffffffffff166341976e09856040518263ffffffff1660e01b81526004016113ab91906134e5565b602060405180830381865afa1580156113c8573d6000803e3d6000fd5b505050506040513d601f19601f820116820180604052508101906113ec919061389c565b9050670de0b6b3a7640000838261140391906138c9565b61140d919061393a565b896114189190613853565b9850670de0b6b3a7640000828261142f91906138c9565b611439919061393a565b886114449190613853565b975050505050808060010191505061132c565b505050915091565b611467613027565b611471600061312d565b565b600080600260008473ffffffffffffffffffffffffffffffffffffffff1673ffffffffffffffffffffffffffffffffffffffff1681526020019081526020016000206040518060e00160405290816000820160009054906101000a900460ff1615151515815260200160018201548152602001600282015481526020016003820154815260200160048201548152602001600582015481526020016006820160009054906101000a900473ffffffffffffffffffffffffffffffffffffffff1673ffffffffffffffffffffffffffffffffffffffff1673ffffffffffffffffffffffffffffffffffffffff16815250509050600081602001510361157b5760009150506115a6565b8060200151670de0b6b3a7640000826040015161159891906138c9565b6115a2919061393a565b9150505b919050565b60056020528160005260406000206020528060005260406000206000915091509054906101000a900460ff1681565b600960003373ffffffffffffffffffffffffffffffffffffffff1673ffffffffffffffffffffffffffffffffffffffff16815260200190815260200160002060009054906101000a900460ff16611666576040517f08c379a000000000000000000000000000000000000000000000000000000000815260040161165d90613a52565b60405180910390fd5b80600860006101000a81548173ffffffffffffffffffffffffffffffffffffffff021916908373ffffffffffffffffffffffffffffffffffffffff16021790555050565b60008060009054906101000a900473ffffffffffffffffffffffffffffffffffffffff16905090565b60026020528060005260406000206000915090508060000160009054906101000a900460ff16908060010154908060020154908060030154908060040154908060050154908060060160009054906101000a900473ffffffffffffffffffffffffffffffffffffffff16905087565b6000600260008373ffffffffffffffffffffffffffffffffffffffff1673ffffffffffffffffffffffffffffffffffffffff16815260200190815260200160002090508060000160009054906101000a900460ff166117a15750611ad4565b60008160050154426117b3919061381f565b9050600081036117c4575050611ad4565b60008260060160009054906101000a900473ffffffffffffffffffffffffffffffffffffffff16905060008173ffffffffffffffffffffffffffffffffffffffff1663d71275f6866040518263ffffffff1660e01b815260040161182891906134e5565b602060405180830381865afa158015611845573d6000803e3d6000fd5b505050506040513d601f19601f82011682018060405250810190611869919061389c565b905060008273ffffffffffffffffffffffffffffffffffffffff16634c8f411d876040518263ffffffff1660e01b81526004016118a691906134e5565b602060405180830381865afa1580156118c3573d6000803e3d6000fd5b505050506040513d601f19601f820116820180604052508101906118e7919061389c565b90506000670de0b6b3a76400006301e133808685896002015461190a91906138c9565b61191491906138c9565b61191e919061393a565b611928919061393a565b90508086600201600082825461193e9190613853565b925050819055506000670de0b6b3a76400006301e1338087868a6003015461196691906138c9565b61197091906138c9565b61197a919061393a565b611984919061393a565b90508087600301600082825461199a9190613853565b925050819055506000670de0b6b3a76400006301e1338088868b600101546119c291906138c9565b6119cc91906138c9565b6119d6919061393a565b6119e0919061393a565b9050808860010160008282546119f69190613853565b925050819055506000670de0b6b3a76400006301e1338089878c60040154611a1e91906138c9565b611a2891906138c9565b611a32919061393a565b611a3c919061393a565b905080896004016000828254611a529190613853565b925050819055504289600501819055508973ffffffffffffffffffffffffffffffffffffffff167f0624d4b124e9e7b0d6a1cb1df2ff41a60fdf034c5dc080fe204f09036f6d25fa85848c600201548d600301548e600101548f60040154604051611ac296959493929190613a72565b60405180910390a25050505050505050505b50565b600960003373ffffffffffffffffffffffffffffffffffffffff1673ffffffffffffffffffffffffffffffffffffffff16815260200190815260200160002060009054906101000a900460ff16611b63576040517f08c379a0000000000000000000000000000000000000000000000000000000008152600401611b5a90613a52565b60405180910390fd5b80600760006101000a81548173ffffffffffffffffffffffffffffffffffffffff021916908373ffffffffffffffffffffffffffffffffffffffff16021790555050565b600760009054906101000a900473ffffffffffffffffffffffffffffffffffffffff1673ffffffffffffffffffffffffffffffffffffffff163373ffffffffffffffffffffffffffffffffffffffff1614611c37576040517f08c379a0000000000000000000000000000000000000000000000000000000008152600401611c2e90613b1f565b60405180910390fd5b8160008111611c7b576040517f08c379a0000000000000000000000000000000000000000000000000000000008152600401611c7290613764565b60405180910390fd5b611c8484611742565b6000600360008773ffffffffffffffffffffffffffffffffffffffff1673ffffffffffffffffffffffffffffffffffffffff16815260200190815260200160002060008673ffffffffffffffffffffffffffffffffffffffff1673ffffffffffffffffffffffffffffffffffffffff16815260200190815260200160002090506000600260008773ffffffffffffffffffffffffffffffffffffffff1673ffffffffffffffffffffffffffffffffffffffff16815260200190815260200160002090506000611d538888612e23565b905085811015611d98576040517f08c379a0000000000000000000000000000000000000000000000000000000008152600401611d8f90613b8b565b60405180910390fd5b60008682611da6919061381f565b905060008103611dc9576000846000018190555060008460030181905550611de0565b808460000181905550826004015484600301819055505b86836001016000828254611df4919061381f565b92505081905550611e2686888a73ffffffffffffffffffffffffffffffffffffffff166130ae9092919063ffffffff16565b8773ffffffffffffffffffffffffffffffffffffffff168973ffffffffffffffffffffffffffffffffffffffff167f1284277b7d46f4a42632238bce8963722a8d26209ca7aa951d890666eb5156ea89604051611e83919061347b565b60405180910390a3505050505050505050565b6003602052816000526040600020602052806000526040600020600091509150508060000154908060010154908060020154908060030154905084565b6000611edf8383612e23565b905092915050565b600960003373ffffffffffffffffffffffffffffffffffffffff1673ffffffffffffffffffffffffffffffffffffffff16815260200190815260200160002060009054906101000a900460ff16611f73576040517f08c379a0000000000000000000000000000000000000000000000000000000008152600401611f6a90613a52565b60405180910390fd5b8060068190555050565b600860009054906101000a900473ffffffffffffffffffffffffffffffffffffffff1681565b60046020528160005260406000208181548110611fbf57600080fd5b906000526020600020016000915091509054906101000a900473ffffffffffffffffffffffffffffffffffffffff1681565b60065481565b600960003373ffffffffffffffffffffffffffffffffffffffff1673ffffffffffffffffffffffffffffffffffffffff16815260200190815260200160002060009054906101000a900460ff16612083576040517f08c379a000000000000000000000000000000000000000000000000000000000815260040161207a90613a52565b60405180910390fd5b6040518060e001604052806001151581526020016000815260200160008152602001670de0b6b3a76400008152602001670de0b6b3a764000081526020014281526020018273ffffffffffffffffffffffffffffffffffffffff16815250600260008473ffffffffffffffffffffffffffffffffffffffff1673ffffffffffffffffffffffffffffffffffffffff16815260200190815260200160002060008201518160000160006101000a81548160ff0219169083151502179055506020820151816001015560408201518160020155606082015181600301556080820151816004015560a0820151816005015560c08201518160060160006101000a81548173ffffffffffffffffffffffffffffffffffffffff021916908373ffffffffffffffffffffffffffffffffffffffff1602179055509050508173ffffffffffffffffffffffffffffffffffffffff167f62bc9d008146dc27aff44047da56481285a473589f73d0af9c60cbc661551c9e8260405161220291906134e5565b60405180910390a25050565b600960003373ffffffffffffffffffffffffffffffffffffffff1673ffffffffffffffffffffffffffffffffffffffff16815260200190815260200160002060009054906101000a900460ff1661229a576040517f08c379a000000000000000000000000000000000000000000000000000000000815260040161229190613a52565b60405180910390fd5b6000600260008373ffffffffffffffffffffffffffffffffffffffff1673ffffffffffffffffffffffffffffffffffffffff16815260200190815260200160002060000160006101000a81548160ff0219169083151502179055508073ffffffffffffffffffffffffffffffffffffffff167f431398c7df2ac791d73a0dda06d7b14cea5997fd7761fd028d11195079a49eed60405160405180910390a250565b6301e1338081565b670de0b6b3a764000081565b600760009054906101000a900473ffffffffffffffffffffffffffffffffffffffff1681565b61237d613027565b600073ffffffffffffffffffffffffffffffffffffffff168173ffffffffffffffffffffffffffffffffffffffff16036123ef5760006040517f1e4fbdf70000000000000000000000000000000000000000000000000000000081526004016123e691906134e5565b60405180910390fd5b6123f88161312d565b50565b612403612b4e565b81600260008273ffffffffffffffffffffffffffffffffffffffff1673ffffffffffffffffffffffffffffffffffffffff16815260200190815260200160002060000160009054906101000a900460ff16612493576040517f08c379a000000000000000000000000000000000000000000000000000000000815260040161248a906136f8565b60405180910390fd5b81600081116124d7576040517f08c379a00000000000000000000000000000000000000000000000000000000081526004016124ce90613764565b60405180910390fd5b6124e084611742565b6000600260008673ffffffffffffffffffffffffffffffffffffffff1673ffffffffffffffffffffffffffffffffffffffff16815260200190815260200160002090506000600360003373ffffffffffffffffffffffffffffffffffffffff1673ffffffffffffffffffffffffffffffffffffffff16815260200190815260200160002060008773ffffffffffffffffffffffffffffffffffffffff1673ffffffffffffffffffffffffffffffffffffffff168152602001908152602001600020905060006125af3388612e23565b9050858110156125f4576040517f08c379a00000000000000000000000000000000000000000000000000000000081526004016125eb90613c1d565b60405180910390fd5b6000803073ffffffffffffffffffffffffffffffffffffffff16635ec88c79336040518263ffffffff1660e01b815260040161263091906134e5565b6040805180830381865afa15801561264c573d6000803e3d6000fd5b505050506040513d601f19601f820116820180604052508101906126709190613c3d565b915091506000600860009054906101000a900473ffffffffffffffffffffffffffffffffffffffff1673ffffffffffffffffffffffffffffffffffffffff166341976e098b6040518263ffffffff1660e01b81526004016126d191906134e5565b602060405180830381865afa1580156126ee573d6000803e3d6000fd5b505050506040513d601f19601f82011682018060405250810190612712919061389c565b90506000670de0b6b3a76400008a8361272b91906138c9565b612735919061393a565b905082670de0b6b3a76400006006548387612750919061381f565b61275a91906138c9565b612764919061393a565b116127a4576040517f08c379a000000000000000000000000000000000000000000000000000000000815260040161279b906139b7565b60405180910390fd5b60008a866127b2919061381f565b9050600081036127d55760008760000181905550600087600301819055506127ec565b808760000181905550876004015487600301819055505b8a886001016000828254612800919061381f565b92505081905550612832338c8e73ffffffffffffffffffffffffffffffffffffffff166130ae9092919063ffffffff16565b8b73ffffffffffffffffffffffffffffffffffffffff163373ffffffffffffffffffffffffffffffffffffffff167f9b1bfa7fa9ee420a16e124f794c35ac9f90472acc99140eb2f6447c714cad8eb8d60405161288f919061347b565b60405180910390a3505050505050505050506128a9612e1a565b5050565b60006128b98383612b94565b905092915050565b600760009054906101000a900473ffffffffffffffffffffffffffffffffffffffff1673ffffffffffffffffffffffffffffffffffffffff163373ffffffffffffffffffffffffffffffffffffffff1614612951576040517f08c379a000000000000000000000000000000000000000000000000000000000815260040161294890613b1f565b60405180910390fd5b8060008111612995576040517f08c379a000000000000000000000000000000000000000000000000000000000815260040161298c90613764565b60405180910390fd5b61299e83611742565b6000600260008573ffffffffffffffffffffffffffffffffffffffff1673ffffffffffffffffffffffffffffffffffffffff16815260200190815260200160002090506000600360008773ffffffffffffffffffffffffffffffffffffffff1673ffffffffffffffffffffffffffffffffffffffff16815260200190815260200160002060008673ffffffffffffffffffffffffffffffffffffffff1673ffffffffffffffffffffffffffffffffffffffff16815260200190815260200160002090506000612a6d8787612b94565b905060008582612a7d919061381f565b905060008103612aa0576000836001018190555060008360020181905550612ab7565b808360010181905550836003015483600201819055505b8360030154836002018190555085846002016000828254612ad8919061381f565b925050819055508673ffffffffffffffffffffffffffffffffffffffff168873ffffffffffffffffffffffffffffffffffffffff167f4d9046e2d939f189888c8dfb01b343ca8ff3388075b9dc3e8bcf1be618db35ad88604051612b3c919061347b565b60405180910390a35050505050505050565b600260015403612b8a576040517f3ee5aeb500000000000000000000000000000000000000000000000000000000815260040160405180910390fd5b6002600181905550565b600080600360008573ffffffffffffffffffffffffffffffffffffffff1673ffffffffffffffffffffffffffffffffffffffff16815260200190815260200160002060008473ffffffffffffffffffffffffffffffffffffffff1673ffffffffffffffffffffffffffffffffffffffff16815260200190815260200160002060405180608001604052908160008201548152602001600182015481526020016002820154815260200160038201548152505090506000600260008573ffffffffffffffffffffffffffffffffffffffff1673ffffffffffffffffffffffffffffffffffffffff1681526020019081526020016000206040518060e00160405290816000820160009054906101000a900460ff1615151515815260200160018201548152602001600282015481526020016003820154815260200160048201548152602001600582015481526020016006820160009054906101000a900473ffffffffffffffffffffffffffffffffffffffff1673ffffffffffffffffffffffffffffffffffffffff1673ffffffffffffffffffffffffffffffffffffffff168152505090506000826020015103612d5057600092505050612d92565b6000826040015103612d6a57816020015192505050612d92565b816040015181606001518360200151612d8391906138c9565b612d8d919061393a565b925050505b92915050565b612e14848573ffffffffffffffffffffffffffffffffffffffff166323b872dd868686604051602401612dcd93929190613c7d565b604051602081830303815290604052915060e01b6020820180517bffffffffffffffffffffffffffffffffffffffffffffffffffffffff83818316178352505050506131f1565b50505050565b60018081905550565b600080600360008573ffffffffffffffffffffffffffffffffffffffff1673ffffffffffffffffffffffffffffffffffffffff16815260200190815260200160002060008473ffffffffffffffffffffffffffffffffffffffff1673ffffffffffffffffffffffffffffffffffffffff16815260200190815260200160002060405180608001604052908160008201548152602001600182015481526020016002820154815260200160038201548152505090506000600260008573ffffffffffffffffffffffffffffffffffffffff1673ffffffffffffffffffffffffffffffffffffffff1681526020019081526020016000206040518060e00160405290816000820160009054906101000a900460ff1615151515815260200160018201548152602001600282015481526020016003820154815260200160048201548152602001600582015481526020016006820160009054906101000a900473ffffffffffffffffffffffffffffffffffffffff1673ffffffffffffffffffffffffffffffffffffffff1673ffffffffffffffffffffffffffffffffffffffff168152505090506000826000015103612fdf57600092505050613021565b6000826060015103612ff957816000015192505050613021565b81606001518160800151836000015161301291906138c9565b61301c919061393a565b925050505b92915050565b61302f613293565b73ffffffffffffffffffffffffffffffffffffffff1661304d6116aa565b73ffffffffffffffffffffffffffffffffffffffff16146130ac57613070613293565b6040517f118cdaa70000000000000000000000000000000000000000000000000000000081526004016130a391906134e5565b60405180910390fd5b565b613128838473ffffffffffffffffffffffffffffffffffffffff1663a9059cbb85856040516024016130e1929190613cb4565b604051602081830303815290604052915060e01b6020820180517bffffffffffffffffffffffffffffffffffffffffffffffffffffffff83818316178352505050506131f1565b505050565b60008060009054906101000a900473ffffffffffffffffffffffffffffffffffffffff169050816000806101000a81548173ffffffffffffffffffffffffffffffffffffffff021916908373ffffffffffffffffffffffffffffffffffffffff1602179055508173ffffffffffffffffffffffffffffffffffffffff168173ffffffffffffffffffffffffffffffffffffffff167f8be0079c531659141344cd1fd0a4f28419497f9722a3daafe3b4186f6b6457e060405160405180910390a35050565b600080602060008451602086016000885af180613214576040513d6000823e3d81fd5b3d92506000519150506000821461322f57600181141561324b565b60008473ffffffffffffffffffffffffffffffffffffffff163b145b1561328d57836040517f5274afe700000000000000000000000000000000000000000000000000000000815260040161328491906134e5565b60405180910390fd5b50505050565b600033905090565b600080fd5b600073ffffffffffffffffffffffffffffffffffffffff82169050919050565b60006132cb826132a0565b9050919050565b6132db816132c0565b81146132e657600080fd5b50565b6000813590506132f8816132d2565b92915050565b6000819050919050565b613311816132fe565b811461331c57600080fd5b50565b60008135905061332e81613308565b92915050565b6000806040838503121561334b5761334a61329b565b5b6000613359858286016132e9565b925050602061336a8582860161331f565b9150509250929050565b60006020828403121561338a5761338961329b565b5b6000613398848285016132e9565b91505092915050565b60008115159050919050565b6133b6816133a1565b82525050565b60006020820190506133d160008301846133ad565b92915050565b6133e0816133a1565b81146133eb57600080fd5b50565b6000813590506133fd816133d7565b92915050565b6000806040838503121561341a5761341961329b565b5b6000613428858286016132e9565b9250506020613439858286016133ee565b9150509250929050565b61344c816132fe565b82525050565b60006040820190506134676000830185613443565b6134746020830184613443565b9392505050565b60006020820190506134906000830184613443565b92915050565b600080604083850312156134ad576134ac61329b565b5b60006134bb858286016132e9565b92505060206134cc858286016132e9565b9150509250929050565b6134df816132c0565b82525050565b60006020820190506134fa60008301846134d6565b92915050565b600060e082019050613515600083018a6133ad565b6135226020830189613443565b61352f6040830188613443565b61353c6060830187613443565b6135496080830186613443565b61355660a0830185613443565b61356360c08301846134d6565b98975050505050505050565b600080600080608085870312156135895761358861329b565b5b6000613597878288016132e9565b94505060206135a8878288016132e9565b93505060406135b98782880161331f565b92505060606135ca878288016132e9565b91505092959194509250565b60006080820190506135eb6000830187613443565b6135f86020830186613443565b6136056040830185613443565b6136126060830184613443565b95945050505050565b6000602082840312156136315761363061329b565b5b600061363f8482850161331f565b91505092915050565b6000806000606084860312156136615761366061329b565b5b600061366f868287016132e9565b9350506020613680868287016132e9565b92505060406136918682870161331f565b9150509250925092565b600082825260208201905092915050565b7f4d61726b6574206e6f7420737570706f72746564000000000000000000000000600082015250565b60006136e260148361369b565b91506136ed826136ac565b602082019050919050565b60006020820190508181036000830152613711816136d5565b9050919050565b7f416d6f756e74206d7573742062652067726561746572207468616e207a65726f600082015250565b600061374e60208361369b565b915061375982613718565b602082019050919050565b6000602082019050818103600083015261377d81613741565b9050919050565b7f526570617920616d6f756e74206578636565647320626f72726f776564000000600082015250565b60006137ba601d8361369b565b91506137c582613784565b602082019050919050565b600060208201905081810360008301526137e9816137ad565b9050919050565b7f4e487b7100000000000000000000000000000000000000000000000000000000600052601160045260246000fd5b600061382a826132fe565b9150613835836132fe565b925082820390508181111561384d5761384c6137f0565b5b92915050565b600061385e826132fe565b9150613869836132fe565b9250828201905080821115613881576138806137f0565b5b92915050565b60008151905061389681613308565b92915050565b6000602082840312156138b2576138b161329b565b5b60006138c084828501613887565b91505092915050565b60006138d4826132fe565b91506138df836132fe565b92508282026138ed816132fe565b91508282048414831517613904576139036137f0565b5b5092915050565b7f4e487b7100000000000000000000000000000000000000000000000000000000600052601260045260246000fd5b6000613945826132fe565b9150613950836132fe565b9250826139605761395f61390b565b5b828204905092915050565b7f496e73756666696369656e7420636f6c6c61746572616c000000000000000000600082015250565b60006139a160178361369b565b91506139ac8261396b565b602082019050919050565b600060208201905081810360008301526139d081613994565b9050919050565b7f4e487b7100000000000000000000000000000000000000000000000000000000600052603260045260246000fd5b7f4e6f7420616e2061646d696e0000000000000000000000000000000000000000600082015250565b6000613a3c600c8361369b565b9150613a4782613a06565b602082019050919050565b60006020820190508181036000830152613a6b81613a2f565b9050919050565b600060c082019050613a876000830189613443565b613a946020830188613443565b613aa16040830187613443565b613aae6060830186613443565b613abb6080830185613443565b613ac860a0830184613443565b979650505050505050565b7f4e6f74206c69717569646174696f6e20636f6e74726163740000000000000000600082015250565b6000613b0960188361369b565b9150613b1482613ad3565b602082019050919050565b60006020820190508181036000830152613b3881613afc565b9050919050565b7f4e6f7420656e6f75676820636f6c6c61746572616c0000000000000000000000600082015250565b6000613b7560158361369b565b9150613b8082613b3f565b602082019050919050565b60006020820190508181036000830152613ba481613b68565b9050919050565b7f576974686472617720616d6f756e742065786365656473206465706f7369746560008201527f6400000000000000000000000000000000000000000000000000000000000000602082015250565b6000613c0760218361369b565b9150613c1282613bab565b604082019050919050565b60006020820190508181036000830152613c3681613bfa565b9050919050565b60008060408385031215613c5457613c5361329b565b5b6000613c6285828601613887565b9250506020613c7385828601613887565b9150509250929050565b6000606082019050613c9260008301866134d6565b613c9f60208301856134d6565b613cac6040830184613443565b949350505050565b6000604082019050613cc960008301856134d6565b613cd66020830184613443565b939250505056fea2646970667358221220ff67a659efe6a34a0be9a36a84c085e827b46671a417d59abb85710806d9836964736f6c634300081c0033",
  "linkReferences": {},
  "deployedLinkReferences": {}
}