{
  "_format": "hh-sol-artifact-1",
  "contractName": "LendingPool",
  "sourceName": "contracts/LendingPool.sol",
  "abi": [
    {
      "inputs": [
        {
          "internalType": "address",
          "name": "_liquidation",
          "type": "address"
        },
        {
          "internalType": "address",
          "name": "_priceRouter",
          "type": "address"
        },
        {
          "internalType": "uint256",
          "name": "_collateralFactor",
          "type": "uint256"
        }
      ],
      "stateMutability": "nonpayable",
      "type": "constructor"
    },
    {
      "inputs": [
        {
          "internalType": "address",
          "name": "owner",
          "type": "address"
        }
      ],
      "name": "OwnableInvalidOwner",
      "type": "error"
    },
    {
      "inputs": [
        {
          "internalType": "address",
          "name": "account",
          "type": "address"
        }
      ],
      "name": "OwnableUnauthorizedAccount",
      "type": "error"
    },
    {
      "inputs": [],
      "name": "ReentrancyGuardReentrantCall",
      "type": "error"
    },
    {
      "inputs": [
        {
          "internalType": "address",
          "name": "token",
          "type": "address"
        }
      ],
      "name": "SafeERC20FailedOperation",
      "type": "error"
    },
    {
      "anonymous": false,
      "inputs": [
        {
          "indexed": true,
          "internalType": "address",
          "name": "asset",
          "type": "address"
        },
        {
          "indexed": false,
          "internalType": "uint256",
          "name": "interestAccrued",
          "type": "uint256"
        },
        {
          "indexed": false,
          "internalType": "uint256",
          "name": "depositInterestAccrued",
          "type": "uint256"
        },
        {
          "indexed": false,
          "internalType": "uint256",
          "name": "newTotalBorrows",
          "type": "uint256"
        },
        {
          "indexed": false,
          "internalType": "uint256",
          "name": "newBorrowIndex",
          "type": "uint256"
        },
        {
          "indexed": false,
          "internalType": "uint256",
          "name": "newTotalDeposits",
          "type": "uint256"
        },
        {
          "indexed": false,
          "internalType": "uint256",
          "name": "newDepositIndex",
          "type": "uint256"
        }
      ],
      "name": "Accrue",
      "type": "event"
    },
    {
      "anonymous": false,
      "inputs": [
        {
          "indexed": true,
          "internalType": "address",
          "name": "admin",
          "type": "address"
        }
      ],
      "name": "AdminAdded",
      "type": "event"
    },
    {
      "anonymous": false,
      "inputs": [
        {
          "indexed": true,
          "internalType": "address",
          "name": "admin",
          "type": "address"
        }
      ],
      "name": "AdminRemoved",
      "type": "event"
    },
    {
      "anonymous": false,
      "inputs": [
        {
          "indexed": true,
          "internalType": "address",
          "name": "user",
          "type": "address"
        },
        {
          "indexed": true,
          "internalType": "address",
          "name": "asset",
          "type": "address"
        },
        {
          "indexed": false,
          "internalType": "uint256",
          "name": "amount",
          "type": "uint256"
        }
      ],
      "name": "Borrow",
      "type": "event"
    },
    {
      "anonymous": false,
      "inputs": [
        {
          "indexed": true,
          "internalType": "address",
          "name": "borrower",
          "type": "address"
        },
        {
          "indexed": true,
          "internalType": "address",
          "name": "collateralAsset",
          "type": "address"
        },
        {
          "indexed": false,
          "internalType": "uint256",
          "name": "seizeAmount",
          "type": "uint256"
        }
      ],
      "name": "CollateralSeized",
      "type": "event"
    },
    {
      "anonymous": false,
      "inputs": [
        {
          "indexed": true,
          "internalType": "address",
          "name": "user",
          "type": "address"
        },
        {
          "indexed": true,
          "internalType": "address",
          "name": "asset",
          "type": "address"
        },
        {
          "indexed": false,
          "internalType": "uint256",
          "name": "amount",
          "type": "uint256"
        }
      ],
      "name": "Deposit",
      "type": "event"
    },
    {
      "anonymous": false,
      "inputs": [
        {
          "indexed": true,
          "internalType": "address",
          "name": "asset",
          "type": "address"
        },
        {
          "indexed": false,
          "internalType": "address",
          "name": "interestRateModel",
          "type": "address"
        }
      ],
      "name": "MarketSupported",
      "type": "event"
    },
    {
      "anonymous": false,
      "inputs": [
        {
          "indexed": true,
          "internalType": "address",
          "name": "asset",
          "type": "address"
        }
      ],
      "name": "MarketUnsupported",
      "type": "event"
    },
    {
      "anonymous": false,
      "inputs": [
        {
          "indexed": true,
          "internalType": "address",
          "name": "previousOwner",
          "type": "address"
        },
        {
          "indexed": true,
          "internalType": "address",
          "name": "newOwner",
          "type": "address"
        }
      ],
      "name": "OwnershipTransferred",
      "type": "event"
    },
    {
      "anonymous": false,
      "inputs": [
        {
          "indexed": true,
          "internalType": "address",
          "name": "user",
          "type": "address"
        },
        {
          "indexed": true,
          "internalType": "address",
          "name": "asset",
          "type": "address"
        },
        {
          "indexed": false,
          "internalType": "uint256",
          "name": "amount",
          "type": "uint256"
        }
      ],
      "name": "Repay",
      "type": "event"
    },
    {
      "anonymous": false,
      "inputs": [
        {
          "indexed": true,
          "internalType": "address",
          "name": "borrower",
          "type": "address"
        },
        {
          "indexed": true,
          "internalType": "address",
          "name": "repayAsset",
          "type": "address"
        },
        {
          "indexed": false,
          "internalType": "uint256",
          "name": "repayAmount",
          "type": "uint256"
        }
      ],
      "name": "RepayFromLiquidation",
      "type": "event"
    },
    {
      "anonymous": false,
      "inputs": [
        {
          "indexed": true,
          "internalType": "address",
          "name": "user",
          "type": "address"
        },
        {
          "indexed": true,
          "internalType": "address",
          "name": "asset",
          "type": "address"
        },
        {
          "indexed": false,
          "internalType": "uint256",
          "name": "amount",
          "type": "uint256"
        }
      ],
      "name": "Withdraw",
      "type": "event"
    },
    {
      "inputs": [],
      "name": "SCALE",
      "outputs": [
        {
          "internalType": "uint256",
          "name": "",
          "type": "uint256"
        }
      ],
      "stateMutability": "view",
      "type": "function"
    },
    {
      "inputs": [],
      "name": "SECONDS_PER_YEAR",
      "outputs": [
        {
          "internalType": "uint256",
          "name": "",
          "type": "uint256"
        }
      ],
      "stateMutability": "view",
      "type": "function"
    },
    {
      "inputs": [
        {
          "internalType": "address",
          "name": "asset",
          "type": "address"
        }
      ],
      "name": "accrueInterest",
      "outputs": [],
      "stateMutability": "nonpayable",
      "type": "function"
    },
    {
      "inputs": [
        {
          "internalType": "uint256",
          "name": "",
          "type": "uint256"
        }
      ],
      "name": "allMarkets",
      "outputs": [
        {
          "internalType": "address",
          "name": "",
          "type": "address"
        }
      ],
      "stateMutability": "view",
      "type": "function"
    },
    {
      "inputs": [
        {
          "internalType": "address",
          "name": "asset",
          "type": "address"
        },
        {
          "internalType": "uint256",
          "name": "amount",
          "type": "uint256"
        }
      ],
      "name": "borrow",
      "outputs": [],
      "stateMutability": "nonpayable",
      "type": "function"
    },
    {
      "inputs": [],
      "name": "collateralFactor",
      "outputs": [
        {
          "internalType": "uint256",
          "name": "",
          "type": "uint256"
        }
      ],
      "stateMutability": "view",
      "type": "function"
    },
    {
      "inputs": [
        {
          "internalType": "address",
          "name": "asset",
          "type": "address"
        },
        {
          "internalType": "uint256",
          "name": "amount",
          "type": "uint256"
        }
      ],
      "name": "deposit",
      "outputs": [],
      "stateMutability": "nonpayable",
      "type": "function"
    },
    {
      "inputs": [
        {
          "internalType": "address",
          "name": "user",
          "type": "address"
        }
      ],
      "name": "getAccountLiquidity",
      "outputs": [
        {
          "internalType": "uint256",
          "name": "totalDepositedUSD",
          "type": "uint256"
        },
        {
          "internalType": "uint256",
          "name": "totalBorrowedUSD",
          "type": "uint256"
        }
      ],
      "stateMutability": "view",
      "type": "function"
    },
    {
      "inputs": [],
      "name": "getAllMarkets",
      "outputs": [
        {
          "internalType": "address[]",
          "name": "",
          "type": "address[]"
        }
      ],
      "stateMutability": "view",
      "type": "function"
    },
    {
      "inputs": [
        {
          "internalType": "address",
          "name": "asset",
          "type": "address"
        }
      ],
      "name": "getMarketInfo",
      "outputs": [
        {
          "internalType": "uint256",
          "name": "totalDeposits",
          "type": "uint256"
        },
        {
          "internalType": "uint256",
          "name": "totalBorrows",
          "type": "uint256"
        },
        {
          "internalType": "uint256",
          "name": "depositRate",
          "type": "uint256"
        },
        {
          "internalType": "uint256",
          "name": "borrowRate",
          "type": "uint256"
        },
        {
          "internalType": "uint256",
          "name": "utilizationRate",
          "type": "uint256"
        }
      ],
      "stateMutability": "view",
      "type": "function"
    },
    {
      "inputs": [
        {
          "internalType": "address",
          "name": "user",
          "type": "address"
        },
        {
          "internalType": "address",
          "name": "asset",
          "type": "address"
        }
      ],
      "name": "getUserCurrentBorrow",
      "outputs": [
        {
          "internalType": "uint256",
          "name": "",
          "type": "uint256"
        }
      ],
      "stateMutability": "view",
      "type": "function"
    },
    {
      "inputs": [
        {
          "internalType": "address",
          "name": "user",
          "type": "address"
        },
        {
          "internalType": "address",
          "name": "asset",
          "type": "address"
        }
      ],
      "name": "getUserCurrentDeposit",
      "outputs": [
        {
          "internalType": "uint256",
          "name": "",
          "type": "uint256"
        }
      ],
      "stateMutability": "view",
      "type": "function"
    },
    {
      "inputs": [
        {
          "internalType": "address",
          "name": "user",
          "type": "address"
        }
      ],
      "name": "getUserInfo",
      "outputs": [
        {
          "internalType": "address[]",
          "name": "assets",
          "type": "address[]"
        },
        {
          "internalType": "uint256[]",
          "name": "deposited",
          "type": "uint256[]"
        },
        {
          "internalType": "uint256[]",
          "name": "borrowed",
          "type": "uint256[]"
        },
        {
          "internalType": "uint256",
          "name": "totalDeposited",
          "type": "uint256"
        },
        {
          "internalType": "uint256",
          "name": "totalBorrowedUSD",
          "type": "uint256"
        },
        {
          "internalType": "uint256",
          "name": "healthFactor",
          "type": "uint256"
        }
      ],
      "stateMutability": "view",
      "type": "function"
    },
    {
      "inputs": [
        {
          "internalType": "address",
          "name": "asset",
          "type": "address"
        }
      ],
      "name": "getUtilizationRate",
      "outputs": [
        {
          "internalType": "uint256",
          "name": "",
          "type": "uint256"
        }
      ],
      "stateMutability": "view",
      "type": "function"
    },
    {
      "inputs": [
        {
          "internalType": "address",
          "name": "",
          "type": "address"
        }
      ],
      "name": "isAdmin",
      "outputs": [
        {
          "internalType": "bool",
          "name": "",
          "type": "bool"
        }
      ],
      "stateMutability": "view",
      "type": "function"
    },
    {
      "inputs": [],
      "name": "liquidation",
      "outputs": [
        {
          "internalType": "address",
          "name": "",
          "type": "address"
        }
      ],
      "stateMutability": "view",
      "type": "function"
    },
    {
      "inputs": [
        {
          "internalType": "address",
          "name": "",
          "type": "address"
        }
      ],
      "name": "marketExists",
      "outputs": [
        {
          "internalType": "bool",
          "name": "",
          "type": "bool"
        }
      ],
      "stateMutability": "view",
      "type": "function"
    },
    {
      "inputs": [
        {
          "internalType": "address",
          "name": "",
          "type": "address"
        }
      ],
      "name": "markets",
      "outputs": [
        {
          "internalType": "bool",
          "name": "isSupported",
          "type": "bool"
        },
        {
          "internalType": "uint256",
          "name": "totalDeposits",
          "type": "uint256"
        },
        {
          "internalType": "uint256",
          "name": "totalBorrows",
          "type": "uint256"
        },
        {
          "internalType": "uint256",
          "name": "borrowIndex",
          "type": "uint256"
        },
        {
          "internalType": "uint256",
          "name": "depositIndex",
          "type": "uint256"
        },
        {
          "internalType": "uint256",
          "name": "lastUpdateTimestamp",
          "type": "uint256"
        },
        {
          "internalType": "address",
          "name": "interestRateModel",
          "type": "address"
        }
      ],
      "stateMutability": "view",
      "type": "function"
    },
    {
      "inputs": [],
      "name": "owner",
      "outputs": [
        {
          "internalType": "address",
          "name": "",
          "type": "address"
        }
      ],
      "stateMutability": "view",
      "type": "function"
    },
    {
      "inputs": [
        {
          "internalType": "address",
          "name": "user",
          "type": "address"
        },
        {
          "internalType": "address",
          "name": "asset",
          "type": "address"
        },
        {
          "internalType": "uint256",
          "name": "amount",
          "type": "uint256"
        }
      ],
      "name": "preViewBorrow",
      "outputs": [
        {
          "internalType": "uint256",
          "name": "totalDepositedUSD",
          "type": "uint256"
        },
        {
          "internalType": "uint256",
          "name": "totalBorrowedUSD",
          "type": "uint256"
        },
        {
          "internalType": "uint256",
          "name": "newBorrowUSD",
          "type": "uint256"
        },
        {
          "internalType": "uint256",
          "name": "newHealthFactor",
          "type": "uint256"
        }
      ],
      "stateMutability": "view",
      "type": "function"
    },
    {
      "inputs": [
        {
          "internalType": "address",
          "name": "user",
          "type": "address"
        },
        {
          "internalType": "address",
          "name": "asset",
          "type": "address"
        },
        {
          "internalType": "uint256",
          "name": "amount",
          "type": "uint256"
        }
      ],
      "name": "preViewDeposit",
      "outputs": [
        {
          "internalType": "uint256",
          "name": "totalDepositedUSD",
          "type": "uint256"
        },
        {
          "internalType": "uint256",
          "name": "newDepositedUSD",
          "type": "uint256"
        }
      ],
      "stateMutability": "view",
      "type": "function"
    },
    {
      "inputs": [
        {
          "internalType": "address",
          "name": "user",
          "type": "address"
        },
        {
          "internalType": "address",
          "name": "asset",
          "type": "address"
        },
        {
          "internalType": "uint256",
          "name": "amount",
          "type": "uint256"
        }
      ],
      "name": "preViewRepay",
      "outputs": [
        {
          "internalType": "uint256",
          "name": "totalBorrowedUSD",
          "type": "uint256"
        },
        {
          "internalType": "uint256",
          "name": "newBorrowedUSD",
          "type": "uint256"
        }
      ],
      "stateMutability": "view",
      "type": "function"
    },
    {
      "inputs": [
        {
          "internalType": "address",
          "name": "user",
          "type": "address"
        },
        {
          "internalType": "address",
          "name": "asset",
          "type": "address"
        },
        {
          "internalType": "uint256",
          "name": "amount",
          "type": "uint256"
        }
      ],
      "name": "preViewWithdraw",
      "outputs": [
        {
          "internalType": "uint256",
          "name": "totalDepositedUSD",
          "type": "uint256"
        },
        {
          "internalType": "uint256",
          "name": "totalBorrowedUSD",
          "type": "uint256"
        },
        {
          "internalType": "uint256",
          "name": "newDepositedUSD",
          "type": "uint256"
        },
        {
          "internalType": "uint256",
          "name": "newHealthFactor",
          "type": "uint256"
        }
      ],
      "stateMutability": "view",
      "type": "function"
    },
    {
      "inputs": [],
      "name": "priceRouter",
      "outputs": [
        {
          "internalType": "address",
          "name": "",
          "type": "address"
        }
      ],
      "stateMutability": "view",
      "type": "function"
    },
    {
      "inputs": [],
      "name": "renounceOwnership",
      "outputs": [],
      "stateMutability": "nonpayable",
      "type": "function"
    },
    {
      "inputs": [
        {
          "internalType": "address",
          "name": "asset",
          "type": "address"
        },
        {
          "internalType": "uint256",
          "name": "amount",
          "type": "uint256"
        }
      ],
      "name": "repay",
      "outputs": [],
      "stateMutability": "nonpayable",
      "type": "function"
    },
    {
      "inputs": [
        {
          "internalType": "address",
          "name": "borrower",
          "type": "address"
        },
        {
          "internalType": "address",
          "name": "repayAsset",
          "type": "address"
        },
        {
          "internalType": "uint256",
          "name": "repayAmount",
          "type": "uint256"
        }
      ],
      "name": "repayFromLiquidation",
      "outputs": [],
      "stateMutability": "nonpayable",
      "type": "function"
    },
    {
      "inputs": [
        {
          "internalType": "address",
          "name": "borrower",
          "type": "address"
        },
        {
          "internalType": "address",
          "name": "collateralAsset",
          "type": "address"
        },
        {
          "internalType": "uint256",
          "name": "seizeAmount",
          "type": "uint256"
        },
        {
          "internalType": "address",
          "name": "recipient",
          "type": "address"
        }
      ],
      "name": "seizeCollateral",
      "outputs": [],
      "stateMutability": "nonpayable",
      "type": "function"
    },
    {
      "inputs": [
        {
          "internalType": "address",
          "name": "admin",
          "type": "address"
        },
        {
          "internalType": "bool",
          "name": "allowed",
          "type": "bool"
        }
      ],
      "name": "setAdmin",
      "outputs": [],
      "stateMutability": "nonpayable",
      "type": "function"
    },
    {
      "inputs": [
        {
          "internalType": "uint256",
          "name": "_collateralFactor",
          "type": "uint256"
        }
      ],
      "name": "setCollateralParams",
      "outputs": [],
      "stateMutability": "nonpayable",
      "type": "function"
    },
    {
      "inputs": [
        {
          "internalType": "address",
          "name": "_liquidation",
          "type": "address"
        }
      ],
      "name": "setLiquidation",
      "outputs": [],
      "stateMutability": "nonpayable",
      "type": "function"
    },
    {
      "inputs": [
        {
          "internalType": "address",
          "name": "_priceRouter",
          "type": "address"
        }
      ],
      "name": "setPriceRouter",
      "outputs": [],
      "stateMutability": "nonpayable",
      "type": "function"
    },
    {
      "inputs": [
        {
          "internalType": "address",
          "name": "asset",
          "type": "address"
        },
        {
          "internalType": "address",
          "name": "interestRateModel",
          "type": "address"
        }
      ],
      "name": "supportMarket",
      "outputs": [],
      "stateMutability": "nonpayable",
      "type": "function"
    },
    {
      "inputs": [
        {
          "internalType": "address",
          "name": "newOwner",
          "type": "address"
        }
      ],
      "name": "transferOwnership",
      "outputs": [],
      "stateMutability": "nonpayable",
      "type": "function"
    },
    {
      "inputs": [
        {
          "internalType": "address",
          "name": "asset",
          "type": "address"
        }
      ],
      "name": "unsupportMarket",
      "outputs": [],
      "stateMutability": "nonpayable",
      "type": "function"
    },
    {
      "inputs": [
        {
          "internalType": "address",
          "name": "",
          "type": "address"
        },
        {
          "internalType": "address",
          "name": "",
          "type": "address"
        }
      ],
      "name": "userBalances",
      "outputs": [
        {
          "internalType": "uint256",
          "name": "deposited",
          "type": "uint256"
        },
        {
          "internalType": "uint256",
          "name": "borrowed",
          "type": "uint256"
        },
        {
          "internalType": "uint256",
          "name": "borrowIndexSnapShot",
          "type": "uint256"
        },
        {
          "internalType": "uint256",
          "name": "depositIndexSnapShot",
          "type": "uint256"
        }
      ],
      "stateMutability": "view",
      "type": "function"
    },
    {
      "inputs": [
        {
          "internalType": "address",
          "name": "",
          "type": "address"
        },
        {
          "internalType": "address",
          "name": "",
          "type": "address"
        }
      ],
      "name": "userMarketExists",
      "outputs": [
        {
          "internalType": "bool",
          "name": "",
          "type": "bool"
        }
      ],
      "stateMutability": "view",
      "type": "function"
    },
    {
      "inputs": [
        {
          "internalType": "address",
          "name": "",
          "type": "address"
        },
        {
          "internalType": "uint256",
          "name": "",
          "type": "uint256"
        }
      ],
      "name": "userMarkets",
      "outputs": [
        {
          "internalType": "address",
          "name": "",
          "type": "address"
        }
      ],
      "stateMutability": "view",
      "type": "function"
    },
    {
      "inputs": [
        {
          "internalType": "address",
          "name": "asset",
          "type": "address"
        },
        {
          "internalType": "uint256",
          "name": "amount",
          "type": "uint256"
        }
      ],
      "name": "withdraw",
      "outputs": [],
      "stateMutability": "nonpayable",
      "type": "function"
    }
  ],
  "bytecode": "0x608060405234801561001057600080fd5b50604051615ca8380380615ca883398181016040528101906100329190610302565b33600073ffffffffffffffffffffffffffffffffffffffff168173ffffffffffffffffffffffffffffffffffffffff16036100a55760006040517f1e4fbdf700000000000000000000000000000000000000000000000000000000815260040161009c9190610364565b60405180910390fd5b6100b4816101a560201b60201c565b506001808190555082600960006101000a81548173ffffffffffffffffffffffffffffffffffffffff021916908373ffffffffffffffffffffffffffffffffffffffff16021790555081600a60006101000a81548173ffffffffffffffffffffffffffffffffffffffff021916908373ffffffffffffffffffffffffffffffffffffffff160217905550806008819055506001600b60003373ffffffffffffffffffffffffffffffffffffffff1673ffffffffffffffffffffffffffffffffffffffff16815260200190815260200160002060006101000a81548160ff02191690831515021790555050505061037f565b60008060009054906101000a900473ffffffffffffffffffffffffffffffffffffffff169050816000806101000a81548173ffffffffffffffffffffffffffffffffffffffff021916908373ffffffffffffffffffffffffffffffffffffffff1602179055508173ffffffffffffffffffffffffffffffffffffffff168173ffffffffffffffffffffffffffffffffffffffff167f8be0079c531659141344cd1fd0a4f28419497f9722a3daafe3b4186f6b6457e060405160405180910390a35050565b600080fd5b600073ffffffffffffffffffffffffffffffffffffffff82169050919050565b60006102998261026e565b9050919050565b6102a98161028e565b81146102b457600080fd5b50565b6000815190506102c6816102a0565b92915050565b6000819050919050565b6102df816102cc565b81146102ea57600080fd5b50565b6000815190506102fc816102d6565b92915050565b60008060006060848603121561031b5761031a610269565b5b6000610329868287016102b7565b935050602061033a868287016102b7565b925050604061034b868287016102ed565b9150509250925092565b61035e8161028e565b82525050565b60006020820190506103796000830184610355565b92915050565b61591a8061038e6000396000f3fe608060405234801561001057600080fd5b506004361061023d5760003560e01c8063adb519801161013b578063e4f2c9ea116100b8578063f2dfbf661161007c578063f2dfbf661461074f578063f2fde38b1461076d578063f3fef3a314610789578063f429e35d146107a5578063f45c251f146107d55761023d565b8063e4f2c9ea146106aa578063e530ab2a146106c6578063e6a69ab8146106e2578063e8a92fa814610700578063eced5526146107315761023d565b8063d1142989116100ff578063d1142989146105ef578063d7d4bf451461060b578063db0f871d14610629578063df011c4114610659578063df499cdf146106775761023d565b8063adb519801461050a578063b0772d0b1461053d578063bc2936431461055b578063cc3325bc1461058c578063ce864188146105bf5761023d565b8063712ca018116101c95780638da5cb5b1161018d5780638da5cb5b146104625780638e8f294b146104805780639198e515146104b6578063ab919ee3146104d2578063ace429cf146104ee5761023d565b8063712ca018146103ac578063715018a6146103dc5780637b6aa8bd146103e6578063837c614b1461041657806388005bdc146104465761023d565b80634b0bddd2116102105780634b0bddd2146102de5780634b8a3529146102fa57806352d84d1e146103165780635ec88c79146103465780636386c1c7146103775761023d565b80630cf85bcc1461024257806322867d781461027657806324d7806c1461029257806347e7ef24146102c2575b600080fd5b61025c60048036038101906102579190614a8b565b6107f1565b60405161026d959493929190614ad1565b60405180910390f35b610290600480360381019061028b9190614b50565b610a50565b005b6102ac60048036038101906102a79190614a8b565b610d62565b6040516102b99190614bab565b60405180910390f35b6102dc60048036038101906102d79190614b50565b610d82565b005b6102f860048036038101906102f39190614bf2565b6111db565b005b610314600480360381019061030f9190614b50565b6112d0565b005b610330600480360381019061032b9190614c32565b611742565b60405161033d9190614c6e565b60405180910390f35b610360600480360381019061035b9190614a8b565b611781565b60405161036e929190614c89565b60405180910390f35b610391600480360381019061038c9190614a8b565b611a28565b6040516103a396959493929190614e2e565b60405180910390f35b6103c660048036038101906103c19190614a8b565b611d1a565b6040516103d39190614bab565b60405180910390f35b6103e4611d3a565b005b61040060048036038101906103fb9190614a8b565b611d4e565b60405161040d9190614ea4565b60405180910390f35b610430600480360381019061042b9190614ebf565b611e86565b60405161043d9190614bab565b60405180910390f35b610460600480360381019061045b9190614a8b565b611eb5565b005b61046a611f85565b6040516104779190614c6e565b60405180910390f35b61049a60048036038101906104959190614a8b565b611fae565b6040516104ad9796959493929190614eff565b60405180910390f35b6104d060048036038101906104cb9190614a8b565b61201d565b005b6104ec60048036038101906104e79190614a8b565b6123b2565b005b61050860048036038101906105039190614f6e565b612482565b005b610524600480360381019061051f9190614ebf565b612771565b6040516105349493929190614fd5565b60405180910390f35b6105456127ae565b604051610552919061501a565b60405180910390f35b6105756004803603810190610570919061503c565b61283c565b604051610583929190614c89565b60405180910390f35b6105a660048036038101906105a1919061503c565b612aa4565b6040516105b69493929190614fd5565b60405180910390f35b6105d960048036038101906105d49190614ebf565b612df2565b6040516105e69190614ea4565b60405180910390f35b61060960048036038101906106049190614c32565b612e06565b005b610613612e9c565b6040516106209190614c6e565b60405180910390f35b610643600480360381019061063e9190614b50565b612ec2565b6040516106509190614c6e565b60405180910390f35b610661612f10565b60405161066e9190614ea4565b60405180910390f35b610691600480360381019061068c919061503c565b612f16565b6040516106a19493929190614fd5565b60405180910390f35b6106c460048036038101906106bf9190614ebf565b613255565b005b6106e060048036038101906106db9190614a8b565b6136a9565b005b6106ea6137d6565b6040516106f79190614ea4565b60405180910390f35b61071a6004803603810190610715919061503c565b6137de565b604051610728929190614c89565b60405180910390f35b610739613a36565b6040516107469190614ea4565b60405180910390f35b610757613a42565b6040516107649190614c6e565b60405180910390f35b61078760048036038101906107829190614a8b565b613a68565b005b6107a3600480360381019061079e9190614b50565b613aee565b005b6107bf60048036038101906107ba9190614ebf565b61403a565b6040516107cc9190614ea4565b60405180910390f35b6107ef60048036038101906107ea919061503c565b61404e565b005b600080600080600080600260008873ffffffffffffffffffffffffffffffffffffffff1673ffffffffffffffffffffffffffffffffffffffff1681526020019081526020016000206040518060e00160405290816000820160009054906101000a900460ff1615151515815260200160018201548152602001600282015481526020016003820154815260200160048201548152602001600582015481526020016006820160009054906101000a900473ffffffffffffffffffffffffffffffffffffffff1673ffffffffffffffffffffffffffffffffffffffff1673ffffffffffffffffffffffffffffffffffffffff16815250509050806000015161092d576040517f08c379a0000000000000000000000000000000000000000000000000000000008152600401610924906150ec565b60405180910390fd5b806020015195508060400151945061094487611d4e565b91508060c0015173ffffffffffffffffffffffffffffffffffffffff1663d71275f6886040518263ffffffff1660e01b81526004016109839190614c6e565b602060405180830381865afa1580156109a0573d6000803e3d6000fd5b505050506040513d601f19601f820116820180604052508101906109c49190615121565b92508060c0015173ffffffffffffffffffffffffffffffffffffffff16634c8f411d886040518263ffffffff1660e01b8152600401610a039190614c6e565b602060405180830381865afa158015610a20573d6000803e3d6000fd5b505050506040513d601f19601f82011682018060405250810190610a449190615121565b93505091939590929450565b610a586142db565b81600260008273ffffffffffffffffffffffffffffffffffffffff1673ffffffffffffffffffffffffffffffffffffffff16815260200190815260200160002060000160009054906101000a900460ff16610ae8576040517f08c379a0000000000000000000000000000000000000000000000000000000008152600401610adf906150ec565b60405180910390fd5b8160008111610b2c576040517f08c379a0000000000000000000000000000000000000000000000000000000008152600401610b239061519a565b60405180910390fd5b610b358461201d565b6000600260008673ffffffffffffffffffffffffffffffffffffffff1673ffffffffffffffffffffffffffffffffffffffff16815260200190815260200160002090506000600560003373ffffffffffffffffffffffffffffffffffffffff1673ffffffffffffffffffffffffffffffffffffffff16815260200190815260200160002060008773ffffffffffffffffffffffffffffffffffffffff1673ffffffffffffffffffffffffffffffffffffffff16815260200190815260200160002090506000610c043388614321565b905085811015610c49576040517f08c379a0000000000000000000000000000000000000000000000000000000008152600401610c4090615206565b60405180910390fd5b600086905081811115610c5a578190505b610c873330838b73ffffffffffffffffffffffffffffffffffffffff16614525909392919063ffffffff16565b60008183610c959190615255565b905060008103610cb8576000846001018190555060008460020181905550610ccf565b808460010181905550846003015484600201819055505b81856002016000828254610ce39190615255565b925050819055508873ffffffffffffffffffffffffffffffffffffffff163373ffffffffffffffffffffffffffffffffffffffff167f05f2eeda0e08e4b437f487c8d7d29b14537d15e3488170dc3de5dbdf8dac468484604051610d479190614ea4565b60405180910390a350505050505050610d5e6145a7565b5050565b600b6020528060005260406000206000915054906101000a900460ff1681565b610d8a6142db565b81600260008273ffffffffffffffffffffffffffffffffffffffff1673ffffffffffffffffffffffffffffffffffffffff16815260200190815260200160002060000160009054906101000a900460ff16610e1a576040517f08c379a0000000000000000000000000000000000000000000000000000000008152600401610e11906150ec565b60405180910390fd5b8160008111610e5e576040517f08c379a0000000000000000000000000000000000000000000000000000000008152600401610e559061519a565b60405180910390fd5b610e678461201d565b610e943330858773ffffffffffffffffffffffffffffffffffffffff16614525909392919063ffffffff16565b6000600260008673ffffffffffffffffffffffffffffffffffffffff1673ffffffffffffffffffffffffffffffffffffffff16815260200190815260200160002090506000600560003373ffffffffffffffffffffffffffffffffffffffff1673ffffffffffffffffffffffffffffffffffffffff16815260200190815260200160002060008773ffffffffffffffffffffffffffffffffffffffff1673ffffffffffffffffffffffffffffffffffffffff16815260200190815260200160002090506000610f6333886145b0565b90508086610f719190615289565b82600001819055508260040154826003018190555085836001016000828254610f9a9190615289565b92505081905550600760003373ffffffffffffffffffffffffffffffffffffffff1673ffffffffffffffffffffffffffffffffffffffff16815260200190815260200160002060008873ffffffffffffffffffffffffffffffffffffffff1673ffffffffffffffffffffffffffffffffffffffff16815260200190815260200160002060009054906101000a900460ff1661116557600660003373ffffffffffffffffffffffffffffffffffffffff1673ffffffffffffffffffffffffffffffffffffffff168152602001908152602001600020879080600181540180825580915050600190039060005260206000200160009091909190916101000a81548173ffffffffffffffffffffffffffffffffffffffff021916908373ffffffffffffffffffffffffffffffffffffffff1602179055506001600760003373ffffffffffffffffffffffffffffffffffffffff1673ffffffffffffffffffffffffffffffffffffffff16815260200190815260200160002060008973ffffffffffffffffffffffffffffffffffffffff1673ffffffffffffffffffffffffffffffffffffffff16815260200190815260200160002060006101000a81548160ff0219169083151502179055505b8673ffffffffffffffffffffffffffffffffffffffff163373ffffffffffffffffffffffffffffffffffffffff167f5548c837ab068cf56a2c2479df0882a4922fd203edb7517321831d95078c5f62886040516111c29190614ea4565b60405180910390a350505050506111d76145a7565b5050565b6111e36147b4565b80600b60008473ffffffffffffffffffffffffffffffffffffffff1673ffffffffffffffffffffffffffffffffffffffff16815260200190815260200160002060006101000a81548160ff0219169083151502179055508015611288578173ffffffffffffffffffffffffffffffffffffffff167f44d6d25963f097ad14f29f06854a01f575648a1ef82f30e562ccd3889717e33960405160405180910390a26112cc565b8173ffffffffffffffffffffffffffffffffffffffff167fa3b62bc36326052d97ea62d63c3d60308ed4c3ea8ac079dd8499f1e9c4f80c0f60405160405180910390a25b5050565b6112d86142db565b81600260008273ffffffffffffffffffffffffffffffffffffffff1673ffffffffffffffffffffffffffffffffffffffff16815260200190815260200160002060000160009054906101000a900460ff16611368576040517f08c379a000000000000000000000000000000000000000000000000000000000815260040161135f906150ec565b60405180910390fd5b81600081116113ac576040517f08c379a00000000000000000000000000000000000000000000000000000000081526004016113a39061519a565b60405180910390fd5b6113b58461201d565b6000600260008673ffffffffffffffffffffffffffffffffffffffff1673ffffffffffffffffffffffffffffffffffffffff16815260200190815260200160002090506000600560003373ffffffffffffffffffffffffffffffffffffffff1673ffffffffffffffffffffffffffffffffffffffff16815260200190815260200160002060008773ffffffffffffffffffffffffffffffffffffffff1673ffffffffffffffffffffffffffffffffffffffff168152602001908152602001600020905060008061148433611781565b915091506000600a60009054906101000a900473ffffffffffffffffffffffffffffffffffffffff1673ffffffffffffffffffffffffffffffffffffffff166341976e098a6040518263ffffffff1660e01b81526004016114e59190614c6e565b602060405180830381865afa158015611502573d6000803e3d6000fd5b505050506040513d601f19601f820116820180604052508101906115269190615121565b905060008973ffffffffffffffffffffffffffffffffffffffff1663313ce5676040518163ffffffff1660e01b8152600401602060405180830381865afa158015611575573d6000803e3d6000fd5b505050506040513d601f19601f8201168201806040525081019061159991906152f6565b60ff1690506000670de0b6b3a76400008260126115b69190615255565b600a6115c29190615456565b8b856115ce91906154a1565b6115d891906154a1565b6115e29190615512565b905080846115f09190615289565b670de0b6b3a76400006008548761160791906154a1565b6116119190615512565b1015611652576040517f08c379a00000000000000000000000000000000000000000000000000000000081526004016116499061558f565b60405180910390fd5b600061165e338d614321565b9050808b61166c9190615289565b8760010181905550876003015487600201819055508a8860020160008282546116959190615289565b925050819055506116c7338c8e73ffffffffffffffffffffffffffffffffffffffff1661483b9092919063ffffffff16565b8b73ffffffffffffffffffffffffffffffffffffffff163373ffffffffffffffffffffffffffffffffffffffff167f312a5e5e1079f5dda4e95dbbd0b908b291fd5b992ef22073643ab691572c5b528d6040516117249190614ea4565b60405180910390a35050505050505050505061173e6145a7565b5050565b6003818154811061175257600080fd5b906000526020600020016000915054906101000a900473ffffffffffffffffffffffffffffffffffffffff1681565b6000806000600a60009054906101000a900473ffffffffffffffffffffffffffffffffffffffff1690506000600660008673ffffffffffffffffffffffffffffffffffffffff1673ffffffffffffffffffffffffffffffffffffffff16815260200190815260200160002080548060200260200160405190810160405280929190818152602001828054801561186c57602002820191906000526020600020905b8160009054906101000a900473ffffffffffffffffffffffffffffffffffffffff1673ffffffffffffffffffffffffffffffffffffffff1681526020019060010190808311611822575b5050505050905060005b8151811015611a20576000828281518110611894576118936155af565b5b6020026020010151905060006118aa88836145b0565b905060006118b88984614321565b905060008673ffffffffffffffffffffffffffffffffffffffff166341976e09856040518263ffffffff1660e01b81526004016118f59190614c6e565b602060405180830381865afa158015611912573d6000803e3d6000fd5b505050506040513d601f19601f820116820180604052508101906119369190615121565b905060008473ffffffffffffffffffffffffffffffffffffffff1663313ce5676040518163ffffffff1660e01b8152600401602060405180830381865afa158015611985573d6000803e3d6000fd5b505050506040513d601f19601f820116820180604052508101906119a991906152f6565b60ff16905080600a6119bb9190615456565b84836119c791906154a1565b6119d19190615512565b8a6119dc9190615289565b995080600a6119eb9190615456565b83836119f791906154a1565b611a019190615512565b89611a0c9190615289565b985050505050508080600101915050611876565b505050915091565b60608060606000806000600660008873ffffffffffffffffffffffffffffffffffffffff1673ffffffffffffffffffffffffffffffffffffffff168152602001908152602001600020805480602002602001604051908101604052809291908181526020018280548015611af157602002820191906000526020600020905b8160009054906101000a900473ffffffffffffffffffffffffffffffffffffffff1673ffffffffffffffffffffffffffffffffffffffff1681526020019060010190808311611aa7575b505050505095506000865190508067ffffffffffffffff811115611b1857611b176155de565b5b604051908082528060200260200182016040528015611b465781602001602082028036833780820191505090505b5095508067ffffffffffffffff811115611b6357611b626155de565b5b604051908082528060200260200182016040528015611b915781602001602082028036833780820191505090505b50945060005b81811015611c1e576000888281518110611bb457611bb36155af565b5b60200260200101519050611bc88a826145b0565b888381518110611bdb57611bda6155af565b5b602002602001018181525050611bf18a82614321565b878381518110611c0457611c036155af565b5b602002602001018181525050508080600101915050611b97565b50611c2888611781565b809450819550505060008303611c60577fffffffffffffffffffffffffffffffffffffffffffffffffffffffffffffffff9150611d10565b6000600960009054906101000a900473ffffffffffffffffffffffffffffffffffffffff1673ffffffffffffffffffffffffffffffffffffffff16634031234c6040518163ffffffff1660e01b8152600401602060405180830381865afa158015611ccf573d6000803e3d6000fd5b505050506040513d601f19601f82011682018060405250810190611cf39190615121565b9050838186611d0291906154a1565b611d0c9190615512565b9250505b5091939550919395565b60046020528060005260406000206000915054906101000a900460ff1681565b611d426147b4565b611d4c60006148ba565b565b600080600260008473ffffffffffffffffffffffffffffffffffffffff1673ffffffffffffffffffffffffffffffffffffffff1681526020019081526020016000206040518060e00160405290816000820160009054906101000a900460ff1615151515815260200160018201548152602001600282015481526020016003820154815260200160048201548152602001600582015481526020016006820160009054906101000a900473ffffffffffffffffffffffffffffffffffffffff1673ffffffffffffffffffffffffffffffffffffffff1673ffffffffffffffffffffffffffffffffffffffff168152505090506000816020015103611e56576000915050611e81565b8060200151670de0b6b3a76400008260400151611e7391906154a1565b611e7d9190615512565b9150505b919050565b60076020528160005260406000206020528060005260406000206000915091509054906101000a900460ff1681565b600b60003373ffffffffffffffffffffffffffffffffffffffff1673ffffffffffffffffffffffffffffffffffffffff16815260200190815260200160002060009054906101000a900460ff16611f41576040517f08c379a0000000000000000000000000000000000000000000000000000000008152600401611f3890615659565b60405180910390fd5b80600a60006101000a81548173ffffffffffffffffffffffffffffffffffffffff021916908373ffffffffffffffffffffffffffffffffffffffff16021790555050565b60008060009054906101000a900473ffffffffffffffffffffffffffffffffffffffff16905090565b60026020528060005260406000206000915090508060000160009054906101000a900460ff16908060010154908060020154908060030154908060040154908060050154908060060160009054906101000a900473ffffffffffffffffffffffffffffffffffffffff16905087565b6000600260008373ffffffffffffffffffffffffffffffffffffffff1673ffffffffffffffffffffffffffffffffffffffff16815260200190815260200160002090508060000160009054906101000a900460ff1661207c57506123af565b600081600501544261208e9190615255565b90506000810361209f5750506123af565b60008260060160009054906101000a900473ffffffffffffffffffffffffffffffffffffffff16905060008173ffffffffffffffffffffffffffffffffffffffff1663d71275f6866040518263ffffffff1660e01b81526004016121039190614c6e565b602060405180830381865afa158015612120573d6000803e3d6000fd5b505050506040513d601f19601f820116820180604052508101906121449190615121565b905060008273ffffffffffffffffffffffffffffffffffffffff16634c8f411d876040518263ffffffff1660e01b81526004016121819190614c6e565b602060405180830381865afa15801561219e573d6000803e3d6000fd5b505050506040513d601f19601f820116820180604052508101906121c29190615121565b90506000670de0b6b3a76400006301e13380868589600201546121e591906154a1565b6121ef91906154a1565b6121f99190615512565b6122039190615512565b9050808660020160008282546122199190615289565b925050819055506000670de0b6b3a76400006301e1338087868a6003015461224191906154a1565b61224b91906154a1565b6122559190615512565b61225f9190615512565b9050808760030160008282546122759190615289565b925050819055506000670de0b6b3a76400006301e1338088868b6001015461229d91906154a1565b6122a791906154a1565b6122b19190615512565b6122bb9190615512565b9050808860010160008282546122d19190615289565b925050819055506000670de0b6b3a76400006301e1338089878c600401546122f991906154a1565b61230391906154a1565b61230d9190615512565b6123179190615512565b90508089600401600082825461232d9190615289565b925050819055504289600501819055508973ffffffffffffffffffffffffffffffffffffffff167f0624d4b124e9e7b0d6a1cb1df2ff41a60fdf034c5dc080fe204f09036f6d25fa85848c600201548d600301548e600101548f6004015460405161239d96959493929190615679565b60405180910390a25050505050505050505b50565b600b60003373ffffffffffffffffffffffffffffffffffffffff1673ffffffffffffffffffffffffffffffffffffffff16815260200190815260200160002060009054906101000a900460ff1661243e576040517f08c379a000000000000000000000000000000000000000000000000000000000815260040161243590615659565b60405180910390fd5b80600960006101000a81548173ffffffffffffffffffffffffffffffffffffffff021916908373ffffffffffffffffffffffffffffffffffffffff16021790555050565b600960009054906101000a900473ffffffffffffffffffffffffffffffffffffffff1673ffffffffffffffffffffffffffffffffffffffff163373ffffffffffffffffffffffffffffffffffffffff1614612512576040517f08c379a000000000000000000000000000000000000000000000000000000000815260040161250990615726565b60405180910390fd5b8160008111612556576040517f08c379a000000000000000000000000000000000000000000000000000000000815260040161254d9061519a565b60405180910390fd5b61255f8461201d565b6000600560008773ffffffffffffffffffffffffffffffffffffffff1673ffffffffffffffffffffffffffffffffffffffff16815260200190815260200160002060008673ffffffffffffffffffffffffffffffffffffffff1673ffffffffffffffffffffffffffffffffffffffff16815260200190815260200160002090506000600260008773ffffffffffffffffffffffffffffffffffffffff1673ffffffffffffffffffffffffffffffffffffffff1681526020019081526020016000209050600061262e88886145b0565b905085811015612673576040517f08c379a000000000000000000000000000000000000000000000000000000000815260040161266a90615792565b60405180910390fd5b600086826126819190615255565b9050600081036126a45760008460000181905550600084600301819055506126bb565b808460000181905550826004015484600301819055505b868360010160008282546126cf9190615255565b9250508190555061270186888a73ffffffffffffffffffffffffffffffffffffffff1661483b9092919063ffffffff16565b8773ffffffffffffffffffffffffffffffffffffffff168973ffffffffffffffffffffffffffffffffffffffff167f1284277b7d46f4a42632238bce8963722a8d26209ca7aa951d890666eb5156ea8960405161275e9190614ea4565b60405180910390a3505050505050505050565b6005602052816000526040600020602052806000526040600020600091509150508060000154908060010154908060020154908060030154905084565b6060600380548060200260200160405190810160405280929190818152602001828054801561283257602002820191906000526020600020905b8160009054906101000a900473ffffffffffffffffffffffffffffffffffffffff1673ffffffffffffffffffffffffffffffffffffffff16815260200190600101908083116127e8575b5050505050905090565b600080600260008573ffffffffffffffffffffffffffffffffffffffff1673ffffffffffffffffffffffffffffffffffffffff16815260200190815260200160002060000160009054906101000a900460ff166128ce576040517f08c379a00000000000000000000000000000000000000000000000000000000081526004016128c5906150ec565b60405180910390fd5b60008311612911576040517f08c379a00000000000000000000000000000000000000000000000000000000081526004016129089061519a565b60405180910390fd5b61291a85611781565b9050809250506000600a60009054906101000a900473ffffffffffffffffffffffffffffffffffffffff1673ffffffffffffffffffffffffffffffffffffffff166341976e09866040518263ffffffff1660e01b815260040161297d9190614c6e565b602060405180830381865afa15801561299a573d6000803e3d6000fd5b505050506040513d601f19601f820116820180604052508101906129be9190615121565b905060008573ffffffffffffffffffffffffffffffffffffffff1663313ce5676040518163ffffffff1660e01b8152600401602060405180830381865afa158015612a0d573d6000803e3d6000fd5b505050506040513d601f19601f82011682018060405250810190612a3191906152f6565b60ff1690506000670de0b6b3a7640000826012612a4e9190615255565b600a612a5a9190615456565b8785612a6691906154a1565b612a7091906154a1565b612a7a9190615512565b9050808511612a8a576000612a97565b8085612a969190615255565b5b9350505050935093915050565b600080600080600260008773ffffffffffffffffffffffffffffffffffffffff1673ffffffffffffffffffffffffffffffffffffffff16815260200190815260200160002060000160009054906101000a900460ff16612b39576040517f08c379a0000000000000000000000000000000000000000000000000000000008152600401612b30906150ec565b60405180910390fd5b60008511612b7c576040517f08c379a0000000000000000000000000000000000000000000000000000000008152600401612b739061519a565b60405180910390fd5b612b8587611781565b80945081955050506000600a60009054906101000a900473ffffffffffffffffffffffffffffffffffffffff1673ffffffffffffffffffffffffffffffffffffffff166341976e09886040518263ffffffff1660e01b8152600401612bea9190614c6e565b602060405180830381865afa158015612c07573d6000803e3d6000fd5b505050506040513d601f19601f82011682018060405250810190612c2b9190615121565b905060008773ffffffffffffffffffffffffffffffffffffffff1663313ce5676040518163ffffffff1660e01b8152600401602060405180830381865afa158015612c7a573d6000803e3d6000fd5b505050506040513d601f19601f82011682018060405250810190612c9e91906152f6565b60ff1690506000670de0b6b3a7640000826012612cbb9190615255565b600a612cc79190615456565b8985612cd391906154a1565b612cdd91906154a1565b612ce79190615512565b9050808711612cf7576000612d04565b8087612d039190615255565b5b945060008603612d36577fffffffffffffffffffffffffffffffffffffffffffffffffffffffffffffffff9350612de6565b6000600960009054906101000a900473ffffffffffffffffffffffffffffffffffffffff1673ffffffffffffffffffffffffffffffffffffffff16634031234c6040518163ffffffff1660e01b8152600401602060405180830381865afa158015612da5573d6000803e3d6000fd5b505050506040513d601f19601f82011682018060405250810190612dc99190615121565b9050868187612dd891906154a1565b612de29190615512565b9450505b50505093509350935093565b6000612dfe83836145b0565b905092915050565b600b60003373ffffffffffffffffffffffffffffffffffffffff1673ffffffffffffffffffffffffffffffffffffffff16815260200190815260200160002060009054906101000a900460ff16612e92576040517f08c379a0000000000000000000000000000000000000000000000000000000008152600401612e8990615659565b60405180910390fd5b8060088190555050565b600a60009054906101000a900473ffffffffffffffffffffffffffffffffffffffff1681565b60066020528160005260406000208181548110612ede57600080fd5b906000526020600020016000915091509054906101000a900473ffffffffffffffffffffffffffffffffffffffff1681565b60085481565b600080600080600260008773ffffffffffffffffffffffffffffffffffffffff1673ffffffffffffffffffffffffffffffffffffffff16815260200190815260200160002060000160009054906101000a900460ff16612fab576040517f08c379a0000000000000000000000000000000000000000000000000000000008152600401612fa2906150ec565b60405180910390fd5b60008511612fee576040517f08c379a0000000000000000000000000000000000000000000000000000000008152600401612fe59061519a565b60405180910390fd5b612ff787611781565b80945081955050506000600a60009054906101000a900473ffffffffffffffffffffffffffffffffffffffff1673ffffffffffffffffffffffffffffffffffffffff166341976e09886040518263ffffffff1660e01b815260040161305c9190614c6e565b602060405180830381865afa158015613079573d6000803e3d6000fd5b505050506040513d601f19601f8201168201806040525081019061309d9190615121565b905060008773ffffffffffffffffffffffffffffffffffffffff1663313ce5676040518163ffffffff1660e01b8152600401602060405180830381865afa1580156130ec573d6000803e3d6000fd5b505050506040513d601f19601f8201168201806040525081019061311091906152f6565b60ff1690506000670de0b6b3a764000082601261312d9190615255565b600a6131399190615456565b898561314591906154a1565b61314f91906154a1565b6131599190615512565b905080866131679190615289565b945060008503613199577fffffffffffffffffffffffffffffffffffffffffffffffffffffffffffffffff9350613249565b6000600960009054906101000a900473ffffffffffffffffffffffffffffffffffffffff1673ffffffffffffffffffffffffffffffffffffffff16634031234c6040518163ffffffff1660e01b8152600401602060405180830381865afa158015613208573d6000803e3d6000fd5b505050506040513d601f19601f8201168201806040525081019061322c9190615121565b905085818961323b91906154a1565b6132459190615512565b9450505b50505093509350935093565b600b60003373ffffffffffffffffffffffffffffffffffffffff1673ffffffffffffffffffffffffffffffffffffffff16815260200190815260200160002060009054906101000a900460ff166132e1576040517f08c379a00000000000000000000000000000000000000000000000000000000081526004016132d890615659565b60405180910390fd5b600460008373ffffffffffffffffffffffffffffffffffffffff1673ffffffffffffffffffffffffffffffffffffffff16815260200190815260200160002060009054906101000a900460ff1615613462576001600260008473ffffffffffffffffffffffffffffffffffffffff1673ffffffffffffffffffffffffffffffffffffffff16815260200190815260200160002060000160006101000a81548160ff02191690831515021790555080600260008473ffffffffffffffffffffffffffffffffffffffff1673ffffffffffffffffffffffffffffffffffffffff16815260200190815260200160002060060160006101000a81548173ffffffffffffffffffffffffffffffffffffffff021916908373ffffffffffffffffffffffffffffffffffffffff1602179055508173ffffffffffffffffffffffffffffffffffffffff167f62bc9d008146dc27aff44047da56481285a473589f73d0af9c60cbc661551c9e826040516134559190614c6e565b60405180910390a26136a5565b6040518060e001604052806001151581526020016000815260200160008152602001670de0b6b3a76400008152602001670de0b6b3a764000081526020014281526020018273ffffffffffffffffffffffffffffffffffffffff16815250600260008473ffffffffffffffffffffffffffffffffffffffff1673ffffffffffffffffffffffffffffffffffffffff16815260200190815260200160002060008201518160000160006101000a81548160ff0219169083151502179055506020820151816001015560408201518160020155606082015181600301556080820151816004015560a0820151816005015560c08201518160060160006101000a81548173ffffffffffffffffffffffffffffffffffffffff021916908373ffffffffffffffffffffffffffffffffffffffff1602179055509050506003829080600181540180825580915050600190039060005260206000200160009091909190916101000a81548173ffffffffffffffffffffffffffffffffffffffff021916908373ffffffffffffffffffffffffffffffffffffffff1602179055506001600460008473ffffffffffffffffffffffffffffffffffffffff1673ffffffffffffffffffffffffffffffffffffffff16815260200190815260200160002060006101000a81548160ff0219169083151502179055508173ffffffffffffffffffffffffffffffffffffffff167f62bc9d008146dc27aff44047da56481285a473589f73d0af9c60cbc661551c9e8260405161369c9190614c6e565b60405180910390a25b5050565b600b60003373ffffffffffffffffffffffffffffffffffffffff1673ffffffffffffffffffffffffffffffffffffffff16815260200190815260200160002060009054906101000a900460ff16613735576040517f08c379a000000000000000000000000000000000000000000000000000000000815260040161372c90615659565b60405180910390fd5b6000600260008373ffffffffffffffffffffffffffffffffffffffff1673ffffffffffffffffffffffffffffffffffffffff16815260200190815260200160002060000160006101000a81548160ff0219169083151502179055508073ffffffffffffffffffffffffffffffffffffffff167f431398c7df2ac791d73a0dda06d7b14cea5997fd7761fd028d11195079a49eed60405160405180910390a250565b6301e1338081565b600080600260008573ffffffffffffffffffffffffffffffffffffffff1673ffffffffffffffffffffffffffffffffffffffff16815260200190815260200160002060000160009054906101000a900460ff16613870576040517f08c379a0000000000000000000000000000000000000000000000000000000008152600401613867906150ec565b60405180910390fd5b600083116138b3576040517f08c379a00000000000000000000000000000000000000000000000000000000081526004016138aa9061519a565b60405180910390fd5b6138bc85611781565b50809250506000600a60009054906101000a900473ffffffffffffffffffffffffffffffffffffffff1673ffffffffffffffffffffffffffffffffffffffff166341976e09866040518263ffffffff1660e01b815260040161391e9190614c6e565b602060405180830381865afa15801561393b573d6000803e3d6000fd5b505050506040513d601f19601f8201168201806040525081019061395f9190615121565b905060008573ffffffffffffffffffffffffffffffffffffffff1663313ce5676040518163ffffffff1660e01b8152600401602060405180830381865afa1580156139ae573d6000803e3d6000fd5b505050506040513d601f19601f820116820180604052508101906139d291906152f6565b60ff1690506000670de0b6b3a76400008260126139ef9190615255565b600a6139fb9190615456565b8785613a0791906154a1565b613a1191906154a1565b613a1b9190615512565b90508085613a299190615289565b9350505050935093915050565b670de0b6b3a764000081565b600960009054906101000a900473ffffffffffffffffffffffffffffffffffffffff1681565b613a706147b4565b600073ffffffffffffffffffffffffffffffffffffffff168173ffffffffffffffffffffffffffffffffffffffff1603613ae25760006040517f1e4fbdf7000000000000000000000000000000000000000000000000000000008152600401613ad99190614c6e565b60405180910390fd5b613aeb816148ba565b50565b613af66142db565b81600260008273ffffffffffffffffffffffffffffffffffffffff1673ffffffffffffffffffffffffffffffffffffffff16815260200190815260200160002060000160009054906101000a900460ff16613b86576040517f08c379a0000000000000000000000000000000000000000000000000000000008152600401613b7d906150ec565b60405180910390fd5b8160008111613bca576040517f08c379a0000000000000000000000000000000000000000000000000000000008152600401613bc19061519a565b60405180910390fd5b613bd38461201d565b6000600260008673ffffffffffffffffffffffffffffffffffffffff1673ffffffffffffffffffffffffffffffffffffffff16815260200190815260200160002090506000600560003373ffffffffffffffffffffffffffffffffffffffff1673ffffffffffffffffffffffffffffffffffffffff16815260200190815260200160002060008773ffffffffffffffffffffffffffffffffffffffff1673ffffffffffffffffffffffffffffffffffffffff16815260200190815260200160002090506000613ca233886145b0565b905085811015613ce7576040517f08c379a0000000000000000000000000000000000000000000000000000000008152600401613cde90615824565b60405180910390fd5b6000803073ffffffffffffffffffffffffffffffffffffffff16635ec88c79336040518263ffffffff1660e01b8152600401613d239190614c6e565b6040805180830381865afa158015613d3f573d6000803e3d6000fd5b505050506040513d601f19601f82011682018060405250810190613d639190615844565b915091506000600a60009054906101000a900473ffffffffffffffffffffffffffffffffffffffff1673ffffffffffffffffffffffffffffffffffffffff166341976e098b6040518263ffffffff1660e01b8152600401613dc49190614c6e565b602060405180830381865afa158015613de1573d6000803e3d6000fd5b505050506040513d601f19601f82011682018060405250810190613e059190615121565b905060008a73ffffffffffffffffffffffffffffffffffffffff1663313ce5676040518163ffffffff1660e01b8152600401602060405180830381865afa158015613e54573d6000803e3d6000fd5b505050506040513d601f19601f82011682018060405250810190613e7891906152f6565b60ff1690506000670de0b6b3a7640000826012613e959190615255565b600a613ea19190615456565b8c85613ead91906154a1565b613eb791906154a1565b613ec19190615512565b905083670de0b6b3a76400006008548388613edc9190615255565b613ee691906154a1565b613ef09190615512565b11613f30576040517f08c379a0000000000000000000000000000000000000000000000000000000008152600401613f279061558f565b60405180910390fd5b60008b87613f3e9190615255565b905060008103613f61576000886000018190555060008860030181905550613f78565b808860000181905550886004015488600301819055505b8b896001016000828254613f8c9190615255565b92505081905550613fbe338d8f73ffffffffffffffffffffffffffffffffffffffff1661483b9092919063ffffffff16565b8c73ffffffffffffffffffffffffffffffffffffffff163373ffffffffffffffffffffffffffffffffffffffff167f9b1bfa7fa9ee420a16e124f794c35ac9f90472acc99140eb2f6447c714cad8eb8e60405161401b9190614ea4565b60405180910390a350505050505050505050506140366145a7565b5050565b60006140468383614321565b905092915050565b600960009054906101000a900473ffffffffffffffffffffffffffffffffffffffff1673ffffffffffffffffffffffffffffffffffffffff163373ffffffffffffffffffffffffffffffffffffffff16146140de576040517f08c379a00000000000000000000000000000000000000000000000000000000081526004016140d590615726565b60405180910390fd5b8060008111614122576040517f08c379a00000000000000000000000000000000000000000000000000000000081526004016141199061519a565b60405180910390fd5b61412b8361201d565b6000600260008573ffffffffffffffffffffffffffffffffffffffff1673ffffffffffffffffffffffffffffffffffffffff16815260200190815260200160002090506000600560008773ffffffffffffffffffffffffffffffffffffffff1673ffffffffffffffffffffffffffffffffffffffff16815260200190815260200160002060008673ffffffffffffffffffffffffffffffffffffffff1673ffffffffffffffffffffffffffffffffffffffff168152602001908152602001600020905060006141fa8787614321565b90506000858261420a9190615255565b90506000810361422d576000836001018190555060008360020181905550614244565b808360010181905550836003015483600201819055505b83600301548360020181905550858460020160008282546142659190615255565b925050819055508673ffffffffffffffffffffffffffffffffffffffff168873ffffffffffffffffffffffffffffffffffffffff167f4d9046e2d939f189888c8dfb01b343ca8ff3388075b9dc3e8bcf1be618db35ad886040516142c99190614ea4565b60405180910390a35050505050505050565b600260015403614317576040517f3ee5aeb500000000000000000000000000000000000000000000000000000000815260040160405180910390fd5b6002600181905550565b600080600560008573ffffffffffffffffffffffffffffffffffffffff1673ffffffffffffffffffffffffffffffffffffffff16815260200190815260200160002060008473ffffffffffffffffffffffffffffffffffffffff1673ffffffffffffffffffffffffffffffffffffffff16815260200190815260200160002060405180608001604052908160008201548152602001600182015481526020016002820154815260200160038201548152505090506000600260008573ffffffffffffffffffffffffffffffffffffffff1673ffffffffffffffffffffffffffffffffffffffff1681526020019081526020016000206040518060e00160405290816000820160009054906101000a900460ff1615151515815260200160018201548152602001600282015481526020016003820154815260200160048201548152602001600582015481526020016006820160009054906101000a900473ffffffffffffffffffffffffffffffffffffffff1673ffffffffffffffffffffffffffffffffffffffff1673ffffffffffffffffffffffffffffffffffffffff1681525050905060008260200151036144dd5760009250505061451f565b60008260400151036144f75781602001519250505061451f565b81604001518160600151836020015161451091906154a1565b61451a9190615512565b925050505b92915050565b6145a1848573ffffffffffffffffffffffffffffffffffffffff166323b872dd86868660405160240161455a93929190615884565b604051602081830303815290604052915060e01b6020820180517bffffffffffffffffffffffffffffffffffffffffffffffffffffffff838183161783525050505061497e565b50505050565b60018081905550565b600080600560008573ffffffffffffffffffffffffffffffffffffffff1673ffffffffffffffffffffffffffffffffffffffff16815260200190815260200160002060008473ffffffffffffffffffffffffffffffffffffffff1673ffffffffffffffffffffffffffffffffffffffff16815260200190815260200160002060405180608001604052908160008201548152602001600182015481526020016002820154815260200160038201548152505090506000600260008573ffffffffffffffffffffffffffffffffffffffff1673ffffffffffffffffffffffffffffffffffffffff1681526020019081526020016000206040518060e00160405290816000820160009054906101000a900460ff1615151515815260200160018201548152602001600282015481526020016003820154815260200160048201548152602001600582015481526020016006820160009054906101000a900473ffffffffffffffffffffffffffffffffffffffff1673ffffffffffffffffffffffffffffffffffffffff1673ffffffffffffffffffffffffffffffffffffffff16815250509050600082600001510361476c576000925050506147ae565b6000826060015103614786578160000151925050506147ae565b81606001518160800151836000015161479f91906154a1565b6147a99190615512565b925050505b92915050565b6147bc614a20565b73ffffffffffffffffffffffffffffffffffffffff166147da611f85565b73ffffffffffffffffffffffffffffffffffffffff1614614839576147fd614a20565b6040517f118cdaa70000000000000000000000000000000000000000000000000000000081526004016148309190614c6e565b60405180910390fd5b565b6148b5838473ffffffffffffffffffffffffffffffffffffffff1663a9059cbb858560405160240161486e9291906158bb565b604051602081830303815290604052915060e01b6020820180517bffffffffffffffffffffffffffffffffffffffffffffffffffffffff838183161783525050505061497e565b505050565b60008060009054906101000a900473ffffffffffffffffffffffffffffffffffffffff169050816000806101000a81548173ffffffffffffffffffffffffffffffffffffffff021916908373ffffffffffffffffffffffffffffffffffffffff1602179055508173ffffffffffffffffffffffffffffffffffffffff168173ffffffffffffffffffffffffffffffffffffffff167f8be0079c531659141344cd1fd0a4f28419497f9722a3daafe3b4186f6b6457e060405160405180910390a35050565b600080602060008451602086016000885af1806149a1576040513d6000823e3d81fd5b3d9250600051915050600082146149bc5760018114156149d8565b60008473ffffffffffffffffffffffffffffffffffffffff163b145b15614a1a57836040517f5274afe7000000000000000000000000000000000000000000000000000000008152600401614a119190614c6e565b60405180910390fd5b50505050565b600033905090565b600080fd5b600073ffffffffffffffffffffffffffffffffffffffff82169050919050565b6000614a5882614a2d565b9050919050565b614a6881614a4d565b8114614a7357600080fd5b50565b600081359050614a8581614a5f565b92915050565b600060208284031215614aa157614aa0614a28565b5b6000614aaf84828501614a76565b91505092915050565b6000819050919050565b614acb81614ab8565b82525050565b600060a082019050614ae66000830188614ac2565b614af36020830187614ac2565b614b006040830186614ac2565b614b0d6060830185614ac2565b614b1a6080830184614ac2565b9695505050505050565b614b2d81614ab8565b8114614b3857600080fd5b50565b600081359050614b4a81614b24565b92915050565b60008060408385031215614b6757614b66614a28565b5b6000614b7585828601614a76565b9250506020614b8685828601614b3b565b9150509250929050565b60008115159050919050565b614ba581614b90565b82525050565b6000602082019050614bc06000830184614b9c565b92915050565b614bcf81614b90565b8114614bda57600080fd5b50565b600081359050614bec81614bc6565b92915050565b60008060408385031215614c0957614c08614a28565b5b6000614c1785828601614a76565b9250506020614c2885828601614bdd565b9150509250929050565b600060208284031215614c4857614c47614a28565b5b6000614c5684828501614b3b565b91505092915050565b614c6881614a4d565b82525050565b6000602082019050614c836000830184614c5f565b92915050565b6000604082019050614c9e6000830185614ac2565b614cab6020830184614ac2565b9392505050565b600081519050919050565b600082825260208201905092915050565b6000819050602082019050919050565b614ce781614a4d565b82525050565b6000614cf98383614cde565b60208301905092915050565b6000602082019050919050565b6000614d1d82614cb2565b614d278185614cbd565b9350614d3283614cce565b8060005b83811015614d63578151614d4a8882614ced565b9750614d5583614d05565b925050600181019050614d36565b5085935050505092915050565b600081519050919050565b600082825260208201905092915050565b6000819050602082019050919050565b614da581614ab8565b82525050565b6000614db78383614d9c565b60208301905092915050565b6000602082019050919050565b6000614ddb82614d70565b614de58185614d7b565b9350614df083614d8c565b8060005b83811015614e21578151614e088882614dab565b9750614e1383614dc3565b925050600181019050614df4565b5085935050505092915050565b600060c0820190508181036000830152614e488189614d12565b90508181036020830152614e5c8188614dd0565b90508181036040830152614e708187614dd0565b9050614e7f6060830186614ac2565b614e8c6080830185614ac2565b614e9960a0830184614ac2565b979650505050505050565b6000602082019050614eb96000830184614ac2565b92915050565b60008060408385031215614ed657614ed5614a28565b5b6000614ee485828601614a76565b9250506020614ef585828601614a76565b9150509250929050565b600060e082019050614f14600083018a614b9c565b614f216020830189614ac2565b614f2e6040830188614ac2565b614f3b6060830187614ac2565b614f486080830186614ac2565b614f5560a0830185614ac2565b614f6260c0830184614c5f565b98975050505050505050565b60008060008060808587031215614f8857614f87614a28565b5b6000614f9687828801614a76565b9450506020614fa787828801614a76565b9350506040614fb887828801614b3b565b9250506060614fc987828801614a76565b91505092959194509250565b6000608082019050614fea6000830187614ac2565b614ff76020830186614ac2565b6150046040830185614ac2565b6150116060830184614ac2565b95945050505050565b600060208201905081810360008301526150348184614d12565b905092915050565b60008060006060848603121561505557615054614a28565b5b600061506386828701614a76565b935050602061507486828701614a76565b925050604061508586828701614b3b565b9150509250925092565b600082825260208201905092915050565b7f4d61726b6574206e6f7420737570706f72746564000000000000000000000000600082015250565b60006150d660148361508f565b91506150e1826150a0565b602082019050919050565b60006020820190508181036000830152615105816150c9565b9050919050565b60008151905061511b81614b24565b92915050565b60006020828403121561513757615136614a28565b5b60006151458482850161510c565b91505092915050565b7f416d6f756e74206d7573742062652067726561746572207468616e207a65726f600082015250565b600061518460208361508f565b915061518f8261514e565b602082019050919050565b600060208201905081810360008301526151b381615177565b9050919050565b7f526570617920616d6f756e74206578636565647320626f72726f776564000000600082015250565b60006151f0601d8361508f565b91506151fb826151ba565b602082019050919050565b6000602082019050818103600083015261521f816151e3565b9050919050565b7f4e487b7100000000000000000000000000000000000000000000000000000000600052601160045260246000fd5b600061526082614ab8565b915061526b83614ab8565b925082820390508181111561528357615282615226565b5b92915050565b600061529482614ab8565b915061529f83614ab8565b92508282019050808211156152b7576152b6615226565b5b92915050565b600060ff82169050919050565b6152d3816152bd565b81146152de57600080fd5b50565b6000815190506152f0816152ca565b92915050565b60006020828403121561530c5761530b614a28565b5b600061531a848285016152e1565b91505092915050565b60008160011c9050919050565b6000808291508390505b600185111561537a5780860481111561535657615355615226565b5b60018516156153655780820291505b808102905061537385615323565b945061533a565b94509492505050565b600082615393576001905061544f565b816153a1576000905061544f565b81600181146153b757600281146153c1576153f0565b600191505061544f565b60ff8411156153d3576153d2615226565b5b8360020a9150848211156153ea576153e9615226565b5b5061544f565b5060208310610133831016604e8410600b84101617156154255782820a9050838111156154205761541f615226565b5b61544f565b6154328484846001615330565b9250905081840481111561544957615448615226565b5b81810290505b9392505050565b600061546182614ab8565b915061546c83614ab8565b92506154997fffffffffffffffffffffffffffffffffffffffffffffffffffffffffffffffff8484615383565b905092915050565b60006154ac82614ab8565b91506154b783614ab8565b92508282026154c581614ab8565b915082820484148315176154dc576154db615226565b5b5092915050565b7f4e487b7100000000000000000000000000000000000000000000000000000000600052601260045260246000fd5b600061551d82614ab8565b915061552883614ab8565b925082615538576155376154e3565b5b828204905092915050565b7f496e73756666696369656e7420636f6c6c61746572616c000000000000000000600082015250565b600061557960178361508f565b915061558482615543565b602082019050919050565b600060208201905081810360008301526155a88161556c565b9050919050565b7f4e487b7100000000000000000000000000000000000000000000000000000000600052603260045260246000fd5b7f4e487b7100000000000000000000000000000000000000000000000000000000600052604160045260246000fd5b7f4e6f7420616e2061646d696e0000000000000000000000000000000000000000600082015250565b6000615643600c8361508f565b915061564e8261560d565b602082019050919050565b6000602082019050818103600083015261567281615636565b9050919050565b600060c08201905061568e6000830189614ac2565b61569b6020830188614ac2565b6156a86040830187614ac2565b6156b56060830186614ac2565b6156c26080830185614ac2565b6156cf60a0830184614ac2565b979650505050505050565b7f4e6f74206c69717569646174696f6e20636f6e74726163740000000000000000600082015250565b600061571060188361508f565b915061571b826156da565b602082019050919050565b6000602082019050818103600083015261573f81615703565b9050919050565b7f4e6f7420656e6f75676820636f6c6c61746572616c0000000000000000000000600082015250565b600061577c60158361508f565b915061578782615746565b602082019050919050565b600060208201905081810360008301526157ab8161576f565b9050919050565b7f576974686472617720616d6f756e742065786365656473206465706f7369746560008201527f6400000000000000000000000000000000000000000000000000000000000000602082015250565b600061580e60218361508f565b9150615819826157b2565b604082019050919050565b6000602082019050818103600083015261583d81615801565b9050919050565b6000806040838503121561585b5761585a614a28565b5b60006158698582860161510c565b925050602061587a8582860161510c565b9150509250929050565b60006060820190506158996000830186614c5f565b6158a66020830185614c5f565b6158b36040830184614ac2565b949350505050565b60006040820190506158d06000830185614c5f565b6158dd6020830184614ac2565b939250505056fea26469706673582212201377ebf34a58ef69da06e60b41009eae6f7af5675fbf833b29eae2b2890a34b064736f6c634300081c0033",
  "linkReferences": {},
  "deployedLinkReferences": {}
}