{
  "_format": "hh-sol-artifact-1",
  "contractName": "PriceRouter",
  "sourceName": "contracts/PriceRouter.sol",
  "abi": [
    {
      "inputs": [
        {
          "internalType": "address",
          "name": "_myOracle",
          "type": "address"
        }
      ],
      "stateMutability": "nonpayable",
      "type": "constructor"
    },
    {
      "inputs": [
        {
          "internalType": "address",
          "name": "owner",
          "type": "address"
        }
      ],
      "name": "OwnableInvalidOwner",
      "type": "error"
    },
    {
      "inputs": [
        {
          "internalType": "address",
          "name": "account",
          "type": "address"
        }
      ],
      "name": "OwnableUnauthorizedAccount",
      "type": "error"
    },
    {
      "anonymous": false,
      "inputs": [
        {
          "indexed": true,
          "internalType": "address",
          "name": "asset",
          "type": "address"
        }
      ],
      "name": "FeedRemoved",
      "type": "event"
    },
    {
      "anonymous": false,
      "inputs": [
        {
          "indexed": true,
          "internalType": "address",
          "name": "asset",
          "type": "address"
        },
        {
          "indexed": false,
          "internalType": "address",
          "name": "feedOrToken",
          "type": "address"
        },
        {
          "indexed": false,
          "internalType": "enum PriceRouter.Source",
          "name": "source",
          "type": "uint8"
        }
      ],
      "name": "FeedSet",
      "type": "event"
    },
    {
      "anonymous": false,
      "inputs": [
        {
          "indexed": true,
          "internalType": "address",
          "name": "newMyOracle",
          "type": "address"
        }
      ],
      "name": "MyOracleUpdated",
      "type": "event"
    },
    {
      "anonymous": false,
      "inputs": [
        {
          "indexed": true,
          "internalType": "address",
          "name": "previousOwner",
          "type": "address"
        },
        {
          "indexed": true,
          "internalType": "address",
          "name": "newOwner",
          "type": "address"
        }
      ],
      "name": "OwnershipTransferred",
      "type": "event"
    },
    {
      "inputs": [
        {
          "internalType": "address",
          "name": "",
          "type": "address"
        }
      ],
      "name": "feeds",
      "outputs": [
        {
          "internalType": "enum PriceRouter.Source",
          "name": "source",
          "type": "uint8"
        },
        {
          "internalType": "address",
          "name": "feedOrToken",
          "type": "address"
        }
      ],
      "stateMutability": "view",
      "type": "function"
    },
    {
      "inputs": [
        {
          "internalType": "address",
          "name": "asset",
          "type": "address"
        }
      ],
      "name": "getPrice",
      "outputs": [
        {
          "internalType": "uint256",
          "name": "",
          "type": "uint256"
        }
      ],
      "stateMutability": "view",
      "type": "function"
    },
    {
      "inputs": [],
      "name": "myOracle",
      "outputs": [
        {
          "internalType": "address",
          "name": "",
          "type": "address"
        }
      ],
      "stateMutability": "view",
      "type": "function"
    },
    {
      "inputs": [],
      "name": "owner",
      "outputs": [
        {
          "internalType": "address",
          "name": "",
          "type": "address"
        }
      ],
      "stateMutability": "view",
      "type": "function"
    },
    {
      "inputs": [
        {
          "internalType": "address",
          "name": "asset",
          "type": "address"
        }
      ],
      "name": "removeFeed",
      "outputs": [],
      "stateMutability": "nonpayable",
      "type": "function"
    },
    {
      "inputs": [],
      "name": "renounceOwnership",
      "outputs": [],
      "stateMutability": "nonpayable",
      "type": "function"
    },
    {
      "inputs": [
        {
          "internalType": "address",
          "name": "asset",
          "type": "address"
        },
        {
          "internalType": "address",
          "name": "feed",
          "type": "address"
        }
      ],
      "name": "setChainlinkFeed",
      "outputs": [],
      "stateMutability": "nonpayable",
      "type": "function"
    },
    {
      "inputs": [
        {
          "internalType": "address",
          "name": "_myOracle",
          "type": "address"
        }
      ],
      "name": "setMyOracle",
      "outputs": [],
      "stateMutability": "nonpayable",
      "type": "function"
    },
    {
      "inputs": [
        {
          "internalType": "address",
          "name": "asset",
          "type": "address"
        }
      ],
      "name": "setMyOracleFeed",
      "outputs": [],
      "stateMutability": "nonpayable",
      "type": "function"
    },
    {
      "inputs": [
        {
          "internalType": "address",
          "name": "newOwner",
          "type": "address"
        }
      ],
      "name": "transferOwnership",
      "outputs": [],
      "stateMutability": "nonpayable",
      "type": "function"
    }
  ],
  "bytecode": "0x608060405234801561001057600080fd5b506040516118a63803806118a683398181016040528101906100329190610223565b33600073ffffffffffffffffffffffffffffffffffffffff168173ffffffffffffffffffffffffffffffffffffffff16036100a55760006040517f1e4fbdf700000000000000000000000000000000000000000000000000000000815260040161009c919061025f565b60405180910390fd5b6100b4816100fc60201b60201c565b5080600260006101000a81548173ffffffffffffffffffffffffffffffffffffffff021916908373ffffffffffffffffffffffffffffffffffffffff1602179055505061027a565b60008060009054906101000a900473ffffffffffffffffffffffffffffffffffffffff169050816000806101000a81548173ffffffffffffffffffffffffffffffffffffffff021916908373ffffffffffffffffffffffffffffffffffffffff1602179055508173ffffffffffffffffffffffffffffffffffffffff168173ffffffffffffffffffffffffffffffffffffffff167f8be0079c531659141344cd1fd0a4f28419497f9722a3daafe3b4186f6b6457e060405160405180910390a35050565b600080fd5b600073ffffffffffffffffffffffffffffffffffffffff82169050919050565b60006101f0826101c5565b9050919050565b610200816101e5565b811461020b57600080fd5b50565b60008151905061021d816101f7565b92915050565b600060208284031215610239576102386101c0565b5b60006102478482850161020e565b91505092915050565b610259816101e5565b82525050565b60006020820190506102746000830184610250565b92915050565b61161d806102896000396000f3fe608060405234801561001057600080fd5b506004361061009e5760003560e01c8063715018a611610066578063715018a6146101585780638da5cb5b146101625780639827c5ed14610180578063dfe562ab1461019c578063f2fde38b146101ba5761009e565b80632fba4aa9146100a357806341976e09146100d45780634b90fd69146101045780635adb70781461012057806369ef32d21461013c575b600080fd5b6100bd60048036038101906100b89190610e53565b6101d6565b6040516100cb929190610f06565b60405180910390f35b6100ee60048036038101906100e99190610e53565b610227565b6040516100fb9190610f48565b60405180910390f35b61011e60048036038101906101199190610e53565b610739565b005b61013a60048036038101906101359190610e53565b61087e565b005b61015660048036038101906101519190610f63565b6109d1565b005b610160610b25565b005b61016a610b39565b6040516101779190610fa3565b60405180910390f35b61019a60048036038101906101959190610e53565b610b62565b005b6101a4610bf1565b6040516101b19190610fa3565b60405180910390f35b6101d460048036038101906101cf9190610e53565b610c17565b005b60016020528060005260406000206000915090508060000160009054906101000a900460ff16908060000160019054906101000a900473ffffffffffffffffffffffffffffffffffffffff16905082565b600060028081111561023c5761023b610e80565b5b600160008473ffffffffffffffffffffffffffffffffffffffff1673ffffffffffffffffffffffffffffffffffffffff16815260200190815260200160002060000160009054906101000a900460ff16600281111561029e5761029d610e80565b5b036102de576040517f08c379a00000000000000000000000000000000000000000000000000000000081526004016102d59061101b565b60405180910390fd5b6000600160008473ffffffffffffffffffffffffffffffffffffffff1673ffffffffffffffffffffffffffffffffffffffff1681526020019081526020016000206040518060400160405290816000820160009054906101000a900460ff16600281111561034f5761034e610e80565b5b600281111561036157610360610e80565b5b81526020016000820160019054906101000a900473ffffffffffffffffffffffffffffffffffffffff1673ffffffffffffffffffffffffffffffffffffffff1673ffffffffffffffffffffffffffffffffffffffff16815250509050600060028111156103d1576103d0610e80565b5b816000015160028111156103e8576103e7610e80565b5b0361054a5760008160200151905060008173ffffffffffffffffffffffffffffffffffffffff1663feaf968c6040518163ffffffff1660e01b815260040160a060405180830381865afa158015610443573d6000803e3d6000fd5b505050506040513d601f19601f8201168201806040525081019061046791906110df565b50505091505060008573ffffffffffffffffffffffffffffffffffffffff1663313ce5676040518163ffffffff1660e01b8152600401602060405180830381865afa1580156104ba573d6000803e3d6000fd5b505050506040513d601f19601f820116820180604052508101906104de9190611193565b60ff1690506012811115610517576012816104f991906111ef565b600a6105059190611356565b8261051091906113d0565b915061053e565b80601261052491906111ef565b600a6105309190611356565b8261053b919061143a565b91505b81945050505050610734565b6001600281111561055e5761055d610e80565b5b8160000151600281111561057557610574610e80565b5b036106f9576000600260009054906101000a900473ffffffffffffffffffffffffffffffffffffffff1673ffffffffffffffffffffffffffffffffffffffff1663a27b9d4583602001516040518263ffffffff1660e01b81526004016105db9190610fa3565b602060405180830381865afa1580156105f8573d6000803e3d6000fd5b505050506040513d601f19601f8201168201806040525081019061061c91906114b2565b905060008473ffffffffffffffffffffffffffffffffffffffff1663313ce5676040518163ffffffff1660e01b8152600401602060405180830381865afa15801561066b573d6000803e3d6000fd5b505050506040513d601f19601f8201168201806040525081019061068f9190611193565b60ff16905060128111156106cb576012816106aa91906111ef565b600a6106b69190611356565b826106c191906114df565b9350505050610734565b8060126106d891906111ef565b600a6106e49190611356565b826106ef9190611510565b9350505050610734565b6040517f08c379a000000000000000000000000000000000000000000000000000000000815260040161072b9061159e565b60405180910390fd5b919050565b610741610c9d565b604051806040016040528060028081111561075f5761075e610e80565b5b8152602001600073ffffffffffffffffffffffffffffffffffffffff16815250600160008373ffffffffffffffffffffffffffffffffffffffff1673ffffffffffffffffffffffffffffffffffffffff16815260200190815260200160002060008201518160000160006101000a81548160ff021916908360028111156107e9576107e8610e80565b5b021790555060208201518160000160016101000a81548173ffffffffffffffffffffffffffffffffffffffff021916908373ffffffffffffffffffffffffffffffffffffffff1602179055509050508073ffffffffffffffffffffffffffffffffffffffff167f80502f8484874852e0b4f9360dc6004a3fc5a00fa2b3339ebfdc1a419ceb7dac60405160405180910390a250565b610886610c9d565b6040518060400160405280600160028111156108a5576108a4610e80565b5b81526020018273ffffffffffffffffffffffffffffffffffffffff16815250600160008373ffffffffffffffffffffffffffffffffffffffff1673ffffffffffffffffffffffffffffffffffffffff16815260200190815260200160002060008201518160000160006101000a81548160ff0219169083600281111561092e5761092d610e80565b5b021790555060208201518160000160016101000a81548173ffffffffffffffffffffffffffffffffffffffff021916908373ffffffffffffffffffffffffffffffffffffffff1602179055509050508073ffffffffffffffffffffffffffffffffffffffff167f9a6540abae93f33c1cc5a551b4fb45da46516bfb3ca5cb1f9114d9ccfe3e07838260016040516109c69291906115be565b60405180910390a250565b6109d9610c9d565b6040518060400160405280600060028111156109f8576109f7610e80565b5b81526020018273ffffffffffffffffffffffffffffffffffffffff16815250600160008473ffffffffffffffffffffffffffffffffffffffff1673ffffffffffffffffffffffffffffffffffffffff16815260200190815260200160002060008201518160000160006101000a81548160ff02191690836002811115610a8157610a80610e80565b5b021790555060208201518160000160016101000a81548173ffffffffffffffffffffffffffffffffffffffff021916908373ffffffffffffffffffffffffffffffffffffffff1602179055509050508173ffffffffffffffffffffffffffffffffffffffff167f9a6540abae93f33c1cc5a551b4fb45da46516bfb3ca5cb1f9114d9ccfe3e0783826000604051610b199291906115be565b60405180910390a25050565b610b2d610c9d565b610b376000610d24565b565b60008060009054906101000a900473ffffffffffffffffffffffffffffffffffffffff16905090565b610b6a610c9d565b80600260006101000a81548173ffffffffffffffffffffffffffffffffffffffff021916908373ffffffffffffffffffffffffffffffffffffffff1602179055508073ffffffffffffffffffffffffffffffffffffffff167ff0df0505667f3a54d39fd32b5fd5784c95d32f8f599fbb12a2c98367aaadba5160405160405180910390a250565b600260009054906101000a900473ffffffffffffffffffffffffffffffffffffffff1681565b610c1f610c9d565b600073ffffffffffffffffffffffffffffffffffffffff168173ffffffffffffffffffffffffffffffffffffffff1603610c915760006040517f1e4fbdf7000000000000000000000000000000000000000000000000000000008152600401610c889190610fa3565b60405180910390fd5b610c9a81610d24565b50565b610ca5610de8565b73ffffffffffffffffffffffffffffffffffffffff16610cc3610b39565b73ffffffffffffffffffffffffffffffffffffffff1614610d2257610ce6610de8565b6040517f118cdaa7000000000000000000000000000000000000000000000000000000008152600401610d199190610fa3565b60405180910390fd5b565b60008060009054906101000a900473ffffffffffffffffffffffffffffffffffffffff169050816000806101000a81548173ffffffffffffffffffffffffffffffffffffffff021916908373ffffffffffffffffffffffffffffffffffffffff1602179055508173ffffffffffffffffffffffffffffffffffffffff168173ffffffffffffffffffffffffffffffffffffffff167f8be0079c531659141344cd1fd0a4f28419497f9722a3daafe3b4186f6b6457e060405160405180910390a35050565b600033905090565b600080fd5b600073ffffffffffffffffffffffffffffffffffffffff82169050919050565b6000610e2082610df5565b9050919050565b610e3081610e15565b8114610e3b57600080fd5b50565b600081359050610e4d81610e27565b92915050565b600060208284031215610e6957610e68610df0565b5b6000610e7784828501610e3e565b91505092915050565b7f4e487b7100000000000000000000000000000000000000000000000000000000600052602160045260246000fd5b60038110610ec057610ebf610e80565b5b50565b6000819050610ed182610eaf565b919050565b6000610ee182610ec3565b9050919050565b610ef181610ed6565b82525050565b610f0081610e15565b82525050565b6000604082019050610f1b6000830185610ee8565b610f286020830184610ef7565b9392505050565b6000819050919050565b610f4281610f2f565b82525050565b6000602082019050610f5d6000830184610f39565b92915050565b60008060408385031215610f7a57610f79610df0565b5b6000610f8885828601610e3e565b9250506020610f9985828601610e3e565b9150509250929050565b6000602082019050610fb86000830184610ef7565b92915050565b600082825260208201905092915050565b7f4e6f207072696365206665656420617661696c61626c65000000000000000000600082015250565b6000611005601783610fbe565b915061101082610fcf565b602082019050919050565b6000602082019050818103600083015261103481610ff8565b9050919050565b600069ffffffffffffffffffff82169050919050565b61105a8161103b565b811461106557600080fd5b50565b60008151905061107781611051565b92915050565b6000819050919050565b6110908161107d565b811461109b57600080fd5b50565b6000815190506110ad81611087565b92915050565b6110bc81610f2f565b81146110c757600080fd5b50565b6000815190506110d9816110b3565b92915050565b600080600080600060a086880312156110fb576110fa610df0565b5b600061110988828901611068565b955050602061111a8882890161109e565b945050604061112b888289016110ca565b935050606061113c888289016110ca565b925050608061114d88828901611068565b9150509295509295909350565b600060ff82169050919050565b6111708161115a565b811461117b57600080fd5b50565b60008151905061118d81611167565b92915050565b6000602082840312156111a9576111a8610df0565b5b60006111b78482850161117e565b91505092915050565b7f4e487b7100000000000000000000000000000000000000000000000000000000600052601160045260246000fd5b60006111fa82610f2f565b915061120583610f2f565b925082820390508181111561121d5761121c6111c0565b5b92915050565b60008160011c9050919050565b6000808291508390505b600185111561127a57808604811115611256576112556111c0565b5b60018516156112655780820291505b808102905061127385611223565b945061123a565b94509492505050565b600082611293576001905061134f565b816112a1576000905061134f565b81600181146112b757600281146112c1576112f0565b600191505061134f565b60ff8411156112d3576112d26111c0565b5b8360020a9150848211156112ea576112e96111c0565b5b5061134f565b5060208310610133831016604e8410600b84101617156113255782820a9050838111156113205761131f6111c0565b5b61134f565b6113328484846001611230565b92509050818404811115611349576113486111c0565b5b81810290505b9392505050565b600061136182610f2f565b915061136c83610f2f565b92506113997fffffffffffffffffffffffffffffffffffffffffffffffffffffffffffffffff8484611283565b905092915050565b7f4e487b7100000000000000000000000000000000000000000000000000000000600052601260045260246000fd5b60006113db8261107d565b91506113e68361107d565b9250826113f6576113f56113a1565b5b600160000383147f80000000000000000000000000000000000000000000000000000000000000008314161561142f5761142e6111c0565b5b828205905092915050565b60006114458261107d565b91506114508361107d565b925082820261145e8161107d565b91507f80000000000000000000000000000000000000000000000000000000000000008414600084121615611496576114956111c0565b5b82820584148315176114ab576114aa6111c0565b5b5092915050565b6000602082840312156114c8576114c7610df0565b5b60006114d6848285016110ca565b91505092915050565b60006114ea82610f2f565b91506114f583610f2f565b925082611505576115046113a1565b5b828204905092915050565b600061151b82610f2f565b915061152683610f2f565b925082820261153481610f2f565b9150828204841483151761154b5761154a6111c0565b5b5092915050565b7f496e76616c696420707269636520736f75726365000000000000000000000000600082015250565b6000611588601483610fbe565b915061159382611552565b602082019050919050565b600060208201905081810360008301526115b78161157b565b9050919050565b60006040820190506115d36000830185610ef7565b6115e06020830184610ee8565b939250505056fea2646970667358221220ce1ece70359d0941fd9d9395d2795b7d63497f95a51c2973ac378ed18758b37f64736f6c634300081c0033",
  "linkReferences": {},
  "deployedLinkReferences": {}
}