{
  "_format": "hh-sol-artifact-1",
  "contractName": "LendingPool",
  "sourceName": "contracts/LendingPool.sol",
  "abi": [
    {
      "inputs": [
        {
          "internalType": "address",
          "name": "_liquidation",
          "type": "address"
        },
        {
          "internalType": "address",
          "name": "_priceRouter",
          "type": "address"
        },
        {
          "internalType": "uint256",
          "name": "_collateralFactor",
          "type": "uint256"
        }
      ],
      "stateMutability": "nonpayable",
      "type": "constructor"
    },
    {
      "inputs": [
        {
          "internalType": "address",
          "name": "owner",
          "type": "address"
        }
      ],
      "name": "OwnableInvalidOwner",
      "type": "error"
    },
    {
      "inputs": [
        {
          "internalType": "address",
          "name": "account",
          "type": "address"
        }
      ],
      "name": "OwnableUnauthorizedAccount",
      "type": "error"
    },
    {
      "inputs": [],
      "name": "ReentrancyGuardReentrantCall",
      "type": "error"
    },
    {
      "inputs": [
        {
          "internalType": "address",
          "name": "token",
          "type": "address"
        }
      ],
      "name": "SafeERC20FailedOperation",
      "type": "error"
    },
    {
      "anonymous": false,
      "inputs": [
        {
          "indexed": true,
          "internalType": "address",
          "name": "asset",
          "type": "address"
        },
        {
          "indexed": false,
          "internalType": "uint256",
          "name": "interestAccrued",
          "type": "uint256"
        },
        {
          "indexed": false,
          "internalType": "uint256",
          "name": "depositInterestAccrued",
          "type": "uint256"
        },
        {
          "indexed": false,
          "internalType": "uint256",
          "name": "newTotalBorrows",
          "type": "uint256"
        },
        {
          "indexed": false,
          "internalType": "uint256",
          "name": "newBorrowIndex",
          "type": "uint256"
        },
        {
          "indexed": false,
          "internalType": "uint256",
          "name": "newTotalDeposits",
          "type": "uint256"
        },
        {
          "indexed": false,
          "internalType": "uint256",
          "name": "newDepositIndex",
          "type": "uint256"
        }
      ],
      "name": "Accrue",
      "type": "event"
    },
    {
      "anonymous": false,
      "inputs": [
        {
          "indexed": true,
          "internalType": "address",
          "name": "admin",
          "type": "address"
        }
      ],
      "name": "AdminAdded",
      "type": "event"
    },
    {
      "anonymous": false,
      "inputs": [
        {
          "indexed": true,
          "internalType": "address",
          "name": "admin",
          "type": "address"
        }
      ],
      "name": "AdminRemoved",
      "type": "event"
    },
    {
      "anonymous": false,
      "inputs": [
        {
          "indexed": true,
          "internalType": "address",
          "name": "user",
          "type": "address"
        },
        {
          "indexed": true,
          "internalType": "address",
          "name": "asset",
          "type": "address"
        },
        {
          "indexed": false,
          "internalType": "uint256",
          "name": "amount",
          "type": "uint256"
        }
      ],
      "name": "Borrow",
      "type": "event"
    },
    {
      "anonymous": false,
      "inputs": [
        {
          "indexed": true,
          "internalType": "address",
          "name": "borrower",
          "type": "address"
        },
        {
          "indexed": true,
          "internalType": "address",
          "name": "collateralAsset",
          "type": "address"
        },
        {
          "indexed": false,
          "internalType": "uint256",
          "name": "seizeAmount",
          "type": "uint256"
        }
      ],
      "name": "CollateralSeized",
      "type": "event"
    },
    {
      "anonymous": false,
      "inputs": [
        {
          "indexed": true,
          "internalType": "address",
          "name": "user",
          "type": "address"
        },
        {
          "indexed": true,
          "internalType": "address",
          "name": "asset",
          "type": "address"
        },
        {
          "indexed": false,
          "internalType": "uint256",
          "name": "amount",
          "type": "uint256"
        }
      ],
      "name": "Deposit",
      "type": "event"
    },
    {
      "anonymous": false,
      "inputs": [
        {
          "indexed": true,
          "internalType": "address",
          "name": "asset",
          "type": "address"
        },
        {
          "indexed": false,
          "internalType": "address",
          "name": "interestRateModel",
          "type": "address"
        }
      ],
      "name": "MarketSupported",
      "type": "event"
    },
    {
      "anonymous": false,
      "inputs": [
        {
          "indexed": true,
          "internalType": "address",
          "name": "asset",
          "type": "address"
        }
      ],
      "name": "MarketUnsupported",
      "type": "event"
    },
    {
      "anonymous": false,
      "inputs": [
        {
          "indexed": true,
          "internalType": "address",
          "name": "previousOwner",
          "type": "address"
        },
        {
          "indexed": true,
          "internalType": "address",
          "name": "newOwner",
          "type": "address"
        }
      ],
      "name": "OwnershipTransferred",
      "type": "event"
    },
    {
      "anonymous": false,
      "inputs": [
        {
          "indexed": true,
          "internalType": "address",
          "name": "user",
          "type": "address"
        },
        {
          "indexed": true,
          "internalType": "address",
          "name": "asset",
          "type": "address"
        },
        {
          "indexed": false,
          "internalType": "uint256",
          "name": "amount",
          "type": "uint256"
        }
      ],
      "name": "Repay",
      "type": "event"
    },
    {
      "anonymous": false,
      "inputs": [
        {
          "indexed": true,
          "internalType": "address",
          "name": "borrower",
          "type": "address"
        },
        {
          "indexed": true,
          "internalType": "address",
          "name": "repayAsset",
          "type": "address"
        },
        {
          "indexed": false,
          "internalType": "uint256",
          "name": "repayAmount",
          "type": "uint256"
        }
      ],
      "name": "RepayFromLiquidation",
      "type": "event"
    },
    {
      "anonymous": false,
      "inputs": [
        {
          "indexed": true,
          "internalType": "address",
          "name": "user",
          "type": "address"
        },
        {
          "indexed": true,
          "internalType": "address",
          "name": "asset",
          "type": "address"
        },
        {
          "indexed": false,
          "internalType": "uint256",
          "name": "amount",
          "type": "uint256"
        }
      ],
      "name": "Withdraw",
      "type": "event"
    },
    {
      "inputs": [],
      "name": "SCALE",
      "outputs": [
        {
          "internalType": "uint256",
          "name": "",
          "type": "uint256"
        }
      ],
      "stateMutability": "view",
      "type": "function"
    },
    {
      "inputs": [],
      "name": "SECONDS_PER_YEAR",
      "outputs": [
        {
          "internalType": "uint256",
          "name": "",
          "type": "uint256"
        }
      ],
      "stateMutability": "view",
      "type": "function"
    },
    {
      "inputs": [
        {
          "internalType": "address",
          "name": "asset",
          "type": "address"
        }
      ],
      "name": "accrueInterest",
      "outputs": [],
      "stateMutability": "nonpayable",
      "type": "function"
    },
    {
      "inputs": [
        {
          "internalType": "uint256",
          "name": "",
          "type": "uint256"
        }
      ],
      "name": "allMarkets",
      "outputs": [
        {
          "internalType": "address",
          "name": "",
          "type": "address"
        }
      ],
      "stateMutability": "view",
      "type": "function"
    },
    {
      "inputs": [
        {
          "internalType": "address",
          "name": "asset",
          "type": "address"
        },
        {
          "internalType": "uint256",
          "name": "amount",
          "type": "uint256"
        }
      ],
      "name": "borrow",
      "outputs": [],
      "stateMutability": "nonpayable",
      "type": "function"
    },
    {
      "inputs": [],
      "name": "collateralFactor",
      "outputs": [
        {
          "internalType": "uint256",
          "name": "",
          "type": "uint256"
        }
      ],
      "stateMutability": "view",
      "type": "function"
    },
    {
      "inputs": [
        {
          "internalType": "address",
          "name": "asset",
          "type": "address"
        },
        {
          "internalType": "uint256",
          "name": "amount",
          "type": "uint256"
        }
      ],
      "name": "deposit",
      "outputs": [],
      "stateMutability": "nonpayable",
      "type": "function"
    },
    {
      "inputs": [
        {
          "internalType": "address",
          "name": "user",
          "type": "address"
        }
      ],
      "name": "getAccountLiquidity",
      "outputs": [
        {
          "internalType": "uint256",
          "name": "totalDepositedUSD",
          "type": "uint256"
        },
        {
          "internalType": "uint256",
          "name": "totalBorrowedUSD",
          "type": "uint256"
        }
      ],
      "stateMutability": "view",
      "type": "function"
    },
    {
      "inputs": [],
      "name": "getAllMarkets",
      "outputs": [
        {
          "internalType": "address[]",
          "name": "",
          "type": "address[]"
        }
      ],
      "stateMutability": "view",
      "type": "function"
    },
    {
      "inputs": [
        {
          "internalType": "address",
          "name": "asset",
          "type": "address"
        }
      ],
      "name": "getMarketInfo",
      "outputs": [
        {
          "internalType": "uint256",
          "name": "totalDeposits",
          "type": "uint256"
        },
        {
          "internalType": "uint256",
          "name": "totalBorrows",
          "type": "uint256"
        },
        {
          "internalType": "uint256",
          "name": "depositRate",
          "type": "uint256"
        },
        {
          "internalType": "uint256",
          "name": "borrowRate",
          "type": "uint256"
        },
        {
          "internalType": "uint256",
          "name": "utilizationRate",
          "type": "uint256"
        }
      ],
      "stateMutability": "view",
      "type": "function"
    },
    {
      "inputs": [
        {
          "internalType": "address",
          "name": "user",
          "type": "address"
        },
        {
          "internalType": "address",
          "name": "asset",
          "type": "address"
        }
      ],
      "name": "getUserCurrentBorrow",
      "outputs": [
        {
          "internalType": "uint256",
          "name": "",
          "type": "uint256"
        }
      ],
      "stateMutability": "view",
      "type": "function"
    },
    {
      "inputs": [
        {
          "internalType": "address",
          "name": "user",
          "type": "address"
        },
        {
          "internalType": "address",
          "name": "asset",
          "type": "address"
        }
      ],
      "name": "getUserCurrentDeposit",
      "outputs": [
        {
          "internalType": "uint256",
          "name": "",
          "type": "uint256"
        }
      ],
      "stateMutability": "view",
      "type": "function"
    },
    {
      "inputs": [
        {
          "internalType": "address",
          "name": "user",
          "type": "address"
        }
      ],
      "name": "getUserInfo",
      "outputs": [
        {
          "internalType": "address[]",
          "name": "assets",
          "type": "address[]"
        },
        {
          "internalType": "uint256[]",
          "name": "deposited",
          "type": "uint256[]"
        },
        {
          "internalType": "uint256[]",
          "name": "borrowed",
          "type": "uint256[]"
        },
        {
          "internalType": "uint256",
          "name": "totalDeposited",
          "type": "uint256"
        },
        {
          "internalType": "uint256",
          "name": "totalBorrowedUSD",
          "type": "uint256"
        },
        {
          "internalType": "uint256",
          "name": "healthFactor",
          "type": "uint256"
        }
      ],
      "stateMutability": "view",
      "type": "function"
    },
    {
      "inputs": [
        {
          "internalType": "address",
          "name": "asset",
          "type": "address"
        }
      ],
      "name": "getUtilizationRate",
      "outputs": [
        {
          "internalType": "uint256",
          "name": "",
          "type": "uint256"
        }
      ],
      "stateMutability": "view",
      "type": "function"
    },
    {
      "inputs": [
        {
          "internalType": "address",
          "name": "",
          "type": "address"
        }
      ],
      "name": "isAdmin",
      "outputs": [
        {
          "internalType": "bool",
          "name": "",
          "type": "bool"
        }
      ],
      "stateMutability": "view",
      "type": "function"
    },
    {
      "inputs": [],
      "name": "liquidation",
      "outputs": [
        {
          "internalType": "address",
          "name": "",
          "type": "address"
        }
      ],
      "stateMutability": "view",
      "type": "function"
    },
    {
      "inputs": [
        {
          "internalType": "address",
          "name": "",
          "type": "address"
        }
      ],
      "name": "markets",
      "outputs": [
        {
          "internalType": "bool",
          "name": "isSupported",
          "type": "bool"
        },
        {
          "internalType": "uint256",
          "name": "totalDeposits",
          "type": "uint256"
        },
        {
          "internalType": "uint256",
          "name": "totalBorrows",
          "type": "uint256"
        },
        {
          "internalType": "uint256",
          "name": "borrowIndex",
          "type": "uint256"
        },
        {
          "internalType": "uint256",
          "name": "depositIndex",
          "type": "uint256"
        },
        {
          "internalType": "uint256",
          "name": "lastUpdateTimestamp",
          "type": "uint256"
        },
        {
          "internalType": "address",
          "name": "interestRateModel",
          "type": "address"
        }
      ],
      "stateMutability": "view",
      "type": "function"
    },
    {
      "inputs": [],
      "name": "owner",
      "outputs": [
        {
          "internalType": "address",
          "name": "",
          "type": "address"
        }
      ],
      "stateMutability": "view",
      "type": "function"
    },
    {
      "inputs": [
        {
          "internalType": "address",
          "name": "user",
          "type": "address"
        },
        {
          "internalType": "address",
          "name": "asset",
          "type": "address"
        },
        {
          "internalType": "uint256",
          "name": "amount",
          "type": "uint256"
        }
      ],
      "name": "preViewBorrow",
      "outputs": [
        {
          "internalType": "uint256",
          "name": "totalDepositedUSD",
          "type": "uint256"
        },
        {
          "internalType": "uint256",
          "name": "totalBorrowedUSD",
          "type": "uint256"
        },
        {
          "internalType": "uint256",
          "name": "newBorrowUSD",
          "type": "uint256"
        },
        {
          "internalType": "uint256",
          "name": "newHealthFactor",
          "type": "uint256"
        }
      ],
      "stateMutability": "view",
      "type": "function"
    },
    {
      "inputs": [
        {
          "internalType": "address",
          "name": "user",
          "type": "address"
        },
        {
          "internalType": "address",
          "name": "asset",
          "type": "address"
        },
        {
          "internalType": "uint256",
          "name": "amount",
          "type": "uint256"
        }
      ],
      "name": "preViewDeposit",
      "outputs": [
        {
          "internalType": "uint256",
          "name": "totalDepositedUSD",
          "type": "uint256"
        },
        {
          "internalType": "uint256",
          "name": "newDepositedUSD",
          "type": "uint256"
        }
      ],
      "stateMutability": "view",
      "type": "function"
    },
    {
      "inputs": [
        {
          "internalType": "address",
          "name": "user",
          "type": "address"
        },
        {
          "internalType": "address",
          "name": "asset",
          "type": "address"
        },
        {
          "internalType": "uint256",
          "name": "amount",
          "type": "uint256"
        }
      ],
      "name": "preViewRepay",
      "outputs": [
        {
          "internalType": "uint256",
          "name": "totalBorrowedUSD",
          "type": "uint256"
        },
        {
          "internalType": "uint256",
          "name": "newBorrowedUSD",
          "type": "uint256"
        }
      ],
      "stateMutability": "view",
      "type": "function"
    },
    {
      "inputs": [
        {
          "internalType": "address",
          "name": "user",
          "type": "address"
        },
        {
          "internalType": "address",
          "name": "asset",
          "type": "address"
        },
        {
          "internalType": "uint256",
          "name": "amount",
          "type": "uint256"
        }
      ],
      "name": "preViewWithdraw",
      "outputs": [
        {
          "internalType": "uint256",
          "name": "totalDepositedUSD",
          "type": "uint256"
        },
        {
          "internalType": "uint256",
          "name": "totalBorrowedUSD",
          "type": "uint256"
        },
        {
          "internalType": "uint256",
          "name": "newDepositedUSD",
          "type": "uint256"
        },
        {
          "internalType": "uint256",
          "name": "newHealthFactor",
          "type": "uint256"
        }
      ],
      "stateMutability": "view",
      "type": "function"
    },
    {
      "inputs": [],
      "name": "priceRouter",
      "outputs": [
        {
          "internalType": "address",
          "name": "",
          "type": "address"
        }
      ],
      "stateMutability": "view",
      "type": "function"
    },
    {
      "inputs": [],
      "name": "renounceOwnership",
      "outputs": [],
      "stateMutability": "nonpayable",
      "type": "function"
    },
    {
      "inputs": [
        {
          "internalType": "address",
          "name": "asset",
          "type": "address"
        },
        {
          "internalType": "uint256",
          "name": "amount",
          "type": "uint256"
        }
      ],
      "name": "repay",
      "outputs": [],
      "stateMutability": "nonpayable",
      "type": "function"
    },
    {
      "inputs": [
        {
          "internalType": "address",
          "name": "borrower",
          "type": "address"
        },
        {
          "internalType": "address",
          "name": "repayAsset",
          "type": "address"
        },
        {
          "internalType": "uint256",
          "name": "repayAmount",
          "type": "uint256"
        }
      ],
      "name": "repayFromLiquidation",
      "outputs": [],
      "stateMutability": "nonpayable",
      "type": "function"
    },
    {
      "inputs": [
        {
          "internalType": "address",
          "name": "borrower",
          "type": "address"
        },
        {
          "internalType": "address",
          "name": "collateralAsset",
          "type": "address"
        },
        {
          "internalType": "uint256",
          "name": "seizeAmount",
          "type": "uint256"
        },
        {
          "internalType": "address",
          "name": "recipient",
          "type": "address"
        }
      ],
      "name": "seizeCollateral",
      "outputs": [],
      "stateMutability": "nonpayable",
      "type": "function"
    },
    {
      "inputs": [
        {
          "internalType": "address",
          "name": "admin",
          "type": "address"
        },
        {
          "internalType": "bool",
          "name": "allowed",
          "type": "bool"
        }
      ],
      "name": "setAdmin",
      "outputs": [],
      "stateMutability": "nonpayable",
      "type": "function"
    },
    {
      "inputs": [
        {
          "internalType": "uint256",
          "name": "_collateralFactor",
          "type": "uint256"
        }
      ],
      "name": "setCollateralParams",
      "outputs": [],
      "stateMutability": "nonpayable",
      "type": "function"
    },
    {
      "inputs": [
        {
          "internalType": "address",
          "name": "_liquidation",
          "type": "address"
        }
      ],
      "name": "setLiquidation",
      "outputs": [],
      "stateMutability": "nonpayable",
      "type": "function"
    },
    {
      "inputs": [
        {
          "internalType": "address",
          "name": "_priceRouter",
          "type": "address"
        }
      ],
      "name": "setPriceRouter",
      "outputs": [],
      "stateMutability": "nonpayable",
      "type": "function"
    },
    {
      "inputs": [
        {
          "internalType": "address",
          "name": "asset",
          "type": "address"
        },
        {
          "internalType": "address",
          "name": "interestRateModel",
          "type": "address"
        }
      ],
      "name": "supportMarket",
      "outputs": [],
      "stateMutability": "nonpayable",
      "type": "function"
    },
    {
      "inputs": [
        {
          "internalType": "address",
          "name": "newOwner",
          "type": "address"
        }
      ],
      "name": "transferOwnership",
      "outputs": [],
      "stateMutability": "nonpayable",
      "type": "function"
    },
    {
      "inputs": [
        {
          "internalType": "address",
          "name": "asset",
          "type": "address"
        }
      ],
      "name": "unsupportMarket",
      "outputs": [],
      "stateMutability": "nonpayable",
      "type": "function"
    },
    {
      "inputs": [
        {
          "internalType": "address",
          "name": "",
          "type": "address"
        },
        {
          "internalType": "address",
          "name": "",
          "type": "address"
        }
      ],
      "name": "userBalances",
      "outputs": [
        {
          "internalType": "uint256",
          "name": "deposited",
          "type": "uint256"
        },
        {
          "internalType": "uint256",
          "name": "borrowed",
          "type": "uint256"
        },
        {
          "internalType": "uint256",
          "name": "borrowIndexSnapShot",
          "type": "uint256"
        },
        {
          "internalType": "uint256",
          "name": "depositIndexSnapShot",
          "type": "uint256"
        }
      ],
      "stateMutability": "view",
      "type": "function"
    },
    {
      "inputs": [
        {
          "internalType": "address",
          "name": "",
          "type": "address"
        },
        {
          "internalType": "address",
          "name": "",
          "type": "address"
        }
      ],
      "name": "userMarketExists",
      "outputs": [
        {
          "internalType": "bool",
          "name": "",
          "type": "bool"
        }
      ],
      "stateMutability": "view",
      "type": "function"
    },
    {
      "inputs": [
        {
          "internalType": "address",
          "name": "",
          "type": "address"
        },
        {
          "internalType": "uint256",
          "name": "",
          "type": "uint256"
        }
      ],
      "name": "userMarkets",
      "outputs": [
        {
          "internalType": "address",
          "name": "",
          "type": "address"
        }
      ],
      "stateMutability": "view",
      "type": "function"
    },
    {
      "inputs": [
        {
          "internalType": "address",
          "name": "asset",
          "type": "address"
        },
        {
          "internalType": "uint256",
          "name": "amount",
          "type": "uint256"
        }
      ],
      "name": "withdraw",
      "outputs": [],
      "stateMutability": "nonpayable",
      "type": "function"
    }
  ],
  "bytecode": "0x608060405234801561001057600080fd5b5060405161547438038061547483398181016040528101906100329190610302565b33600073ffffffffffffffffffffffffffffffffffffffff168173ffffffffffffffffffffffffffffffffffffffff16036100a55760006040517f1e4fbdf700000000000000000000000000000000000000000000000000000000815260040161009c9190610364565b60405180910390fd5b6100b4816101a560201b60201c565b506001808190555082600860006101000a81548173ffffffffffffffffffffffffffffffffffffffff021916908373ffffffffffffffffffffffffffffffffffffffff16021790555081600960006101000a81548173ffffffffffffffffffffffffffffffffffffffff021916908373ffffffffffffffffffffffffffffffffffffffff160217905550806007819055506001600a60003373ffffffffffffffffffffffffffffffffffffffff1673ffffffffffffffffffffffffffffffffffffffff16815260200190815260200160002060006101000a81548160ff02191690831515021790555050505061037f565b60008060009054906101000a900473ffffffffffffffffffffffffffffffffffffffff169050816000806101000a81548173ffffffffffffffffffffffffffffffffffffffff021916908373ffffffffffffffffffffffffffffffffffffffff1602179055508173ffffffffffffffffffffffffffffffffffffffff168173ffffffffffffffffffffffffffffffffffffffff167f8be0079c531659141344cd1fd0a4f28419497f9722a3daafe3b4186f6b6457e060405160405180910390a35050565b600080fd5b600073ffffffffffffffffffffffffffffffffffffffff82169050919050565b60006102998261026e565b9050919050565b6102a98161028e565b81146102b457600080fd5b50565b6000815190506102c6816102a0565b92915050565b6000819050919050565b6102df816102cc565b81146102ea57600080fd5b50565b6000815190506102fc816102d6565b92915050565b60008060006060848603121561031b5761031a610269565b5b6000610329868287016102b7565b935050602061033a868287016102b7565b925050604061034b868287016102ed565b9150509250925092565b61035e8161028e565b82525050565b60006020820190506103796000830184610355565b92915050565b6150e68061038e6000396000f3fe608060405234801561001057600080fd5b50600436106102325760003560e01c8063b0772d0b11610130578063e4f2c9ea116100b8578063f2dfbf661161007c578063f2dfbf6614610714578063f2fde38b14610732578063f3fef3a31461074e578063f429e35d1461076a578063f45c251f1461079a57610232565b8063e4f2c9ea1461066f578063e530ab2a1461068b578063e6a69ab8146106a7578063e8a92fa8146106c5578063eced5526146106f657610232565b8063d1142989116100ff578063d1142989146105b4578063d7d4bf45146105d0578063db0f871d146105ee578063df011c411461061e578063df499cdf1461063c57610232565b8063b0772d0b14610502578063bc29364314610520578063cc3325bc14610551578063ce8641881461058457610232565b8063715018a6116101be5780638e8f294b116101825780638e8f294b146104455780639198e5151461047b578063ab919ee314610497578063ace429cf146104b3578063adb51980146104cf57610232565b8063715018a6146103a15780637b6aa8bd146103ab578063837c614b146103db57806388005bdc1461040b5780638da5cb5b1461042757610232565b80634b0bddd2116102055780634b0bddd2146102d35780634b8a3529146102ef57806352d84d1e1461030b5780635ec88c791461033b5780636386c1c71461036c57610232565b80630cf85bcc1461023757806322867d781461026b57806324d7806c1461028757806347e7ef24146102b7575b600080fd5b610251600480360381019061024c919061443b565b6107b6565b604051610262959493929190614481565b60405180910390f35b61028560048036038101906102809190614500565b610a15565b005b6102a1600480360381019061029c919061443b565b610d27565b6040516102ae919061455b565b60405180910390f35b6102d160048036038101906102cc9190614500565b610d47565b005b6102ed60048036038101906102e891906145a2565b6111a0565b005b61030960048036038101906103049190614500565b611295565b005b610325600480360381019061032091906145e2565b61166d565b604051610332919061461e565b60405180910390f35b6103556004803603810190610350919061443b565b6116ac565b604051610363929190614639565b60405180910390f35b6103866004803603810190610381919061443b565b6118d4565b604051610398969594939291906147de565b60405180910390f35b6103a9611bc6565b005b6103c560048036038101906103c0919061443b565b611bda565b6040516103d29190614854565b60405180910390f35b6103f560048036038101906103f0919061486f565b611d12565b604051610402919061455b565b60405180910390f35b6104256004803603810190610420919061443b565b611d41565b005b61042f611e11565b60405161043c919061461e565b60405180910390f35b61045f600480360381019061045a919061443b565b611e3a565b60405161047297969594939291906148af565b60405180910390f35b6104956004803603810190610490919061443b565b611ea9565b005b6104b160048036038101906104ac919061443b565b61223e565b005b6104cd60048036038101906104c8919061491e565b61230e565b005b6104e960048036038101906104e4919061486f565b6125fd565b6040516104f99493929190614985565b60405180910390f35b61050a61263a565b60405161051791906149ca565b60405180910390f35b61053a600480360381019061053591906149ec565b6126c8565b604051610548929190614639565b60405180910390f35b61056b600480360381019061056691906149ec565b612896565b60405161057b9493929190614985565b60405180910390f35b61059e6004803603810190610599919061486f565b612b4a565b6040516105ab9190614854565b60405180910390f35b6105ce60048036038101906105c991906145e2565b612b5e565b005b6105d8612bf4565b6040516105e5919061461e565b60405180910390f35b61060860048036038101906106039190614500565b612c1a565b604051610615919061461e565b60405180910390f35b610626612c68565b6040516106339190614854565b60405180910390f35b610656600480360381019061065191906149ec565b612c6e565b6040516106669493929190614985565b60405180910390f35b6106896004803603810190610684919061486f565b612f13565b005b6106a560048036038101906106a0919061443b565b61318d565b005b6106af6132ba565b6040516106bc9190614854565b60405180910390f35b6106df60048036038101906106da91906149ec565b6132c2565b6040516106ed929190614639565b60405180910390f35b6106fe613480565b60405161070b9190614854565b60405180910390f35b61071c61348c565b604051610729919061461e565b60405180910390f35b61074c6004803603810190610747919061443b565b6134b2565b005b61076860048036038101906107639190614500565b613538565b005b610784600480360381019061077f919061486f565b6139ea565b6040516107919190614854565b60405180910390f35b6107b460048036038101906107af91906149ec565b6139fe565b005b600080600080600080600260008873ffffffffffffffffffffffffffffffffffffffff1673ffffffffffffffffffffffffffffffffffffffff1681526020019081526020016000206040518060e00160405290816000820160009054906101000a900460ff1615151515815260200160018201548152602001600282015481526020016003820154815260200160048201548152602001600582015481526020016006820160009054906101000a900473ffffffffffffffffffffffffffffffffffffffff1673ffffffffffffffffffffffffffffffffffffffff1673ffffffffffffffffffffffffffffffffffffffff1681525050905080600001516108f2576040517f08c379a00000000000000000000000000000000000000000000000000000000081526004016108e990614a9c565b60405180910390fd5b806020015195508060400151945061090987611bda565b91508060c0015173ffffffffffffffffffffffffffffffffffffffff1663d71275f6886040518263ffffffff1660e01b8152600401610948919061461e565b602060405180830381865afa158015610965573d6000803e3d6000fd5b505050506040513d601f19601f820116820180604052508101906109899190614ad1565b92508060c0015173ffffffffffffffffffffffffffffffffffffffff16634c8f411d886040518263ffffffff1660e01b81526004016109c8919061461e565b602060405180830381865afa1580156109e5573d6000803e3d6000fd5b505050506040513d601f19601f82011682018060405250810190610a099190614ad1565b93505091939590929450565b610a1d613c8b565b81600260008273ffffffffffffffffffffffffffffffffffffffff1673ffffffffffffffffffffffffffffffffffffffff16815260200190815260200160002060000160009054906101000a900460ff16610aad576040517f08c379a0000000000000000000000000000000000000000000000000000000008152600401610aa490614a9c565b60405180910390fd5b8160008111610af1576040517f08c379a0000000000000000000000000000000000000000000000000000000008152600401610ae890614b4a565b60405180910390fd5b610afa84611ea9565b6000600260008673ffffffffffffffffffffffffffffffffffffffff1673ffffffffffffffffffffffffffffffffffffffff16815260200190815260200160002090506000600460003373ffffffffffffffffffffffffffffffffffffffff1673ffffffffffffffffffffffffffffffffffffffff16815260200190815260200160002060008773ffffffffffffffffffffffffffffffffffffffff1673ffffffffffffffffffffffffffffffffffffffff16815260200190815260200160002090506000610bc93388613cd1565b905085811015610c0e576040517f08c379a0000000000000000000000000000000000000000000000000000000008152600401610c0590614bb6565b60405180910390fd5b600086905081811115610c1f578190505b610c4c3330838b73ffffffffffffffffffffffffffffffffffffffff16613ed5909392919063ffffffff16565b60008183610c5a9190614c05565b905060008103610c7d576000846001018190555060008460020181905550610c94565b808460010181905550846003015484600201819055505b81856002016000828254610ca89190614c05565b925050819055508873ffffffffffffffffffffffffffffffffffffffff163373ffffffffffffffffffffffffffffffffffffffff167f05f2eeda0e08e4b437f487c8d7d29b14537d15e3488170dc3de5dbdf8dac468484604051610d0c9190614854565b60405180910390a350505050505050610d23613f57565b5050565b600a6020528060005260406000206000915054906101000a900460ff1681565b610d4f613c8b565b81600260008273ffffffffffffffffffffffffffffffffffffffff1673ffffffffffffffffffffffffffffffffffffffff16815260200190815260200160002060000160009054906101000a900460ff16610ddf576040517f08c379a0000000000000000000000000000000000000000000000000000000008152600401610dd690614a9c565b60405180910390fd5b8160008111610e23576040517f08c379a0000000000000000000000000000000000000000000000000000000008152600401610e1a90614b4a565b60405180910390fd5b610e2c84611ea9565b610e593330858773ffffffffffffffffffffffffffffffffffffffff16613ed5909392919063ffffffff16565b6000600260008673ffffffffffffffffffffffffffffffffffffffff1673ffffffffffffffffffffffffffffffffffffffff16815260200190815260200160002090506000600460003373ffffffffffffffffffffffffffffffffffffffff1673ffffffffffffffffffffffffffffffffffffffff16815260200190815260200160002060008773ffffffffffffffffffffffffffffffffffffffff1673ffffffffffffffffffffffffffffffffffffffff16815260200190815260200160002090506000610f283388613f60565b90508086610f369190614c39565b82600001819055508260040154826003018190555085836001016000828254610f5f9190614c39565b92505081905550600660003373ffffffffffffffffffffffffffffffffffffffff1673ffffffffffffffffffffffffffffffffffffffff16815260200190815260200160002060008873ffffffffffffffffffffffffffffffffffffffff1673ffffffffffffffffffffffffffffffffffffffff16815260200190815260200160002060009054906101000a900460ff1661112a57600560003373ffffffffffffffffffffffffffffffffffffffff1673ffffffffffffffffffffffffffffffffffffffff168152602001908152602001600020879080600181540180825580915050600190039060005260206000200160009091909190916101000a81548173ffffffffffffffffffffffffffffffffffffffff021916908373ffffffffffffffffffffffffffffffffffffffff1602179055506001600660003373ffffffffffffffffffffffffffffffffffffffff1673ffffffffffffffffffffffffffffffffffffffff16815260200190815260200160002060008973ffffffffffffffffffffffffffffffffffffffff1673ffffffffffffffffffffffffffffffffffffffff16815260200190815260200160002060006101000a81548160ff0219169083151502179055505b8673ffffffffffffffffffffffffffffffffffffffff163373ffffffffffffffffffffffffffffffffffffffff167f5548c837ab068cf56a2c2479df0882a4922fd203edb7517321831d95078c5f62886040516111879190614854565b60405180910390a3505050505061119c613f57565b5050565b6111a8614164565b80600a60008473ffffffffffffffffffffffffffffffffffffffff1673ffffffffffffffffffffffffffffffffffffffff16815260200190815260200160002060006101000a81548160ff021916908315150217905550801561124d578173ffffffffffffffffffffffffffffffffffffffff167f44d6d25963f097ad14f29f06854a01f575648a1ef82f30e562ccd3889717e33960405160405180910390a2611291565b8173ffffffffffffffffffffffffffffffffffffffff167fa3b62bc36326052d97ea62d63c3d60308ed4c3ea8ac079dd8499f1e9c4f80c0f60405160405180910390a25b5050565b61129d613c8b565b81600260008273ffffffffffffffffffffffffffffffffffffffff1673ffffffffffffffffffffffffffffffffffffffff16815260200190815260200160002060000160009054906101000a900460ff1661132d576040517f08c379a000000000000000000000000000000000000000000000000000000000815260040161132490614a9c565b60405180910390fd5b8160008111611371576040517f08c379a000000000000000000000000000000000000000000000000000000000815260040161136890614b4a565b60405180910390fd5b61137a84611ea9565b6000600260008673ffffffffffffffffffffffffffffffffffffffff1673ffffffffffffffffffffffffffffffffffffffff16815260200190815260200160002090506000600460003373ffffffffffffffffffffffffffffffffffffffff1673ffffffffffffffffffffffffffffffffffffffff16815260200190815260200160002060008773ffffffffffffffffffffffffffffffffffffffff1673ffffffffffffffffffffffffffffffffffffffff1681526020019081526020016000209050600080611449336116ac565b915091506000600960009054906101000a900473ffffffffffffffffffffffffffffffffffffffff1673ffffffffffffffffffffffffffffffffffffffff166341976e098a6040518263ffffffff1660e01b81526004016114aa919061461e565b602060405180830381865afa1580156114c7573d6000803e3d6000fd5b505050506040513d601f19601f820116820180604052508101906114eb9190614ad1565b90506000670de0b6b3a764000089836115049190614c6d565b61150e9190614cde565b9050808361151c9190614c39565b670de0b6b3a7640000600754866115339190614c6d565b61153d9190614cde565b101561157e576040517f08c379a000000000000000000000000000000000000000000000000000000000815260040161157590614d5b565b60405180910390fd5b600061158a338c613cd1565b9050808a6115989190614c39565b866001018190555086600301548660020181905550898760020160008282546115c19190614c39565b925050819055506115f3338b8d73ffffffffffffffffffffffffffffffffffffffff166141eb9092919063ffffffff16565b8a73ffffffffffffffffffffffffffffffffffffffff163373ffffffffffffffffffffffffffffffffffffffff167f312a5e5e1079f5dda4e95dbbd0b908b291fd5b992ef22073643ab691572c5b528c6040516116509190614854565b60405180910390a3505050505050505050611669613f57565b5050565b6003818154811061167d57600080fd5b906000526020600020016000915054906101000a900473ffffffffffffffffffffffffffffffffffffffff1681565b6000806000600960009054906101000a900473ffffffffffffffffffffffffffffffffffffffff1690506000600560008673ffffffffffffffffffffffffffffffffffffffff1673ffffffffffffffffffffffffffffffffffffffff16815260200190815260200160002080548060200260200160405190810160405280929190818152602001828054801561179757602002820191906000526020600020905b8160009054906101000a900473ffffffffffffffffffffffffffffffffffffffff1673ffffffffffffffffffffffffffffffffffffffff168152602001906001019080831161174d575b5050505050905060005b81518110156118cc5760008282815181106117bf576117be614d7b565b5b6020026020010151905060006117d58883613f60565b905060006117e38984613cd1565b905060008673ffffffffffffffffffffffffffffffffffffffff166341976e09856040518263ffffffff1660e01b8152600401611820919061461e565b602060405180830381865afa15801561183d573d6000803e3d6000fd5b505050506040513d601f19601f820116820180604052508101906118619190614ad1565b9050670de0b6b3a764000083826118789190614c6d565b6118829190614cde565b8961188d9190614c39565b9850670de0b6b3a764000082826118a49190614c6d565b6118ae9190614cde565b886118b99190614c39565b97505050505080806001019150506117a1565b505050915091565b60608060606000806000600560008873ffffffffffffffffffffffffffffffffffffffff1673ffffffffffffffffffffffffffffffffffffffff16815260200190815260200160002080548060200260200160405190810160405280929190818152602001828054801561199d57602002820191906000526020600020905b8160009054906101000a900473ffffffffffffffffffffffffffffffffffffffff1673ffffffffffffffffffffffffffffffffffffffff1681526020019060010190808311611953575b505050505095506000865190508067ffffffffffffffff8111156119c4576119c3614daa565b5b6040519080825280602002602001820160405280156119f25781602001602082028036833780820191505090505b5095508067ffffffffffffffff811115611a0f57611a0e614daa565b5b604051908082528060200260200182016040528015611a3d5781602001602082028036833780820191505090505b50945060005b81811015611aca576000888281518110611a6057611a5f614d7b565b5b60200260200101519050611a748a82613f60565b888381518110611a8757611a86614d7b565b5b602002602001018181525050611a9d8a82613cd1565b878381518110611ab057611aaf614d7b565b5b602002602001018181525050508080600101915050611a43565b50611ad4886116ac565b809450819550505060008303611b0c577fffffffffffffffffffffffffffffffffffffffffffffffffffffffffffffffff9150611bbc565b6000600860009054906101000a900473ffffffffffffffffffffffffffffffffffffffff1673ffffffffffffffffffffffffffffffffffffffff16634031234c6040518163ffffffff1660e01b8152600401602060405180830381865afa158015611b7b573d6000803e3d6000fd5b505050506040513d601f19601f82011682018060405250810190611b9f9190614ad1565b9050838186611bae9190614c6d565b611bb89190614cde565b9250505b5091939550919395565b611bce614164565b611bd8600061426a565b565b600080600260008473ffffffffffffffffffffffffffffffffffffffff1673ffffffffffffffffffffffffffffffffffffffff1681526020019081526020016000206040518060e00160405290816000820160009054906101000a900460ff1615151515815260200160018201548152602001600282015481526020016003820154815260200160048201548152602001600582015481526020016006820160009054906101000a900473ffffffffffffffffffffffffffffffffffffffff1673ffffffffffffffffffffffffffffffffffffffff1673ffffffffffffffffffffffffffffffffffffffff168152505090506000816020015103611ce2576000915050611d0d565b8060200151670de0b6b3a76400008260400151611cff9190614c6d565b611d099190614cde565b9150505b919050565b60066020528160005260406000206020528060005260406000206000915091509054906101000a900460ff1681565b600a60003373ffffffffffffffffffffffffffffffffffffffff1673ffffffffffffffffffffffffffffffffffffffff16815260200190815260200160002060009054906101000a900460ff16611dcd576040517f08c379a0000000000000000000000000000000000000000000000000000000008152600401611dc490614e25565b60405180910390fd5b80600960006101000a81548173ffffffffffffffffffffffffffffffffffffffff021916908373ffffffffffffffffffffffffffffffffffffffff16021790555050565b60008060009054906101000a900473ffffffffffffffffffffffffffffffffffffffff16905090565b60026020528060005260406000206000915090508060000160009054906101000a900460ff16908060010154908060020154908060030154908060040154908060050154908060060160009054906101000a900473ffffffffffffffffffffffffffffffffffffffff16905087565b6000600260008373ffffffffffffffffffffffffffffffffffffffff1673ffffffffffffffffffffffffffffffffffffffff16815260200190815260200160002090508060000160009054906101000a900460ff16611f08575061223b565b6000816005015442611f1a9190614c05565b905060008103611f2b57505061223b565b60008260060160009054906101000a900473ffffffffffffffffffffffffffffffffffffffff16905060008173ffffffffffffffffffffffffffffffffffffffff1663d71275f6866040518263ffffffff1660e01b8152600401611f8f919061461e565b602060405180830381865afa158015611fac573d6000803e3d6000fd5b505050506040513d601f19601f82011682018060405250810190611fd09190614ad1565b905060008273ffffffffffffffffffffffffffffffffffffffff16634c8f411d876040518263ffffffff1660e01b815260040161200d919061461e565b602060405180830381865afa15801561202a573d6000803e3d6000fd5b505050506040513d601f19601f8201168201806040525081019061204e9190614ad1565b90506000670de0b6b3a76400006301e13380868589600201546120719190614c6d565b61207b9190614c6d565b6120859190614cde565b61208f9190614cde565b9050808660020160008282546120a59190614c39565b925050819055506000670de0b6b3a76400006301e1338087868a600301546120cd9190614c6d565b6120d79190614c6d565b6120e19190614cde565b6120eb9190614cde565b9050808760030160008282546121019190614c39565b925050819055506000670de0b6b3a76400006301e1338088868b600101546121299190614c6d565b6121339190614c6d565b61213d9190614cde565b6121479190614cde565b90508088600101600082825461215d9190614c39565b925050819055506000670de0b6b3a76400006301e1338089878c600401546121859190614c6d565b61218f9190614c6d565b6121999190614cde565b6121a39190614cde565b9050808960040160008282546121b99190614c39565b925050819055504289600501819055508973ffffffffffffffffffffffffffffffffffffffff167f0624d4b124e9e7b0d6a1cb1df2ff41a60fdf034c5dc080fe204f09036f6d25fa85848c600201548d600301548e600101548f6004015460405161222996959493929190614e45565b60405180910390a25050505050505050505b50565b600a60003373ffffffffffffffffffffffffffffffffffffffff1673ffffffffffffffffffffffffffffffffffffffff16815260200190815260200160002060009054906101000a900460ff166122ca576040517f08c379a00000000000000000000000000000000000000000000000000000000081526004016122c190614e25565b60405180910390fd5b80600860006101000a81548173ffffffffffffffffffffffffffffffffffffffff021916908373ffffffffffffffffffffffffffffffffffffffff16021790555050565b600860009054906101000a900473ffffffffffffffffffffffffffffffffffffffff1673ffffffffffffffffffffffffffffffffffffffff163373ffffffffffffffffffffffffffffffffffffffff161461239e576040517f08c379a000000000000000000000000000000000000000000000000000000000815260040161239590614ef2565b60405180910390fd5b81600081116123e2576040517f08c379a00000000000000000000000000000000000000000000000000000000081526004016123d990614b4a565b60405180910390fd5b6123eb84611ea9565b6000600460008773ffffffffffffffffffffffffffffffffffffffff1673ffffffffffffffffffffffffffffffffffffffff16815260200190815260200160002060008673ffffffffffffffffffffffffffffffffffffffff1673ffffffffffffffffffffffffffffffffffffffff16815260200190815260200160002090506000600260008773ffffffffffffffffffffffffffffffffffffffff1673ffffffffffffffffffffffffffffffffffffffff168152602001908152602001600020905060006124ba8888613f60565b9050858110156124ff576040517f08c379a00000000000000000000000000000000000000000000000000000000081526004016124f690614f5e565b60405180910390fd5b6000868261250d9190614c05565b905060008103612530576000846000018190555060008460030181905550612547565b808460000181905550826004015484600301819055505b8683600101600082825461255b9190614c05565b9250508190555061258d86888a73ffffffffffffffffffffffffffffffffffffffff166141eb9092919063ffffffff16565b8773ffffffffffffffffffffffffffffffffffffffff168973ffffffffffffffffffffffffffffffffffffffff167f1284277b7d46f4a42632238bce8963722a8d26209ca7aa951d890666eb5156ea896040516125ea9190614854565b60405180910390a3505050505050505050565b6004602052816000526040600020602052806000526040600020600091509150508060000154908060010154908060020154908060030154905084565b606060038054806020026020016040519081016040528092919081815260200182805480156126be57602002820191906000526020600020905b8160009054906101000a900473ffffffffffffffffffffffffffffffffffffffff1673ffffffffffffffffffffffffffffffffffffffff1681526020019060010190808311612674575b5050505050905090565b600080600260008573ffffffffffffffffffffffffffffffffffffffff1673ffffffffffffffffffffffffffffffffffffffff16815260200190815260200160002060000160009054906101000a900460ff1661275a576040517f08c379a000000000000000000000000000000000000000000000000000000000815260040161275190614a9c565b60405180910390fd5b6000831161279d576040517f08c379a000000000000000000000000000000000000000000000000000000000815260040161279490614b4a565b60405180910390fd5b6127a6856116ac565b9050809250506000600960009054906101000a900473ffffffffffffffffffffffffffffffffffffffff1673ffffffffffffffffffffffffffffffffffffffff166341976e09866040518263ffffffff1660e01b8152600401612809919061461e565b602060405180830381865afa158015612826573d6000803e3d6000fd5b505050506040513d601f19601f8201168201806040525081019061284a9190614ad1565b90506000670de0b6b3a764000085836128639190614c6d565b61286d9190614cde565b905080841161287d57600061288a565b80846128899190614c05565b5b92505050935093915050565b600080600080600260008773ffffffffffffffffffffffffffffffffffffffff1673ffffffffffffffffffffffffffffffffffffffff16815260200190815260200160002060000160009054906101000a900460ff1661292b576040517f08c379a000000000000000000000000000000000000000000000000000000000815260040161292290614a9c565b60405180910390fd5b6000851161296e576040517f08c379a000000000000000000000000000000000000000000000000000000000815260040161296590614b4a565b60405180910390fd5b612977876116ac565b80945081955050506000600960009054906101000a900473ffffffffffffffffffffffffffffffffffffffff1673ffffffffffffffffffffffffffffffffffffffff166341976e09886040518263ffffffff1660e01b81526004016129dc919061461e565b602060405180830381865afa1580156129f9573d6000803e3d6000fd5b505050506040513d601f19601f82011682018060405250810190612a1d9190614ad1565b90506000670de0b6b3a76400008783612a369190614c6d565b612a409190614cde565b9050808611612a50576000612a5d565b8086612a5c9190614c05565b5b935060008503612a8f577fffffffffffffffffffffffffffffffffffffffffffffffffffffffffffffffff9250612b3f565b6000600860009054906101000a900473ffffffffffffffffffffffffffffffffffffffff1673ffffffffffffffffffffffffffffffffffffffff16634031234c6040518163ffffffff1660e01b8152600401602060405180830381865afa158015612afe573d6000803e3d6000fd5b505050506040513d601f19601f82011682018060405250810190612b229190614ad1565b9050858186612b319190614c6d565b612b3b9190614cde565b9350505b505093509350935093565b6000612b568383613f60565b905092915050565b600a60003373ffffffffffffffffffffffffffffffffffffffff1673ffffffffffffffffffffffffffffffffffffffff16815260200190815260200160002060009054906101000a900460ff16612bea576040517f08c379a0000000000000000000000000000000000000000000000000000000008152600401612be190614e25565b60405180910390fd5b8060078190555050565b600960009054906101000a900473ffffffffffffffffffffffffffffffffffffffff1681565b60056020528160005260406000208181548110612c3657600080fd5b906000526020600020016000915091509054906101000a900473ffffffffffffffffffffffffffffffffffffffff1681565b60075481565b600080600080600260008773ffffffffffffffffffffffffffffffffffffffff1673ffffffffffffffffffffffffffffffffffffffff16815260200190815260200160002060000160009054906101000a900460ff16612d03576040517f08c379a0000000000000000000000000000000000000000000000000000000008152600401612cfa90614a9c565b60405180910390fd5b60008511612d46576040517f08c379a0000000000000000000000000000000000000000000000000000000008152600401612d3d90614b4a565b60405180910390fd5b612d4f876116ac565b80945081955050506000600960009054906101000a900473ffffffffffffffffffffffffffffffffffffffff1673ffffffffffffffffffffffffffffffffffffffff166341976e09886040518263ffffffff1660e01b8152600401612db4919061461e565b602060405180830381865afa158015612dd1573d6000803e3d6000fd5b505050506040513d601f19601f82011682018060405250810190612df59190614ad1565b90506000670de0b6b3a76400008783612e0e9190614c6d565b612e189190614cde565b90508085612e269190614c39565b935060008403612e58577fffffffffffffffffffffffffffffffffffffffffffffffffffffffffffffffff9250612f08565b6000600860009054906101000a900473ffffffffffffffffffffffffffffffffffffffff1673ffffffffffffffffffffffffffffffffffffffff16634031234c6040518163ffffffff1660e01b8152600401602060405180830381865afa158015612ec7573d6000803e3d6000fd5b505050506040513d601f19601f82011682018060405250810190612eeb9190614ad1565b9050848188612efa9190614c6d565b612f049190614cde565b9350505b505093509350935093565b600a60003373ffffffffffffffffffffffffffffffffffffffff1673ffffffffffffffffffffffffffffffffffffffff16815260200190815260200160002060009054906101000a900460ff16612f9f576040517f08c379a0000000000000000000000000000000000000000000000000000000008152600401612f9690614e25565b60405180910390fd5b6040518060e001604052806001151581526020016000815260200160008152602001670de0b6b3a76400008152602001670de0b6b3a764000081526020014281526020018273ffffffffffffffffffffffffffffffffffffffff16815250600260008473ffffffffffffffffffffffffffffffffffffffff1673ffffffffffffffffffffffffffffffffffffffff16815260200190815260200160002060008201518160000160006101000a81548160ff0219169083151502179055506020820151816001015560408201518160020155606082015181600301556080820151816004015560a0820151816005015560c08201518160060160006101000a81548173ffffffffffffffffffffffffffffffffffffffff021916908373ffffffffffffffffffffffffffffffffffffffff1602179055509050506003829080600181540180825580915050600190039060005260206000200160009091909190916101000a81548173ffffffffffffffffffffffffffffffffffffffff021916908373ffffffffffffffffffffffffffffffffffffffff1602179055508173ffffffffffffffffffffffffffffffffffffffff167f62bc9d008146dc27aff44047da56481285a473589f73d0af9c60cbc661551c9e82604051613181919061461e565b60405180910390a25050565b600a60003373ffffffffffffffffffffffffffffffffffffffff1673ffffffffffffffffffffffffffffffffffffffff16815260200190815260200160002060009054906101000a900460ff16613219576040517f08c379a000000000000000000000000000000000000000000000000000000000815260040161321090614e25565b60405180910390fd5b6000600260008373ffffffffffffffffffffffffffffffffffffffff1673ffffffffffffffffffffffffffffffffffffffff16815260200190815260200160002060000160006101000a81548160ff0219169083151502179055508073ffffffffffffffffffffffffffffffffffffffff167f431398c7df2ac791d73a0dda06d7b14cea5997fd7761fd028d11195079a49eed60405160405180910390a250565b6301e1338081565b600080600260008573ffffffffffffffffffffffffffffffffffffffff1673ffffffffffffffffffffffffffffffffffffffff16815260200190815260200160002060000160009054906101000a900460ff16613354576040517f08c379a000000000000000000000000000000000000000000000000000000000815260040161334b90614a9c565b60405180910390fd5b60008311613397576040517f08c379a000000000000000000000000000000000000000000000000000000000815260040161338e90614b4a565b60405180910390fd5b6133a0856116ac565b50809250506000600960009054906101000a900473ffffffffffffffffffffffffffffffffffffffff1673ffffffffffffffffffffffffffffffffffffffff166341976e09866040518263ffffffff1660e01b8152600401613402919061461e565b602060405180830381865afa15801561341f573d6000803e3d6000fd5b505050506040513d601f19601f820116820180604052508101906134439190614ad1565b90506000670de0b6b3a7640000858361345c9190614c6d565b6134669190614cde565b905080846134749190614c39565b92505050935093915050565b670de0b6b3a764000081565b600860009054906101000a900473ffffffffffffffffffffffffffffffffffffffff1681565b6134ba614164565b600073ffffffffffffffffffffffffffffffffffffffff168173ffffffffffffffffffffffffffffffffffffffff160361352c5760006040517f1e4fbdf7000000000000000000000000000000000000000000000000000000008152600401613523919061461e565b60405180910390fd5b6135358161426a565b50565b613540613c8b565b81600260008273ffffffffffffffffffffffffffffffffffffffff1673ffffffffffffffffffffffffffffffffffffffff16815260200190815260200160002060000160009054906101000a900460ff166135d0576040517f08c379a00000000000000000000000000000000000000000000000000000000081526004016135c790614a9c565b60405180910390fd5b8160008111613614576040517f08c379a000000000000000000000000000000000000000000000000000000000815260040161360b90614b4a565b60405180910390fd5b61361d84611ea9565b6000600260008673ffffffffffffffffffffffffffffffffffffffff1673ffffffffffffffffffffffffffffffffffffffff16815260200190815260200160002090506000600460003373ffffffffffffffffffffffffffffffffffffffff1673ffffffffffffffffffffffffffffffffffffffff16815260200190815260200160002060008773ffffffffffffffffffffffffffffffffffffffff1673ffffffffffffffffffffffffffffffffffffffff168152602001908152602001600020905060006136ec3388613f60565b905085811015613731576040517f08c379a000000000000000000000000000000000000000000000000000000000815260040161372890614ff0565b60405180910390fd5b6000803073ffffffffffffffffffffffffffffffffffffffff16635ec88c79336040518263ffffffff1660e01b815260040161376d919061461e565b6040805180830381865afa158015613789573d6000803e3d6000fd5b505050506040513d601f19601f820116820180604052508101906137ad9190615010565b915091506000600960009054906101000a900473ffffffffffffffffffffffffffffffffffffffff1673ffffffffffffffffffffffffffffffffffffffff166341976e098b6040518263ffffffff1660e01b815260040161380e919061461e565b602060405180830381865afa15801561382b573d6000803e3d6000fd5b505050506040513d601f19601f8201168201806040525081019061384f9190614ad1565b90506000670de0b6b3a76400008a836138689190614c6d565b6138729190614cde565b905082670de0b6b3a7640000600754838761388d9190614c05565b6138979190614c6d565b6138a19190614cde565b116138e1576040517f08c379a00000000000000000000000000000000000000000000000000000000081526004016138d890614d5b565b60405180910390fd5b60008a866138ef9190614c05565b905060008103613912576000876000018190555060008760030181905550613929565b808760000181905550876004015487600301819055505b8a88600101600082825461393d9190614c05565b9250508190555061396f338c8e73ffffffffffffffffffffffffffffffffffffffff166141eb9092919063ffffffff16565b8b73ffffffffffffffffffffffffffffffffffffffff163373ffffffffffffffffffffffffffffffffffffffff167f9b1bfa7fa9ee420a16e124f794c35ac9f90472acc99140eb2f6447c714cad8eb8d6040516139cc9190614854565b60405180910390a3505050505050505050506139e6613f57565b5050565b60006139f68383613cd1565b905092915050565b600860009054906101000a900473ffffffffffffffffffffffffffffffffffffffff1673ffffffffffffffffffffffffffffffffffffffff163373ffffffffffffffffffffffffffffffffffffffff1614613a8e576040517f08c379a0000000000000000000000000000000000000000000000000000000008152600401613a8590614ef2565b60405180910390fd5b8060008111613ad2576040517f08c379a0000000000000000000000000000000000000000000000000000000008152600401613ac990614b4a565b60405180910390fd5b613adb83611ea9565b6000600260008573ffffffffffffffffffffffffffffffffffffffff1673ffffffffffffffffffffffffffffffffffffffff16815260200190815260200160002090506000600460008773ffffffffffffffffffffffffffffffffffffffff1673ffffffffffffffffffffffffffffffffffffffff16815260200190815260200160002060008673ffffffffffffffffffffffffffffffffffffffff1673ffffffffffffffffffffffffffffffffffffffff16815260200190815260200160002090506000613baa8787613cd1565b905060008582613bba9190614c05565b905060008103613bdd576000836001018190555060008360020181905550613bf4565b808360010181905550836003015483600201819055505b8360030154836002018190555085846002016000828254613c159190614c05565b925050819055508673ffffffffffffffffffffffffffffffffffffffff168873ffffffffffffffffffffffffffffffffffffffff167f4d9046e2d939f189888c8dfb01b343ca8ff3388075b9dc3e8bcf1be618db35ad88604051613c799190614854565b60405180910390a35050505050505050565b600260015403613cc7576040517f3ee5aeb500000000000000000000000000000000000000000000000000000000815260040160405180910390fd5b6002600181905550565b600080600460008573ffffffffffffffffffffffffffffffffffffffff1673ffffffffffffffffffffffffffffffffffffffff16815260200190815260200160002060008473ffffffffffffffffffffffffffffffffffffffff1673ffffffffffffffffffffffffffffffffffffffff16815260200190815260200160002060405180608001604052908160008201548152602001600182015481526020016002820154815260200160038201548152505090506000600260008573ffffffffffffffffffffffffffffffffffffffff1673ffffffffffffffffffffffffffffffffffffffff1681526020019081526020016000206040518060e00160405290816000820160009054906101000a900460ff1615151515815260200160018201548152602001600282015481526020016003820154815260200160048201548152602001600582015481526020016006820160009054906101000a900473ffffffffffffffffffffffffffffffffffffffff1673ffffffffffffffffffffffffffffffffffffffff1673ffffffffffffffffffffffffffffffffffffffff168152505090506000826020015103613e8d57600092505050613ecf565b6000826040015103613ea757816020015192505050613ecf565b816040015181606001518360200151613ec09190614c6d565b613eca9190614cde565b925050505b92915050565b613f51848573ffffffffffffffffffffffffffffffffffffffff166323b872dd868686604051602401613f0a93929190615050565b604051602081830303815290604052915060e01b6020820180517bffffffffffffffffffffffffffffffffffffffffffffffffffffffff838183161783525050505061432e565b50505050565b60018081905550565b600080600460008573ffffffffffffffffffffffffffffffffffffffff1673ffffffffffffffffffffffffffffffffffffffff16815260200190815260200160002060008473ffffffffffffffffffffffffffffffffffffffff1673ffffffffffffffffffffffffffffffffffffffff16815260200190815260200160002060405180608001604052908160008201548152602001600182015481526020016002820154815260200160038201548152505090506000600260008573ffffffffffffffffffffffffffffffffffffffff1673ffffffffffffffffffffffffffffffffffffffff1681526020019081526020016000206040518060e00160405290816000820160009054906101000a900460ff1615151515815260200160018201548152602001600282015481526020016003820154815260200160048201548152602001600582015481526020016006820160009054906101000a900473ffffffffffffffffffffffffffffffffffffffff1673ffffffffffffffffffffffffffffffffffffffff1673ffffffffffffffffffffffffffffffffffffffff16815250509050600082600001510361411c5760009250505061415e565b60008260600151036141365781600001519250505061415e565b81606001518160800151836000015161414f9190614c6d565b6141599190614cde565b925050505b92915050565b61416c6143d0565b73ffffffffffffffffffffffffffffffffffffffff1661418a611e11565b73ffffffffffffffffffffffffffffffffffffffff16146141e9576141ad6143d0565b6040517f118cdaa70000000000000000000000000000000000000000000000000000000081526004016141e0919061461e565b60405180910390fd5b565b614265838473ffffffffffffffffffffffffffffffffffffffff1663a9059cbb858560405160240161421e929190615087565b604051602081830303815290604052915060e01b6020820180517bffffffffffffffffffffffffffffffffffffffffffffffffffffffff838183161783525050505061432e565b505050565b60008060009054906101000a900473ffffffffffffffffffffffffffffffffffffffff169050816000806101000a81548173ffffffffffffffffffffffffffffffffffffffff021916908373ffffffffffffffffffffffffffffffffffffffff1602179055508173ffffffffffffffffffffffffffffffffffffffff168173ffffffffffffffffffffffffffffffffffffffff167f8be0079c531659141344cd1fd0a4f28419497f9722a3daafe3b4186f6b6457e060405160405180910390a35050565b600080602060008451602086016000885af180614351576040513d6000823e3d81fd5b3d92506000519150506000821461436c576001811415614388565b60008473ffffffffffffffffffffffffffffffffffffffff163b145b156143ca57836040517f5274afe70000000000000000000000000000000000000000000000000000000081526004016143c1919061461e565b60405180910390fd5b50505050565b600033905090565b600080fd5b600073ffffffffffffffffffffffffffffffffffffffff82169050919050565b6000614408826143dd565b9050919050565b614418816143fd565b811461442357600080fd5b50565b6000813590506144358161440f565b92915050565b600060208284031215614451576144506143d8565b5b600061445f84828501614426565b91505092915050565b6000819050919050565b61447b81614468565b82525050565b600060a0820190506144966000830188614472565b6144a36020830187614472565b6144b06040830186614472565b6144bd6060830185614472565b6144ca6080830184614472565b9695505050505050565b6144dd81614468565b81146144e857600080fd5b50565b6000813590506144fa816144d4565b92915050565b60008060408385031215614517576145166143d8565b5b600061452585828601614426565b9250506020614536858286016144eb565b9150509250929050565b60008115159050919050565b61455581614540565b82525050565b6000602082019050614570600083018461454c565b92915050565b61457f81614540565b811461458a57600080fd5b50565b60008135905061459c81614576565b92915050565b600080604083850312156145b9576145b86143d8565b5b60006145c785828601614426565b92505060206145d88582860161458d565b9150509250929050565b6000602082840312156145f8576145f76143d8565b5b6000614606848285016144eb565b91505092915050565b614618816143fd565b82525050565b6000602082019050614633600083018461460f565b92915050565b600060408201905061464e6000830185614472565b61465b6020830184614472565b9392505050565b600081519050919050565b600082825260208201905092915050565b6000819050602082019050919050565b614697816143fd565b82525050565b60006146a9838361468e565b60208301905092915050565b6000602082019050919050565b60006146cd82614662565b6146d7818561466d565b93506146e28361467e565b8060005b838110156147135781516146fa888261469d565b9750614705836146b5565b9250506001810190506146e6565b5085935050505092915050565b600081519050919050565b600082825260208201905092915050565b6000819050602082019050919050565b61475581614468565b82525050565b6000614767838361474c565b60208301905092915050565b6000602082019050919050565b600061478b82614720565b614795818561472b565b93506147a08361473c565b8060005b838110156147d15781516147b8888261475b565b97506147c383614773565b9250506001810190506147a4565b5085935050505092915050565b600060c08201905081810360008301526147f881896146c2565b9050818103602083015261480c8188614780565b905081810360408301526148208187614780565b905061482f6060830186614472565b61483c6080830185614472565b61484960a0830184614472565b979650505050505050565b60006020820190506148696000830184614472565b92915050565b60008060408385031215614886576148856143d8565b5b600061489485828601614426565b92505060206148a585828601614426565b9150509250929050565b600060e0820190506148c4600083018a61454c565b6148d16020830189614472565b6148de6040830188614472565b6148eb6060830187614472565b6148f86080830186614472565b61490560a0830185614472565b61491260c083018461460f565b98975050505050505050565b60008060008060808587031215614938576149376143d8565b5b600061494687828801614426565b945050602061495787828801614426565b9350506040614968878288016144eb565b925050606061497987828801614426565b91505092959194509250565b600060808201905061499a6000830187614472565b6149a76020830186614472565b6149b46040830185614472565b6149c16060830184614472565b95945050505050565b600060208201905081810360008301526149e481846146c2565b905092915050565b600080600060608486031215614a0557614a046143d8565b5b6000614a1386828701614426565b9350506020614a2486828701614426565b9250506040614a35868287016144eb565b9150509250925092565b600082825260208201905092915050565b7f4d61726b6574206e6f7420737570706f72746564000000000000000000000000600082015250565b6000614a86601483614a3f565b9150614a9182614a50565b602082019050919050565b60006020820190508181036000830152614ab581614a79565b9050919050565b600081519050614acb816144d4565b92915050565b600060208284031215614ae757614ae66143d8565b5b6000614af584828501614abc565b91505092915050565b7f416d6f756e74206d7573742062652067726561746572207468616e207a65726f600082015250565b6000614b34602083614a3f565b9150614b3f82614afe565b602082019050919050565b60006020820190508181036000830152614b6381614b27565b9050919050565b7f526570617920616d6f756e74206578636565647320626f72726f776564000000600082015250565b6000614ba0601d83614a3f565b9150614bab82614b6a565b602082019050919050565b60006020820190508181036000830152614bcf81614b93565b9050919050565b7f4e487b7100000000000000000000000000000000000000000000000000000000600052601160045260246000fd5b6000614c1082614468565b9150614c1b83614468565b9250828203905081811115614c3357614c32614bd6565b5b92915050565b6000614c4482614468565b9150614c4f83614468565b9250828201905080821115614c6757614c66614bd6565b5b92915050565b6000614c7882614468565b9150614c8383614468565b9250828202614c9181614468565b91508282048414831517614ca857614ca7614bd6565b5b5092915050565b7f4e487b7100000000000000000000000000000000000000000000000000000000600052601260045260246000fd5b6000614ce982614468565b9150614cf483614468565b925082614d0457614d03614caf565b5b828204905092915050565b7f496e73756666696369656e7420636f6c6c61746572616c000000000000000000600082015250565b6000614d45601783614a3f565b9150614d5082614d0f565b602082019050919050565b60006020820190508181036000830152614d7481614d38565b9050919050565b7f4e487b7100000000000000000000000000000000000000000000000000000000600052603260045260246000fd5b7f4e487b7100000000000000000000000000000000000000000000000000000000600052604160045260246000fd5b7f4e6f7420616e2061646d696e0000000000000000000000000000000000000000600082015250565b6000614e0f600c83614a3f565b9150614e1a82614dd9565b602082019050919050565b60006020820190508181036000830152614e3e81614e02565b9050919050565b600060c082019050614e5a6000830189614472565b614e676020830188614472565b614e746040830187614472565b614e816060830186614472565b614e8e6080830185614472565b614e9b60a0830184614472565b979650505050505050565b7f4e6f74206c69717569646174696f6e20636f6e74726163740000000000000000600082015250565b6000614edc601883614a3f565b9150614ee782614ea6565b602082019050919050565b60006020820190508181036000830152614f0b81614ecf565b9050919050565b7f4e6f7420656e6f75676820636f6c6c61746572616c0000000000000000000000600082015250565b6000614f48601583614a3f565b9150614f5382614f12565b602082019050919050565b60006020820190508181036000830152614f7781614f3b565b9050919050565b7f576974686472617720616d6f756e742065786365656473206465706f7369746560008201527f6400000000000000000000000000000000000000000000000000000000000000602082015250565b6000614fda602183614a3f565b9150614fe582614f7e565b604082019050919050565b6000602082019050818103600083015261500981614fcd565b9050919050565b60008060408385031215615027576150266143d8565b5b600061503585828601614abc565b925050602061504685828601614abc565b9150509250929050565b6000606082019050615065600083018661460f565b615072602083018561460f565b61507f6040830184614472565b949350505050565b600060408201905061509c600083018561460f565b6150a96020830184614472565b939250505056fea2646970667358221220ee9d5966d0a131aa7bcbadd9e6fcb9b2a92bcb0a4ed72b34268fa82918200a5e64736f6c634300081c0033",
  "linkReferences": {},
  "deployedLinkReferences": {}
}