{
  "_format": "hh-sol-artifact-1",
  "contractName": "InterestRateModel",
  "sourceName": "contracts/InterestRateModel.sol",
  "abi": [
    {
      "inputs": [
        {
          "internalType": "uint256",
          "name": "_baseRate",
          "type": "uint256"
        },
        {
          "internalType": "uint256",
          "name": "_rateSlope1",
          "type": "uint256"
        },
        {
          "internalType": "uint256",
          "name": "_rateSlope2",
          "type": "uint256"
        },
        {
          "internalType": "uint256",
          "name": "_optimalUtilization",
          "type": "uint256"
        },
        {
          "internalType": "uint256",
          "name": "_reserveFactor",
          "type": "uint256"
        }
      ],
      "stateMutability": "nonpayable",
      "type": "constructor"
    },
    {
      "anonymous": false,
      "inputs": [
        {
          "indexed": true,
          "internalType": "address",
          "name": "admin",
          "type": "address"
        },
        {
          "indexed": false,
          "internalType": "bool",
          "name": "allowed",
          "type": "bool"
        }
      ],
      "name": "AdminSet",
      "type": "event"
    },
    {
      "anonymous": false,
      "inputs": [
        {
          "indexed": true,
          "internalType": "address",
          "name": "pool",
          "type": "address"
        }
      ],
      "name": "LendingPoolSet",
      "type": "event"
    },
    {
      "inputs": [],
      "name": "baseRate",
      "outputs": [
        {
          "internalType": "uint256",
          "name": "",
          "type": "uint256"
        }
      ],
      "stateMutability": "view",
      "type": "function"
    },
    {
      "inputs": [
        {
          "internalType": "address",
          "name": "asset",
          "type": "address"
        }
      ],
      "name": "getBorrowRate",
      "outputs": [
        {
          "internalType": "uint256",
          "name": "",
          "type": "uint256"
        }
      ],
      "stateMutability": "view",
      "type": "function"
    },
    {
      "inputs": [
        {
          "internalType": "address",
          "name": "asset",
          "type": "address"
        }
      ],
      "name": "getDepositRate",
      "outputs": [
        {
          "internalType": "uint256",
          "name": "",
          "type": "uint256"
        }
      ],
      "stateMutability": "view",
      "type": "function"
    },
    {
      "inputs": [
        {
          "internalType": "address",
          "name": "",
          "type": "address"
        }
      ],
      "name": "isAdmin",
      "outputs": [
        {
          "internalType": "bool",
          "name": "",
          "type": "bool"
        }
      ],
      "stateMutability": "view",
      "type": "function"
    },
    {
      "inputs": [],
      "name": "lendingPool",
      "outputs": [
        {
          "internalType": "address",
          "name": "",
          "type": "address"
        }
      ],
      "stateMutability": "view",
      "type": "function"
    },
    {
      "inputs": [],
      "name": "optimalUtilization",
      "outputs": [
        {
          "internalType": "uint256",
          "name": "",
          "type": "uint256"
        }
      ],
      "stateMutability": "view",
      "type": "function"
    },
    {
      "inputs": [],
      "name": "rateSlope1",
      "outputs": [
        {
          "internalType": "uint256",
          "name": "",
          "type": "uint256"
        }
      ],
      "stateMutability": "view",
      "type": "function"
    },
    {
      "inputs": [],
      "name": "rateSlope2",
      "outputs": [
        {
          "internalType": "uint256",
          "name": "",
          "type": "uint256"
        }
      ],
      "stateMutability": "view",
      "type": "function"
    },
    {
      "inputs": [],
      "name": "reserveFactor",
      "outputs": [
        {
          "internalType": "uint256",
          "name": "",
          "type": "uint256"
        }
      ],
      "stateMutability": "view",
      "type": "function"
    },
    {
      "inputs": [
        {
          "internalType": "address",
          "name": "admin",
          "type": "address"
        },
        {
          "internalType": "bool",
          "name": "allowed",
          "type": "bool"
        }
      ],
      "name": "setAdmin",
      "outputs": [],
      "stateMutability": "nonpayable",
      "type": "function"
    },
    {
      "inputs": [
        {
          "internalType": "address",
          "name": "_lendingPool",
          "type": "address"
        }
      ],
      "name": "setLendingPool",
      "outputs": [],
      "stateMutability": "nonpayable",
      "type": "function"
    }
  ],
  "bytecode": "0x608060405234801561001057600080fd5b50604051610fe2380380610fe283398181016040528101906100329190610188565b670de0b6b3a764000082111561007d576040517f08c379a000000000000000000000000000000000000000000000000000000000815260040161007490610260565b60405180910390fd5b670de0b6b3a76400008111156100c8576040517f08c379a00000000000000000000000000000000000000000000000000000000081526004016100bf906102cc565b60405180910390fd5b84600081905550836001819055508260028190555081600381905550806004819055506001600560003373ffffffffffffffffffffffffffffffffffffffff1673ffffffffffffffffffffffffffffffffffffffff16815260200190815260200160002060006101000a81548160ff02191690831515021790555050505050506102ec565b600080fd5b6000819050919050565b61016581610152565b811461017057600080fd5b50565b6000815190506101828161015c565b92915050565b600080600080600060a086880312156101a4576101a361014d565b5b60006101b288828901610173565b95505060206101c388828901610173565b94505060406101d488828901610173565b93505060606101e588828901610173565b92505060806101f688828901610173565b9150509295509295909350565b600082825260208201905092915050565b7f496e76616c6964206f7074696d616c207574696c697a6174696f6e0000000000600082015250565b600061024a601b83610203565b915061025582610214565b602082019050919050565b600060208201905081810360008301526102798161023d565b9050919050565b7f496e76616c6964207265736572766520666163746f7200000000000000000000600082015250565b60006102b6601683610203565b91506102c182610280565b602082019050919050565b600060208201905081810360008301526102e5816102a9565b9050919050565b610ce7806102fb6000396000f3fe608060405234801561001057600080fd5b50600436106100a95760003560e01c80634b0bddd2116100715780634b0bddd2146101545780634c8f411d146101705780635454a4b6146101a05780636290cd1c146101be578063a59a9973146101dc578063d71275f6146101fa576100a9565b8063113aa8b1146100ae5780631eedf5c7146100ca5780631f68f20a146100e857806324d7806c146101065780634322b71414610136575b600080fd5b6100c860048036038101906100c3919061089d565b61022a565b005b6100d261043d565b6040516100df91906108e3565b60405180910390f35b6100f0610443565b6040516100fd91906108e3565b60405180910390f35b610120600480360381019061011b919061089d565b610449565b60405161012d9190610919565b60405180910390f35b61013e610469565b60405161014b91906108e3565b60405180910390f35b61016e60048036038101906101699190610960565b61046f565b005b61018a6004803603810190610185919061089d565b6105a4565b60405161019791906108e3565b60405180910390f35b6101a86106a5565b6040516101b591906108e3565b60405180910390f35b6101c66106ab565b6040516101d391906108e3565b60405180910390f35b6101e46106b1565b6040516101f191906109af565b60405180910390f35b610214600480360381019061020f919061089d565b6106d7565b60405161022191906108e3565b60405180910390f35b600560003373ffffffffffffffffffffffffffffffffffffffff1673ffffffffffffffffffffffffffffffffffffffff16815260200190815260200160002060009054906101000a900460ff166102b6576040517f08c379a00000000000000000000000000000000000000000000000000000000081526004016102ad90610a27565b60405180910390fd5b600073ffffffffffffffffffffffffffffffffffffffff168173ffffffffffffffffffffffffffffffffffffffff1603610325576040517f08c379a000000000000000000000000000000000000000000000000000000000815260040161031c90610a93565b60405180910390fd5b600073ffffffffffffffffffffffffffffffffffffffff16600660009054906101000a900473ffffffffffffffffffffffffffffffffffffffff1673ffffffffffffffffffffffffffffffffffffffff16146103b6576040517f08c379a00000000000000000000000000000000000000000000000000000000081526004016103ad90610aff565b60405180910390fd5b80600660006101000a81548173ffffffffffffffffffffffffffffffffffffffff021916908373ffffffffffffffffffffffffffffffffffffffff1602179055508073ffffffffffffffffffffffffffffffffffffffff167f1222804283c650162c0f858b42dcc4564e940f0cc2b3f001bcd6af8aa00a2f3060405160405180910390a250565b60025481565b60005481565b60056020528060005260406000206000915054906101000a900460ff1681565b60045481565b600560003373ffffffffffffffffffffffffffffffffffffffff1673ffffffffffffffffffffffffffffffffffffffff16815260200190815260200160002060009054906101000a900460ff166104fb576040517f08c379a00000000000000000000000000000000000000000000000000000000081526004016104f290610a27565b60405180910390fd5b80600560008473ffffffffffffffffffffffffffffffffffffffff1673ffffffffffffffffffffffffffffffffffffffff16815260200190815260200160002060006101000a81548160ff0219169083151502179055508173ffffffffffffffffffffffffffffffffffffffff167fe68d2c359a771606c400cf8b87000cf5864010363d6a736e98f5047b7bbe18e9826040516105989190610919565b60405180910390a25050565b6000806105b0836106d7565b90506000600660009054906101000a900473ffffffffffffffffffffffffffffffffffffffff1673ffffffffffffffffffffffffffffffffffffffff16637b6aa8bd856040518263ffffffff1660e01b815260040161060f91906109af565b602060405180830381865afa15801561062c573d6000803e3d6000fd5b505050506040513d601f19601f820116820180604052508101906106509190610b4b565b9050670de0b6b3a7640000806106669190610ba7565b600454670de0b6b3a764000061067c9190610be9565b82846106889190610ba7565b6106929190610ba7565b61069c9190610c4c565b92505050919050565b60015481565b60035481565b600660009054906101000a900473ffffffffffffffffffffffffffffffffffffffff1681565b600080600660009054906101000a900473ffffffffffffffffffffffffffffffffffffffff1673ffffffffffffffffffffffffffffffffffffffff16637b6aa8bd846040518263ffffffff1660e01b815260040161073591906109af565b602060405180830381865afa158015610752573d6000803e3d6000fd5b505050506040513d601f19601f820116820180604052508101906107769190610b4b565b90506000810361078a576000915050610835565b60035481116107c957670de0b6b3a7640000600154826107aa9190610ba7565b6107b49190610c4c565b6000546107c19190610c7d565b915050610835565b670de0b6b3a7640000600354826107e09190610be9565b6002546107ed9190610ba7565b6107f79190610c4c565b670de0b6b3a76400006003546001546108109190610ba7565b61081a9190610c4c565b6000546108279190610c7d565b6108319190610c7d565b9150505b919050565b600080fd5b600073ffffffffffffffffffffffffffffffffffffffff82169050919050565b600061086a8261083f565b9050919050565b61087a8161085f565b811461088557600080fd5b50565b60008135905061089781610871565b92915050565b6000602082840312156108b3576108b261083a565b5b60006108c184828501610888565b91505092915050565b6000819050919050565b6108dd816108ca565b82525050565b60006020820190506108f860008301846108d4565b92915050565b60008115159050919050565b610913816108fe565b82525050565b600060208201905061092e600083018461090a565b92915050565b61093d816108fe565b811461094857600080fd5b50565b60008135905061095a81610934565b92915050565b600080604083850312156109775761097661083a565b5b600061098585828601610888565b92505060206109968582860161094b565b9150509250929050565b6109a98161085f565b82525050565b60006020820190506109c460008301846109a0565b92915050565b600082825260208201905092915050565b7f4e6f7420616e2061646d696e0000000000000000000000000000000000000000600082015250565b6000610a11600c836109ca565b9150610a1c826109db565b602082019050919050565b60006020820190508181036000830152610a4081610a04565b9050919050565b7f496e76616c696420706f6f6c0000000000000000000000000000000000000000600082015250565b6000610a7d600c836109ca565b9150610a8882610a47565b602082019050919050565b60006020820190508181036000830152610aac81610a70565b9050919050565b7f4c656e64696e6720706f6f6c20616c7265616479207365740000000000000000600082015250565b6000610ae96018836109ca565b9150610af482610ab3565b602082019050919050565b60006020820190508181036000830152610b1881610adc565b9050919050565b610b28816108ca565b8114610b3357600080fd5b50565b600081519050610b4581610b1f565b92915050565b600060208284031215610b6157610b6061083a565b5b6000610b6f84828501610b36565b91505092915050565b7f4e487b7100000000000000000000000000000000000000000000000000000000600052601160045260246000fd5b6000610bb2826108ca565b9150610bbd836108ca565b9250828202610bcb816108ca565b91508282048414831517610be257610be1610b78565b5b5092915050565b6000610bf4826108ca565b9150610bff836108ca565b9250828203905081811115610c1757610c16610b78565b5b92915050565b7f4e487b7100000000000000000000000000000000000000000000000000000000600052601260045260246000fd5b6000610c57826108ca565b9150610c62836108ca565b925082610c7257610c71610c1d565b5b828204905092915050565b6000610c88826108ca565b9150610c93836108ca565b9250828201905080821115610cab57610caa610b78565b5b9291505056fea2646970667358221220780f19e3f97d8e2f92ddc149b42e4b626217f0f442e3e2bf5327b78b7f3db48e64736f6c634300081c0033",
  "linkReferences": {},
  "deployedLinkReferences": {}
}