{
  "_format": "hh-sol-artifact-1",
  "contractName": "Liquidation",
  "sourceName": "contracts/Liquidation.sol",
  "abi": [
    {
      "inputs": [
        {
          "internalType": "address",
          "name": "_priceRouter",
          "type": "address"
        },
        {
          "internalType": "address",
          "name": "_lendingPool",
          "type": "address"
        },
        {
          "internalType": "uint256",
          "name": "_liquidationThreshold",
          "type": "uint256"
        },
        {
          "internalType": "uint256",
          "name": "_closeFactor",
          "type": "uint256"
        },
        {
          "internalType": "uint256",
          "name": "_liquidationIncentive",
          "type": "uint256"
        }
      ],
      "stateMutability": "nonpayable",
      "type": "constructor"
    },
    {
      "inputs": [],
      "name": "ReentrancyGuardReentrantCall",
      "type": "error"
    },
    {
      "inputs": [
        {
          "internalType": "address",
          "name": "token",
          "type": "address"
        }
      ],
      "name": "SafeERC20FailedOperation",
      "type": "error"
    },
    {
      "anonymous": false,
      "inputs": [
        {
          "indexed": true,
          "internalType": "address",
          "name": "liquidator",
          "type": "address"
        },
        {
          "indexed": true,
          "internalType": "address",
          "name": "borrower",
          "type": "address"
        },
        {
          "indexed": false,
          "internalType": "address",
          "name": "repayAsset",
          "type": "address"
        },
        {
          "indexed": false,
          "internalType": "address",
          "name": "collateralAsset",
          "type": "address"
        },
        {
          "indexed": false,
          "internalType": "uint256",
          "name": "repayAmount",
          "type": "uint256"
        },
        {
          "indexed": false,
          "internalType": "uint256",
          "name": "seizeAmount",
          "type": "uint256"
        }
      ],
      "name": "LiquidationExecuted",
      "type": "event"
    },
    {
      "inputs": [],
      "name": "SCALE",
      "outputs": [
        {
          "internalType": "uint256",
          "name": "",
          "type": "uint256"
        }
      ],
      "stateMutability": "view",
      "type": "function"
    },
    {
      "inputs": [
        {
          "internalType": "address",
          "name": "repayAsset",
          "type": "address"
        },
        {
          "internalType": "address",
          "name": "collateralAsset",
          "type": "address"
        },
        {
          "internalType": "uint256",
          "name": "repayAmount",
          "type": "uint256"
        }
      ],
      "name": "calculateSeizeAmount",
      "outputs": [
        {
          "internalType": "uint256",
          "name": "seizeAmount",
          "type": "uint256"
        }
      ],
      "stateMutability": "view",
      "type": "function"
    },
    {
      "inputs": [],
      "name": "closeFactor",
      "outputs": [
        {
          "internalType": "uint256",
          "name": "",
          "type": "uint256"
        }
      ],
      "stateMutability": "view",
      "type": "function"
    },
    {
      "inputs": [],
      "name": "getCloseFactor",
      "outputs": [
        {
          "internalType": "uint256",
          "name": "",
          "type": "uint256"
        }
      ],
      "stateMutability": "view",
      "type": "function"
    },
    {
      "inputs": [
        {
          "internalType": "address",
          "name": "user",
          "type": "address"
        }
      ],
      "name": "isAccountLiquidatable",
      "outputs": [
        {
          "internalType": "bool",
          "name": "",
          "type": "bool"
        }
      ],
      "stateMutability": "view",
      "type": "function"
    },
    {
      "inputs": [
        {
          "internalType": "address",
          "name": "",
          "type": "address"
        }
      ],
      "name": "isAdmin",
      "outputs": [
        {
          "internalType": "bool",
          "name": "",
          "type": "bool"
        }
      ],
      "stateMutability": "view",
      "type": "function"
    },
    {
      "inputs": [],
      "name": "lendingPool",
      "outputs": [
        {
          "internalType": "address",
          "name": "",
          "type": "address"
        }
      ],
      "stateMutability": "view",
      "type": "function"
    },
    {
      "inputs": [
        {
          "internalType": "address",
          "name": "borrower",
          "type": "address"
        },
        {
          "internalType": "address",
          "name": "liquidator",
          "type": "address"
        },
        {
          "internalType": "address",
          "name": "repayAsset",
          "type": "address"
        },
        {
          "internalType": "address",
          "name": "collateralAsset",
          "type": "address"
        },
        {
          "internalType": "uint256",
          "name": "repayAmount",
          "type": "uint256"
        }
      ],
      "name": "liquidate",
      "outputs": [],
      "stateMutability": "nonpayable",
      "type": "function"
    },
    {
      "inputs": [],
      "name": "liquidationIncentive",
      "outputs": [
        {
          "internalType": "uint256",
          "name": "",
          "type": "uint256"
        }
      ],
      "stateMutability": "view",
      "type": "function"
    },
    {
      "inputs": [],
      "name": "liquidationThreshold",
      "outputs": [
        {
          "internalType": "uint256",
          "name": "",
          "type": "uint256"
        }
      ],
      "stateMutability": "view",
      "type": "function"
    },
    {
      "inputs": [],
      "name": "priceRouter",
      "outputs": [
        {
          "internalType": "address",
          "name": "",
          "type": "address"
        }
      ],
      "stateMutability": "view",
      "type": "function"
    },
    {
      "inputs": [
        {
          "internalType": "address",
          "name": "admin",
          "type": "address"
        },
        {
          "internalType": "bool",
          "name": "status",
          "type": "bool"
        }
      ],
      "name": "setAdmin",
      "outputs": [],
      "stateMutability": "nonpayable",
      "type": "function"
    },
    {
      "inputs": [
        {
          "internalType": "address",
          "name": "_lendingPool",
          "type": "address"
        }
      ],
      "name": "setLendingPool",
      "outputs": [],
      "stateMutability": "nonpayable",
      "type": "function"
    },
    {
      "inputs": [
        {
          "internalType": "uint256",
          "name": "_liquidationThreshold",
          "type": "uint256"
        },
        {
          "internalType": "uint256",
          "name": "_closeFactor",
          "type": "uint256"
        },
        {
          "internalType": "uint256",
          "name": "_liquidationIncentive",
          "type": "uint256"
        }
      ],
      "name": "setLiquidateParams",
      "outputs": [],
      "stateMutability": "nonpayable",
      "type": "function"
    },
    {
      "inputs": [
        {
          "internalType": "address",
          "name": "_priceRouter",
          "type": "address"
        }
      ],
      "name": "setPriceRouter",
      "outputs": [],
      "stateMutability": "nonpayable",
      "type": "function"
    }
  ],
  "bytecode": "0x608060405234801561001057600080fd5b50604051611c71380380611c71833981810160405281019061003291906101cc565b600160008190555084600460006101000a81548173ffffffffffffffffffffffffffffffffffffffff021916908373ffffffffffffffffffffffffffffffffffffffff16021790555083600560006101000a81548173ffffffffffffffffffffffffffffffffffffffff021916908373ffffffffffffffffffffffffffffffffffffffff1602179055508260018190555081600281905550806003819055506001600660003373ffffffffffffffffffffffffffffffffffffffff1673ffffffffffffffffffffffffffffffffffffffff16815260200190815260200160002060006101000a81548160ff0219169083151502179055505050505050610247565b600080fd5b600073ffffffffffffffffffffffffffffffffffffffff82169050919050565b600061016382610138565b9050919050565b61017381610158565b811461017e57600080fd5b50565b6000815190506101908161016a565b92915050565b6000819050919050565b6101a981610196565b81146101b457600080fd5b50565b6000815190506101c6816101a0565b92915050565b600080600080600060a086880312156101e8576101e7610133565b5b60006101f688828901610181565b955050602061020788828901610181565b9450506040610218888289016101b7565b9350506060610229888289016101b7565b925050608061023a888289016101b7565b9150509295509295909350565b611a1b806102566000396000f3fe608060405234801561001057600080fd5b50600436106100f55760003560e01c806388005bdc11610097578063be2801b511610066578063be2801b514610260578063d7d4bf4514610290578063e6ed4409146102ae578063eced5526146102ca576100f5565b806388005bdc146101ec5780638c765e9414610208578063a59a997314610226578063a928fe1014610244576100f5565b80634031234c116100d35780634031234c146101645780634b0bddd2146101825780634e21a7a31461019e578063835f6660146101bc576100f5565b806305308b9f146100fa578063113aa8b11461011857806324d7806c14610134575b600080fd5b6101026102e8565b60405161010f919061115f565b60405180910390f35b610132600480360381019061012d91906111dd565b6102ee565b005b61014e600480360381019061014991906111dd565b6103be565b60405161015b9190611225565b60405180910390f35b61016c6103de565b604051610179919061115f565b60405180910390f35b61019c6004803603810190610197919061126c565b6103e4565b005b6101a66104cb565b6040516101b3919061115f565b60405180910390f35b6101d660048036038101906101d191906112d8565b6104d5565b6040516101e3919061115f565b60405180910390f35b610206600480360381019061020191906111dd565b61069e565b005b61021061076e565b60405161021d919061115f565b60405180910390f35b61022e610774565b60405161023b919061133a565b60405180910390f35b61025e60048036038101906102599190611355565b61079a565b005b61027a600480360381019061027591906111dd565b610e05565b6040516102879190611225565b60405180910390f35b610298610efa565b6040516102a5919061133a565b60405180910390f35b6102c860048036038101906102c391906113d0565b610f20565b005b6102d2610fc6565b6040516102df919061115f565b60405180910390f35b60025481565b600660003373ffffffffffffffffffffffffffffffffffffffff1673ffffffffffffffffffffffffffffffffffffffff16815260200190815260200160002060009054906101000a900460ff1661037a576040517f08c379a000000000000000000000000000000000000000000000000000000000815260040161037190611480565b60405180910390fd5b80600560006101000a81548173ffffffffffffffffffffffffffffffffffffffff021916908373ffffffffffffffffffffffffffffffffffffffff16021790555050565b60066020528060005260406000206000915054906101000a900460ff1681565b60015481565b600660003373ffffffffffffffffffffffffffffffffffffffff1673ffffffffffffffffffffffffffffffffffffffff16815260200190815260200160002060009054906101000a900460ff16610470576040517f08c379a000000000000000000000000000000000000000000000000000000000815260040161046790611480565b60405180910390fd5b80600660008473ffffffffffffffffffffffffffffffffffffffff1673ffffffffffffffffffffffffffffffffffffffff16815260200190815260200160002060006101000a81548160ff0219169083151502179055505050565b6000600254905090565b600080600460009054906101000a900473ffffffffffffffffffffffffffffffffffffffff16905060008173ffffffffffffffffffffffffffffffffffffffff166341976e09876040518263ffffffff1660e01b8152600401610538919061133a565b602060405180830381865afa158015610555573d6000803e3d6000fd5b505050506040513d601f19601f8201168201806040525081019061057991906114b5565b905060008273ffffffffffffffffffffffffffffffffffffffff166341976e09876040518263ffffffff1660e01b81526004016105b6919061133a565b602060405180830381865afa1580156105d3573d6000803e3d6000fd5b505050506040513d601f19601f820116820180604052508101906105f791906114b5565b90506000821180156106095750600081115b610648576040517f08c379a000000000000000000000000000000000000000000000000000000000815260040161063f9061152e565b60405180910390fd5b670de0b6b3a76400008161065c919061157d565b82600354670de0b6b3a764000061067391906115bf565b8761067e919061157d565b610688919061157d565b6106929190611622565b93505050509392505050565b600660003373ffffffffffffffffffffffffffffffffffffffff1673ffffffffffffffffffffffffffffffffffffffff16815260200190815260200160002060009054906101000a900460ff1661072a576040517f08c379a000000000000000000000000000000000000000000000000000000000815260040161072190611480565b60405180910390fd5b80600460006101000a81548173ffffffffffffffffffffffffffffffffffffffff021916908373ffffffffffffffffffffffffffffffffffffffff16021790555050565b60035481565b600560009054906101000a900473ffffffffffffffffffffffffffffffffffffffff1681565b6107a2610fd2565b600073ffffffffffffffffffffffffffffffffffffffff168573ffffffffffffffffffffffffffffffffffffffff161415801561080c5750600073ffffffffffffffffffffffffffffffffffffffff168473ffffffffffffffffffffffffffffffffffffffff1614155b61084b576040517f08c379a00000000000000000000000000000000000000000000000000000000081526004016108429061169f565b60405180910390fd5b6000811161088e576040517f08c379a000000000000000000000000000000000000000000000000000000000815260040161088590611731565b60405180910390fd5b600073ffffffffffffffffffffffffffffffffffffffff16600560009054906101000a900473ffffffffffffffffffffffffffffffffffffffff1673ffffffffffffffffffffffffffffffffffffffff161415801561093c5750600073ffffffffffffffffffffffffffffffffffffffff16600460009054906101000a900473ffffffffffffffffffffffffffffffffffffffff1673ffffffffffffffffffffffffffffffffffffffff1614155b61097b576040517f08c379a0000000000000000000000000000000000000000000000000000000008152600401610972906117c3565b60405180910390fd5b6000600560009054906101000a900473ffffffffffffffffffffffffffffffffffffffff1690508073ffffffffffffffffffffffffffffffffffffffff16639198e515856040518263ffffffff1660e01b81526004016109db919061133a565b600060405180830381600087803b1580156109f557600080fd5b505af1158015610a09573d6000803e3d6000fd5b505050508073ffffffffffffffffffffffffffffffffffffffff16639198e515846040518263ffffffff1660e01b8152600401610a46919061133a565b600060405180830381600087803b158015610a6057600080fd5b505af1158015610a74573d6000803e3d6000fd5b50505050610a8186610e05565b610ac0576040517f08c379a0000000000000000000000000000000000000000000000000000000008152600401610ab79061182f565b60405180910390fd5b60008173ffffffffffffffffffffffffffffffffffffffff1663f429e35d88876040518363ffffffff1660e01b8152600401610afd92919061184f565b602060405180830381865afa158015610b1a573d6000803e3d6000fd5b505050506040513d601f19601f82011682018060405250810190610b3e91906114b5565b90506000670de0b6b3a764000060025483610b59919061157d565b610b639190611622565b90506000818511610b745784610b76565b815b9050610bc788600560009054906101000a900473ffffffffffffffffffffffffffffffffffffffff16838a73ffffffffffffffffffffffffffffffffffffffff16611018909392919063ffffffff16565b8373ffffffffffffffffffffffffffffffffffffffff1663f45c251f8a89846040518463ffffffff1660e01b8152600401610c0493929190611878565b600060405180830381600087803b158015610c1e57600080fd5b505af1158015610c32573d6000803e3d6000fd5b505050506000610c438888846104d5565b905060008573ffffffffffffffffffffffffffffffffffffffff1663ce8641888c8a6040518363ffffffff1660e01b8152600401610c8292919061184f565b602060405180830381865afa158015610c9f573d6000803e3d6000fd5b505050506040513d601f19601f82011682018060405250810190610cc391906114b5565b905080821115610cd1578091505b60008211610d14576040517f08c379a0000000000000000000000000000000000000000000000000000000008152600401610d0b906118fb565b60405180910390fd5b8573ffffffffffffffffffffffffffffffffffffffff1663ace429cf8c8a858e6040518563ffffffff1660e01b8152600401610d53949392919061191b565b600060405180830381600087803b158015610d6d57600080fd5b505af1158015610d81573d6000803e3d6000fd5b505050508a73ffffffffffffffffffffffffffffffffffffffff168a73ffffffffffffffffffffffffffffffffffffffff167fa534c842893e0901f7917b84fa80b5f6fc8c02cf92fb5e2ae9913ab9b26d7c0e8b8b8b87604051610de89493929190611960565b60405180910390a3505050505050610dfe61109a565b5050505050565b6000806000600560009054906101000a900473ffffffffffffffffffffffffffffffffffffffff1673ffffffffffffffffffffffffffffffffffffffff16635ec88c79856040518263ffffffff1660e01b8152600401610e65919061133a565b6040805180830381865afa158015610e81573d6000803e3d6000fd5b505050506040513d601f19601f82011682018060405250810190610ea591906119a5565b9150915060008203610ebc57600092505050610ef5565b60015482670de0b6b3a764000083610ed4919061157d565b610ede9190611622565b10610eee57600192505050610ef5565b6000925050505b919050565b600460009054906101000a900473ffffffffffffffffffffffffffffffffffffffff1681565b600660003373ffffffffffffffffffffffffffffffffffffffff1673ffffffffffffffffffffffffffffffffffffffff16815260200190815260200160002060009054906101000a900460ff16610fac576040517f08c379a0000000000000000000000000000000000000000000000000000000008152600401610fa390611480565b60405180910390fd5b826001819055508160028190555080600381905550505050565b670de0b6b3a764000081565b60026000540361100e576040517f3ee5aeb500000000000000000000000000000000000000000000000000000000815260040160405180910390fd5b6002600081905550565b611094848573ffffffffffffffffffffffffffffffffffffffff166323b872dd86868660405160240161104d93929190611878565b604051602081830303815290604052915060e01b6020820180517bffffffffffffffffffffffffffffffffffffffffffffffffffffffff83818316178352505050506110a4565b50505050565b6001600081905550565b600080602060008451602086016000885af1806110c7576040513d6000823e3d81fd5b3d9250600051915050600082146110e25760018114156110fe565b60008473ffffffffffffffffffffffffffffffffffffffff163b145b1561114057836040517f5274afe7000000000000000000000000000000000000000000000000000000008152600401611137919061133a565b60405180910390fd5b50505050565b6000819050919050565b61115981611146565b82525050565b60006020820190506111746000830184611150565b92915050565b600080fd5b600073ffffffffffffffffffffffffffffffffffffffff82169050919050565b60006111aa8261117f565b9050919050565b6111ba8161119f565b81146111c557600080fd5b50565b6000813590506111d7816111b1565b92915050565b6000602082840312156111f3576111f261117a565b5b6000611201848285016111c8565b91505092915050565b60008115159050919050565b61121f8161120a565b82525050565b600060208201905061123a6000830184611216565b92915050565b6112498161120a565b811461125457600080fd5b50565b60008135905061126681611240565b92915050565b600080604083850312156112835761128261117a565b5b6000611291858286016111c8565b92505060206112a285828601611257565b9150509250929050565b6112b581611146565b81146112c057600080fd5b50565b6000813590506112d2816112ac565b92915050565b6000806000606084860312156112f1576112f061117a565b5b60006112ff868287016111c8565b9350506020611310868287016111c8565b9250506040611321868287016112c3565b9150509250925092565b6113348161119f565b82525050565b600060208201905061134f600083018461132b565b92915050565b600080600080600060a086880312156113715761137061117a565b5b600061137f888289016111c8565b9550506020611390888289016111c8565b94505060406113a1888289016111c8565b93505060606113b2888289016111c8565b92505060806113c3888289016112c3565b9150509295509295909350565b6000806000606084860312156113e9576113e861117a565b5b60006113f7868287016112c3565b9350506020611408868287016112c3565b9250506040611419868287016112c3565b9150509250925092565b600082825260208201905092915050565b7f4e6f7420616e2061646d696e0000000000000000000000000000000000000000600082015250565b600061146a600c83611423565b915061147582611434565b602082019050919050565b600060208201905081810360008301526114998161145d565b9050919050565b6000815190506114af816112ac565b92915050565b6000602082840312156114cb576114ca61117a565b5b60006114d9848285016114a0565b91505092915050565b7f496e76616c696420617373657420707269636500000000000000000000000000600082015250565b6000611518601383611423565b9150611523826114e2565b602082019050919050565b600060208201905081810360008301526115478161150b565b9050919050565b7f4e487b7100000000000000000000000000000000000000000000000000000000600052601160045260246000fd5b600061158882611146565b915061159383611146565b92508282026115a181611146565b915082820484148315176115b8576115b761154e565b5b5092915050565b60006115ca82611146565b91506115d583611146565b92508282019050808211156115ed576115ec61154e565b5b92915050565b7f4e487b7100000000000000000000000000000000000000000000000000000000600052601260045260246000fd5b600061162d82611146565b915061163883611146565b925082611648576116476115f3565b5b828204905092915050565b7f5a65726f20616464726573730000000000000000000000000000000000000000600082015250565b6000611689600c83611423565b915061169482611653565b602082019050919050565b600060208201905081810360008301526116b88161167c565b9050919050565b7f526570617920616d6f756e74206d75737420626520677265617465722074686160008201527f6e207a65726f0000000000000000000000000000000000000000000000000000602082015250565b600061171b602683611423565b9150611726826116bf565b604082019050919050565b6000602082019050818103600083015261174a8161170e565b9050919050565b7f4c656e64696e67506f6f6c206f72205072696365526f75746572206e6f74207360008201527f6574000000000000000000000000000000000000000000000000000000000000602082015250565b60006117ad602283611423565b91506117b882611751565b604082019050919050565b600060208201905081810360008301526117dc816117a0565b9050919050565b7f4163636f756e74206973206e6f74206c6971756964617461626c650000000000600082015250565b6000611819601b83611423565b9150611824826117e3565b602082019050919050565b600060208201905081810360008301526118488161180c565b9050919050565b6000604082019050611864600083018561132b565b611871602083018461132b565b9392505050565b600060608201905061188d600083018661132b565b61189a602083018561132b565b6118a76040830184611150565b949350505050565b7f5365697a6520616d6f756e74206973207a65726f000000000000000000000000600082015250565b60006118e5601483611423565b91506118f0826118af565b602082019050919050565b60006020820190508181036000830152611914816118d8565b9050919050565b6000608082019050611930600083018761132b565b61193d602083018661132b565b61194a6040830185611150565b611957606083018461132b565b95945050505050565b6000608082019050611975600083018761132b565b611982602083018661132b565b61198f6040830185611150565b61199c6060830184611150565b95945050505050565b600080604083850312156119bc576119bb61117a565b5b60006119ca858286016114a0565b92505060206119db858286016114a0565b915050925092905056fea26469706673582212202dfc782df25926abf1433914cede263aa9c0a32d5a91b1b5707a8c36bfae7df664736f6c634300081c0033",
  "linkReferences": {},
  "deployedLinkReferences": {}
}