{
  "_format": "hh-sol-artifact-1",
  "contractName": "MyOracle",
  "sourceName": "contracts/MyOracle.sol",
  "abi": [
    {
      "inputs": [],
      "stateMutability": "nonpayable",
      "type": "constructor"
    },
    {
      "inputs": [
        {
          "internalType": "address",
          "name": "owner",
          "type": "address"
        }
      ],
      "name": "OwnableInvalidOwner",
      "type": "error"
    },
    {
      "inputs": [
        {
          "internalType": "address",
          "name": "account",
          "type": "address"
        }
      ],
      "name": "OwnableUnauthorizedAccount",
      "type": "error"
    },
    {
      "anonymous": false,
      "inputs": [
        {
          "indexed": true,
          "internalType": "address",
          "name": "previousOwner",
          "type": "address"
        },
        {
          "indexed": true,
          "internalType": "address",
          "name": "newOwner",
          "type": "address"
        }
      ],
      "name": "OwnershipTransferred",
      "type": "event"
    },
    {
      "anonymous": false,
      "inputs": [
        {
          "indexed": true,
          "internalType": "address",
          "name": "asset",
          "type": "address"
        },
        {
          "indexed": false,
          "internalType": "uint256",
          "name": "price",
          "type": "uint256"
        }
      ],
      "name": "PriceUpdated",
      "type": "event"
    },
    {
      "inputs": [
        {
          "internalType": "address",
          "name": "asset",
          "type": "address"
        }
      ],
      "name": "getPriceMyOracle",
      "outputs": [
        {
          "internalType": "uint256",
          "name": "",
          "type": "uint256"
        }
      ],
      "stateMutability": "view",
      "type": "function"
    },
    {
      "inputs": [],
      "name": "owner",
      "outputs": [
        {
          "internalType": "address",
          "name": "",
          "type": "address"
        }
      ],
      "stateMutability": "view",
      "type": "function"
    },
    {
      "inputs": [
        {
          "internalType": "address",
          "name": "",
          "type": "address"
        }
      ],
      "name": "prices",
      "outputs": [
        {
          "internalType": "uint256",
          "name": "",
          "type": "uint256"
        }
      ],
      "stateMutability": "view",
      "type": "function"
    },
    {
      "inputs": [],
      "name": "renounceOwnership",
      "outputs": [],
      "stateMutability": "nonpayable",
      "type": "function"
    },
    {
      "inputs": [
        {
          "internalType": "address",
          "name": "asset",
          "type": "address"
        },
        {
          "internalType": "uint256",
          "name": "price",
          "type": "uint256"
        }
      ],
      "name": "setPrice",
      "outputs": [],
      "stateMutability": "nonpayable",
      "type": "function"
    },
    {
      "inputs": [
        {
          "internalType": "address",
          "name": "newOwner",
          "type": "address"
        }
      ],
      "name": "transferOwnership",
      "outputs": [],
      "stateMutability": "nonpayable",
      "type": "function"
    }
  ],
  "bytecode": "0x608060405234801561001057600080fd5b5033600073ffffffffffffffffffffffffffffffffffffffff168173ffffffffffffffffffffffffffffffffffffffff16036100845760006040517f1e4fbdf700000000000000000000000000000000000000000000000000000000815260040161007b919061019e565b60405180910390fd5b6100938161009960201b60201c565b506101b9565b60008060009054906101000a900473ffffffffffffffffffffffffffffffffffffffff169050816000806101000a81548173ffffffffffffffffffffffffffffffffffffffff021916908373ffffffffffffffffffffffffffffffffffffffff1602179055508173ffffffffffffffffffffffffffffffffffffffff168173ffffffffffffffffffffffffffffffffffffffff167f8be0079c531659141344cd1fd0a4f28419497f9722a3daafe3b4186f6b6457e060405160405180910390a35050565b600073ffffffffffffffffffffffffffffffffffffffff82169050919050565b60006101888261015d565b9050919050565b6101988161017d565b82525050565b60006020820190506101b3600083018461018f565b92915050565b610766806101c86000396000f3fe608060405234801561001057600080fd5b50600436106100615760003560e01c8062e4768b14610066578063715018a6146100825780638da5cb5b1461008c578063a27b9d45146100aa578063cfed246b146100da578063f2fde38b1461010a575b600080fd5b610080600480360381019061007b9190610586565b610126565b005b61008a610276565b005b61009461028a565b6040516100a191906105d5565b60405180910390f35b6100c460048036038101906100bf91906105f0565b6102b3565b6040516100d1919061062c565b60405180910390f35b6100f460048036038101906100ef91906105f0565b6102fc565b604051610101919061062c565b60405180910390f35b610124600480360381019061011f91906105f0565b610314565b005b61012e61039a565b600073ffffffffffffffffffffffffffffffffffffffff168273ffffffffffffffffffffffffffffffffffffffff160361019d576040517f08c379a0000000000000000000000000000000000000000000000000000000008152600401610194906106a4565b60405180910390fd5b600081116101e0576040517f08c379a00000000000000000000000000000000000000000000000000000000081526004016101d790610710565b60405180910390fd5b80600160008473ffffffffffffffffffffffffffffffffffffffff1673ffffffffffffffffffffffffffffffffffffffff168152602001908152602001600020819055508173ffffffffffffffffffffffffffffffffffffffff167f0d86730737b142fc160892fa8a0f2db687a92a0e294d1ad70624cf5acef03b848260405161026a919061062c565b60405180910390a25050565b61027e61039a565b6102886000610421565b565b60008060009054906101000a900473ffffffffffffffffffffffffffffffffffffffff16905090565b6000600160008373ffffffffffffffffffffffffffffffffffffffff1673ffffffffffffffffffffffffffffffffffffffff168152602001908152602001600020549050919050565b60016020528060005260406000206000915090505481565b61031c61039a565b600073ffffffffffffffffffffffffffffffffffffffff168173ffffffffffffffffffffffffffffffffffffffff160361038e5760006040517f1e4fbdf700000000000000000000000000000000000000000000000000000000815260040161038591906105d5565b60405180910390fd5b61039781610421565b50565b6103a26104e5565b73ffffffffffffffffffffffffffffffffffffffff166103c061028a565b73ffffffffffffffffffffffffffffffffffffffff161461041f576103e36104e5565b6040517f118cdaa700000000000000000000000000000000000000000000000000000000815260040161041691906105d5565b60405180910390fd5b565b60008060009054906101000a900473ffffffffffffffffffffffffffffffffffffffff169050816000806101000a81548173ffffffffffffffffffffffffffffffffffffffff021916908373ffffffffffffffffffffffffffffffffffffffff1602179055508173ffffffffffffffffffffffffffffffffffffffff168173ffffffffffffffffffffffffffffffffffffffff167f8be0079c531659141344cd1fd0a4f28419497f9722a3daafe3b4186f6b6457e060405160405180910390a35050565b600033905090565b600080fd5b600073ffffffffffffffffffffffffffffffffffffffff82169050919050565b600061051d826104f2565b9050919050565b61052d81610512565b811461053857600080fd5b50565b60008135905061054a81610524565b92915050565b6000819050919050565b61056381610550565b811461056e57600080fd5b50565b6000813590506105808161055a565b92915050565b6000806040838503121561059d5761059c6104ed565b5b60006105ab8582860161053b565b92505060206105bc85828601610571565b9150509250929050565b6105cf81610512565b82525050565b60006020820190506105ea60008301846105c6565b92915050565b600060208284031215610606576106056104ed565b5b60006106148482850161053b565b91505092915050565b61062681610550565b82525050565b6000602082019050610641600083018461061d565b92915050565b600082825260208201905092915050565b7f496e76616c696420617373657420616464726573730000000000000000000000600082015250565b600061068e601583610647565b915061069982610658565b602082019050919050565b600060208201905081810360008301526106bd81610681565b9050919050565b7f5072696365206d7573742062652067726561746572207468616e207a65726f00600082015250565b60006106fa601f83610647565b9150610705826106c4565b602082019050919050565b60006020820190508181036000830152610729816106ed565b905091905056fea26469706673582212205203d3e4e894c69326eb56c79d0b6d1399f28da1bc4f236d6daefca724896b3f64736f6c634300081c0033",
  "linkReferences": {},
  "deployedLinkReferences": {}
}